:020000040800F2
:1000000000E40220C9010008C12A0008D92800081C
:10001000BD2A0008CD030008E145000800000000EB
:10002000000000000000000000000000E93E0008A1
:10003000FB04000800000000C32A0008EB3E000893
:10004000E3010008E3010008E3010008E301000800
:10005000E3010008E3010008E3010008E3010008F0
:10006000E3010008E3010008E3010008E3010008E0
:10007000E3010008E3010008E3010008E3010008D0
:10008000E3010008E3010008E3010008E3010008C0
:10009000E3010008E3010008E3010008E3010008B0
:1000A000E3010008E3010008E3010008E3010008A0
:1000B000E3010008E3010008E3010008E301000890
:1000C000E3010008E3010008E3010008E301000880
:1000D000E301000885450008E3010008E30100088A
:1000E000E3010008E3010008E3010008E301000860
:1000F000E3010008E3010008E3010008E301000850
:10010000E3010008112B0008E3010008E3010008E7
:10011000E3010008E3010008E3010008E30100082F
:10012000E3010008E3010008E3010008D10300082F
:10013000E3010008E3010008E3010008E30100080F
:10014000E3010008E3010008E3010008E3010008FF
:10015000E3010008E1030008E3010008E3010008EF
:10016000E3010008E3010008E3010008E3010008DF
:10017000E3010008E3010008E301000800000000BB
:10018000E3010008E3010008E3010008E3010008BF
:10019000E3010008E3010008E3010008E3010008AF
:1001A000E3010008E3010008E3010008DFF80CD0D8
:1001B00000F090F800480047836B000800E402203C
:1001C00080F30888704700000648804706480047CB
:1001D000FEE7FEE7FEE7FEE7FEE7FEE7FEE7FEE7F7
:1001E000FEE7FEE7B13F0008AD0100082DE9F05F32
:1001F0000546002092469B46884606468146402496
:100200001BE0284641464746224600F053F8534635
:100210005A46C01A914110D311461846224600F0A2
:100220003AF82D1A67EB01084F46224601200021BB
:1002300000F031F817EB00094E41201EA4F1010433
:10024000DFDC484631462A464346BDE8F09F40EA97
:1002500001039B0703D009E008C9121F08C0042A44
:10026000FAD203E011F8013B00F8013B521EF9D22B
:100270007047D2B201E000F8012B491EFBD2704753
:100280000022F6E710B513460A4604461946FFF762
:10029000F0FF204610BD202A04DB203A00FA02F1CC
:1002A000002070479140C2F1200320FA03F3194364
:1002B00090407047202A04DB203A21FA02F0002106
:1002C000704721FA02F3D040C2F120029140084366
:1002D00019467047064C074D06E0E06840F0010300
:1002E00094E8070098471034AC42F6D3FFF762FF5A
:1002F000F0760008107700087047000010B504463B
:100300002146024801F070FC10BD0000580000209A
:1003100010B5044801F07BFC042801D0012010BD79
:100320000020FCE75800002010B5002400F014F86D
:10033000012801D0012010BD064801F089FD0446C6
:1003400034B94FF40061034801F014FB00B10124FB
:100350002046F0E75800002008B5012000909DF8E5
:10036000000008BD2DE9F04104460D461646002761
:1003700033462A462146044801F090FE00B1012789
:100380003846BDE8F08100005800002001200149F6
:1003900008607047100000202DE9F04104460D462A
:1003A0001646002733462A462146044801F02AFF14
:1003B00000B101273846BDE8F08100005800002058
:1003C00001200149086070470C00002000BFFEE7D3
:1003D00010B5024800F058FA10BD0000DC00002003
:1003E00010B5024800F050FA10BD00003C0100209A
:1003F0000146087810381823B0FBF3F20848805CF7
:10040000C865032A05D908686FF30900001D8865CF
:1004100003E008686FF309008865886D7047000085
:10042000D0760008014600208A6A8B69CBB932B1C8
:10043000012A0DD0022A03D0032A10D10EE000BFFA
:10044000CB6A03F08073B3F1807F00D1012007E015
:10045000CB6AB3F1C07F00D1012001E000E000BF12
:1004600034E08B69B3F5005F1AD132B1012A07D0AD
:10047000022A03D0032A11D10AE000BF01200EE0B6
:10048000CB6A03F08073B3F1807F00D1012006E0D6
:10049000CB6AB3F1C07F00D1012000E000BF15E0BE
:1004A00032B1012A05D0022A04D0032A0CD103E07C
:1004B00000BF00BF012008E0CB6A03F08073B3F1F6
:1004C000807F00D1012000E000BF00BF704730B541
:1004D0000468246824F4802405682C600468636040
:1004E0008468402C04D10468A2600468E16003E0E1
:1004F0000468A1600468E26030BD7047704730B5A1
:1005000004460D4600222946204600F001F830BD81
:10051000F0B50346012500241148407A01281CDA71
:1005200000200F4E767A0E4FB8553846467A001D99
:1005300040F82630001F467A083082553E46707AD1
:10054000461C7E72044604F1300008703A20487060
:100550002F2088700020C87000252846F0BD0000BC
:100560005402002010B5002201B909E0012901D18F
:100570000A0205E0022901D10A0201E04FF44072AB
:100580000B2800D9001D0E4B1B6823F440730C4C44
:10059000236023461B681343236023461B6823F014
:1005A000F803236023461B68022444EAC004234363
:1005B000034C236023461B6843F48033236010BD43
:1005C000103C02401C48006800F40070B0B11A48AA
:1005D000006820F400701849086000BF08460068F1
:1005E00040F4006008600846006820F4006008607D
:1005F00000BF0846006840F4007008600E480068BC
:1006000000F48060B0B10C48006820F480600A49B2
:10061000086000BF0846006840F480500860084643
:10062000006820F48050086000BF0846006840F46D
:100630008060086070470000003C0240134A126866
:1006400022F44072114B1A60032906D11A4612682F
:10065000DB131A430D4B1A600EE0012906D10B4A39
:10066000126842F00402094B1A6005E0074A12685A
:1006700042F40042054B1A60044A12684FF480337A
:1006800043EA00231A43014B1A607047103C0240B2
:10069000074A126822F44072054B1A601A46126823
:1006A0001A601A46126842F001021A60017070471F
:1006B000103C024010B50D49096821F440710B4C03
:1006C00021602146096841F4407121602146096892
:1006D00041F001012160026000BF00BF00BFBFF315
:1006E0006F8F00BF00BF00BF436010BD103C0240D1
:1006F000084A126822F44072064B1A601A461268C1
:1007000042F480721A601A46126842F001021A60BE
:1007100001807047103C0240084A126822F440727F
:10072000064B1A601A46126842F400721A601A46A2
:10073000126842F001021A6001607047103C0240EA
:100740002A48006800F0100040B12948C06940F014
:1007500010002749C8611020244908602348006818
:1007600000F0200040B12248C06940F00800204954
:10077000C86120201D4908601C48006800F0400046
:1007800040B11B48C06940F004001949C8614020CD
:10079000164908601548006800F0800040B1144810
:1007A000C06940F002001249C86180200F4908600A
:1007B0000E48006800F4807048B10D48C06940F0F0
:1007C00001000B49C8614FF4807008490860074870
:1007D000006800F0020040B10548C06940F0200008
:1007E0000349C86102200149086070470C3C02407F
:1007F000F00E002070B50446002500201449C861A1
:1008000000F00CFC054609E0601C38B124B100F092
:1008100005FC401BA04201D9032070BD0D480068B3
:1008200000F480300028EFD10A48006800F0010091
:1008300010B10120074908600648006800F4F9700B
:1008400018B1FFF77DFF0120E7E70020E5E7000092
:10085000F00E00200C3C0240014691F835000228C1
:1008600003D08020486501207047052081F83500BD
:100870000868006820F001000A6810600020F3E7B3
:100880000146486D70470000F8B50446002000900E
:100890008C4800684FF41651B0FBF1F7A56D2E6837
:1008A00094F85C1008208840304098B120680068B7
:1008B00000F0040070B12068006820F00400216896
:1008C000086094F85C1008208840A860606D40F0D3
:1008D0000100606594F85C1001208840304068B1E8
:1008E0002068406900F0800040B194F85C1001205D
:1008F0008840A860606D40F00200606594F85C106C
:1009000004208840304068B12068006800F0020090
:1009100040B194F85C1004208840A860606D40F0FD
:100920000400606594F85C1010208840304078B373
:100930002068006800F0080050B394F85C101020A4
:100940008840A8602068006800F4802080B120689A
:10095000006800F4002028B9206CC8B12046216C42
:10096000884715E0A06C98B12046A16C88470FE03D
:100970002068006800F4807028B92068006820F0C2
:10098000080021680860206C10B12046216C88475F
:1009900094F85C10202088403040002865D0206802
:1009A000006800F0100000285FD094F85C10202050
:1009B0008840A86094F83500052828D12068006890
:1009C00020F01600216808602068406920F080004F
:1009D00021684861206C08B9A06C28B120680068C3
:1009E00020F008002168086094F85C103F208840DF
:1009F000A86000BF002084F8340000BF012084F804
:100A00003500206D10B12046216D8847F8BD206863
:100A1000006800F4802080B12068006800F40020A5
:100A200028B9606C10B12046616C88471DE0E06B0E
:100A3000D8B12046E16B884717E02068006800F4D1
:100A4000807068B92068006820F010002168086094
:100A500000BF002084F8340000BF012084F8350076
:100A6000E06B10B12046E16B8847606D38B3606D74
:100A700000F00100F0B1052084F83500206800681E
:100A800020F001002168086000BF0098401C009021
:100A9000B84200D905E02068006800F00100002895
:100AA000F3D100BF00BF002084F8340000BF012054
:100AB00084F83500E06C10B12046E16C884700BF37
:100AC000A4E70000540000202DE9F0410446002571
:100AD00000F0A4FA074614B90120BDE8F081606A6D
:100AE00000B100BF00BF002084F8340000BF022026
:100AF00084F835002068006820F001002168086053
:100B00000AE000F08BFAC01B052805D9202060659B
:100B1000032084F83500E0E72068006800F0010059
:100B20000028EED12068056821480540D4E901017C
:100B30000843E16808432169084361690843A169E2
:100B40000843E1690843216A08430543606A0428B1
:100B500003D1D4E90B0108430543206805602068F0
:100B6000456925F00705606A0543606A04280DD1D0
:100B7000A06A0543E06A48B12046FFF753FC28B15C
:100B800040206065012084F83500A6E720684561B3
:100B90002046FFF72DFC064694F85C103F20884065
:100BA000B06000206065012084F83500002094E7E3
:100BB0003F8010F02DE9F04704460D4616461F46CB
:100BC0004FF00008D4F8589000BF94F83400012882
:100BD00002D10220BDE8F087012084F8340000BF74
:100BE00094F83500012825D1022084F83500002032
:100BF00060653B46324629462046FFF768FC94F87C
:100C00005C103F208840C9F808002068006840F068
:100C1000160021680860206C28B12068006840F048
:100C20000800216808602068006840F00100216821
:100C3000086006E000BF002084F8340000BF4FF0D9
:100C400002084046C6E70000002106E0002200E05E
:100C5000521C034B9A42FBDB491C8142F6D370477E
:100C6000409002002DE9F04104460E460127002580
:100C700000BF2648007E012802D10220BDE8F08195
:100C800001202249087600BF4CF25030FFF7B2FD38
:100C90000746002F32D1401E30602068012810D155
:100CA000207C6168FFF7CAFC4CF25030FFF7A2FDD0
:100CB00007461748006848F2040188431449086051
:100CC0001AE0A56812E0217C2846FFF74BFC4CF2A5
:100CD0005030FFF78FFD07460D48006820F0FA00FE
:100CE0000B4908600FB1356005E06D1CD4E90210B6
:100CF0000844A842E7D800BFFFF764FC00BF00200B
:100D00000249087600BF3846B8E70000F00E002020
:100D1000103C02400348006840F000400149086070
:100D200000207047103C02402DE9F04106460F4676
:100D300014461D464FF0010800BF1F48007E0128E1
:100D400002D10220BDE8F08101201B49087600BFD6
:100D50004CF25030FFF74EFD8046B8F1000F23D122
:100D600026B9E1B23846FFF793FC12E0012E04D118
:100D7000A1B23846FFF7BCFC0BE0022E04D121469D
:100D80003846FFF7C9FC04E022462B463846FFF7F9
:100D900091FC4CF25030FFF72DFD8046074800686B
:100DA00020F001000549086000BF002002490876D4
:100DB00000BF4046C6E70000F00E0020103C024095
:100DC00000200949096801F0004159B10749064A64
:100DD0000C3A1160064911600349096801F00041AD
:100DE00001B1012070470000103C0240230167451B
:100DF000AB89EFCDF8B502460B4600250024002054
:100E00000021E6E0012606FA01F51E6806EA05045F
:100E1000AC4273D15E68012E08D05E68022E05D008
:100E20005E68112E02D05E68122E13D190684F00BA
:100E30000326BE40B0434F00DE68BE4030439060A2
:100E4000506801268E40B0431E79C6F300168E40CE
:100E500030435060D0684F000326BE40B0434F007F
:100E60009E68BE403043D0605E68022E02D05E684D
:100E7000122E13D1CF0802F1200656F827004E0794
:100E8000F70E0F26BE40B0434F07FF0E1E69BE404F
:100E90003043CF0802F1200646F8270010684F00C3
:100EA0000326BE40B0431E7906F003064F00BE4045
:100EB000304310605E6806F08056B6F1805FA8D1BE
:100EC00000BF00260096454E366846F48046434FE4
:100ED0003E603E46366806F48046009600BF00BF7E
:100EE0003F4E8F0856F827008E07370F0F26BE405B
:100EF000B0433C4EB24202D100262EE068E03A4EAA
:100F0000B24201D1012628E0384EB24201D1022678
:100F100023E0374EB24201D103261EE0354EB242E5
:100F200001D1042619E0344EB24201D1052614E065
:100F3000324EB24201D106260FE0314EB24201D10B
:100F400007260AE02F4EB24201D1082605E02E4EB8
:100F5000B24201D1092600E00A268F073F0FBE40AA
:100F600030431F4E8F0846F82700284E3068A043B4
:100F70005E6806F48036B6F5803F00D12043234EEC
:100F80003060361D3068A0435E6806F40036B6F562
:100F9000003F00D120431D4E361D3060361D3068A5
:100FA000A0435E6806F48016B6F5801F00D120438A
:100FB000164E08363060361D3068A0435E6806F471
:100FC0000016B6F5001F00D12043104E0C363060DD
:100FD000491C1029FFF416AFF8BD00004438024048
:100FE00008380140000002400004024000080240AE
:100FF000000C0240001002400014024000180240A1
:10100000001C02400020024000240240003C01403D
:101010000AB1816101E00B048361704701480068F7
:101020007047000048000020034800680349097821
:101030000844014908607047480000205000002023
:1010400010B50D48006840F400700B490860084670
:10105000006840F4806008600846006840F48070D2
:101060000860032000F0A2F8002000F007F800F06C
:101070002BF8002010BD0000003C024070B5044673
:101080000E4800784FF47A71B1FBF0F00C49096812
:10109000B1FBF0F5284601F0EBF908B1012070BD75
:1010A000102C07D200222146501E00F041F80548BE
:1010B000046001E00120F2E70020F0E7500000208A
:1010C000540000204C00002008B500BF0020009014
:1010D0000E48006840F480400C49086008460068EB
:1010E00000F48040009000BF00BF00BF00200090CF
:1010F000081F006840F08050091F0860084600681B
:1011000000F08050009000BF00BF08BD443802408E
:1011100001460846002809DB00F01F0301229A401F
:1011200043099B0003F1E023C3F8002100BF70478F
:101130002DE9F05F80460D461646002703F052FA6F
:10114000074639462A46334601F00700C0F1070A30
:10115000BAF1040F02D94FF0040A01E0C0F1070A06
:10116000D14600F1040ABAF1070F02D24FF0000A8B
:1011700001E0A0F1030AD4464FF0010A0AFA09FA85
:10118000AAF1010A0AEA020A0AFA0CFA4FF0010B64
:101190000BFA0CFBABF1010B0BEA030B4AEA0B0455
:1011A0002146404603F026FABDE8F09F00BF00F05C
:1011B0000702064B19684FF6FF031940044B0B4317
:1011C00043EA0221014B196000BF70470CED00E0BB
:1011D0000000FA0538B5002400BF002000901D482B
:1011E000006840F080501B4908600846006800F025
:1011F0008050009000BF00BF012017490864FFF72E
:101200000DFF044607E0FFF709FF001BB0F57A7FEA
:1012100001D9032038BD1148406800F48030B0F592
:10122000803FF0D101200C494864FFF7F7FE0446E7
:1012300007E0FFF7F3FE001BB0F57A7F01D903202A
:10124000E8E70648406800F40030B0F5003FF0D110
:101250000020DFE74038024000000E4200700040EE
:1012600070B504460D460CB9012070BD58480068A1
:1012700000F00F00A84209D255490D7008460068D9
:1012800000F00F00A84201D00120EEE7207800F026
:10129000020002281DD1207800F00400042805D1A6
:1012A0004C48006840F4E0504A490860207800F05B
:1012B0000800082805D14748006840F460404549C7
:1012C00008604448006820F0F000A16808434149E4
:1012D0000860207800F00100A8B36068012807D1F9
:1012E0003C4808380068C0F34040B8B90120BCE76A
:1012F0006068022802D06068032807D135480838A2
:101300000068C0F3406048B90120AEE731480838B2
:101310000068C0F3400008B90120A6E72D48006826
:1013200020F00300616808432A490860FFF776FE51
:10133000064609E0FFF772FE801B41F288318842C1
:1013400002D9032091E707E02248006800F00C0072
:101350006168B0EB810FEDD11D48006800F00F000F
:10136000A84209D91A490D700846006800F00F001C
:10137000A84201D0012078E7207800F0040004287A
:1013800007D11448006820F4E050E168084311498F
:101390000860207800F00800082808D10D4800688F
:1013A00020F46040216940EAC1000A49086000F069
:1013B0003FF808490968C1F30311074A515CC84066
:1013C0000649086006480068FFF758FE00204CE711
:1013D000003C024008380240D87600085400002043
:1013E0004C000020014800687047000054000020B5
:1013F00000B5FFF7F7FF04490968C1F38221034AEA
:10140000515CC84000BD000008380240E876000882
:1014100000B5FFF7E7FF04490968C1F34231034A09
:10142000515CC84000BD000008380240E876000862
:101430002DE9F047002400250026A1462548006834
:1014400000F00C0020B1042805D008283AD105E0AE
:10145000DFF8849039E0DFF8849036E01D48001F03
:10146000006800F03F041B48001F006800F4800083
:1014700078B11A481749091F0968C1F38811A0FB00
:1014800001700146224600233846FEF7AFFE0546AE
:101490000EE011480F49091F0968C1F38811A0FB2C
:1014A00001700146224600233846FEF79FFE05469E
:1014B0000848001F0068C0F30140401C4600B5FB0F
:1014C000F6F902E0DFF8109000BF00BF4846BDE823
:1014D000F0870000083802400024F40040787D01C5
:1014E000F8B504460CB90120F8BD207800F00100E1
:1014F000002874D0F948006800F00C0004280DD0D2
:10150000F648006800F00C00082813D1F348001FCB
:10151000006800F48000B0F5800F0BD1EF48083868
:101520000068C0F34040002859D06068002856D1B8
:101530000120D9E700BF6068B0F5803F08D1E748D7
:101540000838006840F48030E449083908601EE03B
:101550006068B0F5A02F0DD1E0480838006840F46D
:101560008020DE49083908600846006840F4803071
:1015700008600CE0D9480838006820F48030D7496A
:10158000083908600846006820F48020086000BF21
:10159000606890B1FFF742FD054606E0FFF73EFDAB
:1015A000401B642801D903209EE7CC480838006816
:1015B000C0F340400028F1D011E0FFF72FFD0546B1
:1015C00006E0FFF72BFD401B642801D903208BE7C1
:1015D000C24808380068C0F340400028F1D12078A4
:1015E00000F0020002285FD1BC48006800F00C0047
:1015F00058B1BA48006800F00C0008281CD1B74860
:10160000001F006800F48000B0B9B44808380068D2
:10161000C0F3400020B1E068012801D0012063E759
:10162000AE480838006820F0F800216940EAC1009F
:10163000AA490839086037E0E06800B30120A849EA
:101640000860FFF7EBFC054606E0FFF7E7FC401BF0
:10165000022801D9032047E7A04808380068C0F3F2
:1016600040000028F1D09D480838006820F0F800BC
:10167000216940EAC10099490839086014E0002056
:1016800097490860FFF7CAFC054606E0FFF7C6FC6D
:10169000401B022801D9032026E79048083800683B
:1016A000C0F340000028F1D1207800F0080008289D
:1016B0002CD16069A8B101208A490860FFF7AEFC0F
:1016C000054606E0FFF7AAFC401B022801D90320CB
:1016D0000AE782486C300068C0F340000028F1D06F
:1016E00014E000207F490860FFF798FC054606E0FB
:1016F000FFF794FC401B022801D90320F4E6774849
:101700006C300068C0F340000028F1D1207800F070
:101710000400042870D1002770483830006800F0B9
:10172000805090B900BF002000906C4838300068AD
:1017300040F080506949383108600846006800F080
:101740008050009000BF00BF01276748006800F488
:101750008070B0B96448006840F4807062490860E5
:10176000FFF75CFC054606E0FFF758FC401B02282B
:1017700001D90320B8E65C48006800F480700028B6
:10178000F2D000BFA068012808D154486830006832
:1017900040F001005149683108601DE0A06805284B
:1017A0000DD14E486830006840F004004B49683164
:1017B00008600846006840F0010008600CE04748F7
:1017C0006830006820F0010044496831086008462C
:1017D000006820F00400086000BFA068A8B1FFF70F
:1017E0001DFC054609E0FFF719FC401B41F288315A
:1017F000884202D9032077E626E03848683000683E
:10180000C0F340000028EED013E0FFF707FC0546C8
:1018100008E0FFF703FC401B41F28831884201D900
:10182000032061E62D4868300068C0F340000028BE
:10183000EFD1012F07D129483830006820F08050BF
:1018400026493831086000BFA069002845D02348E8
:10185000006800F00C0008285DD0A069022845D17E
:1018600000201F490866FFF7D9FB054606E0FFF791
:10187000D5FB401B022801D9032035E6174808385C
:101880000068C0F340600028F1D1D4E907010843A3
:10189000616A40EA81110122A06AC2EB500041EA6C
:1018A00000412C20005D41EA00600C49091F0860DE
:1018B00001200B490866FFF7B1FB054606E0FFF77C
:1018C000ADFB401B022801D903200DE60348083870
:1018D0000068C0F340600028F1D03FE008380240C3
:1018E00000004742800E47420070004000201C4923
:1018F0000866FFF793FB054606E0FFF78FFB401BEA
:10190000022801D90320EFE516480068C0F34060C3
:101910000028F2D122E0A069012800D1E4E51148B5
:10192000001D066806F48001E069814214D106F0CA
:101930003F01206A81420FD147F6C0703040616A92
:10194000884209D106F44031A06A814204D106F0F0
:101950007061E06A814201D00120C5E50020C3E545
:10196000000047420038024010B50446FEF7C4FCB0
:1019700010BD000070B58AB004460D46032084F8FF
:101980003400606C032820D0B5F5805F04D1A06BD3
:1019900040F08050A0631CE0B5F5006F07D12046F1
:1019A00002F05FF80646A06B3043A06311E03DB93A
:1019B000204602F022F80646A06B3043A06308E000
:1019C000A06B40F00060A06303E0A06B40F080508B
:1019D000A063A06B38B1104821688863012084F8A7
:1019E00034000AB070BD60680490A0680590E0689B
:1019F0000690079560690890A069099007A807C834
:101A00008DE80700206804A90EC901F089F80120BB
:101A100084F834000020E4E7FF0540007047000030
:101A200010B50246506E800F0870506EC0F3836090
:101A30004870506EC0F301608870506E000CC87022
:101A4000B2F86400000A087192F864004871906E60
:101A5000000DC880906EC0F3034008726820805A61
:101A6000C0F3C03048726820805AC0F3803088725A
:101A70006820805AC0F34030C8726820805AC0F392
:101A80000030087300204873506C002836D168205D
:101A9000805A8005030DD06E43EA90700861D06EC5
:101AA000C0F3C2600875D06EC0F302604875D06E96
:101AB000C0F342508875D06EC0F38240C875D06EB6
:101AC000C0F3C23008760869401C50650B7E506D2B
:101AD00003F007039B1C01249C4060435065087A77
:101AE00000F00F03012098409065D2E915035B0ACE
:101AF0005843D0654FF40073136621E0506C012801
:101B000013D16820805C8006830AD06E43EA1040BF
:101B100008610869401C83025365536DD3654FF417
:101B200000739365936D13660AE02E4813689863FB
:101B3000906B40F080509063012082F8340010BD1B
:101B40006C20805AC0F3803001F8190F6C20805A45
:101B5000C0F3C61048706C20805C00F07F00887075
:101B6000106FC00FC870106FC0F341700871106F14
:101B7000C0F382604871106FC0F383508871106F9A
:101B8000C0F34050C87100200872106FC0F30040CD
:101B900048727020805AC0F3C03088727020805A1A
:101BA000C0F38030C8727020805AC0F34030087390
:101BB0007020805AC0F3003048737020805AC0F300
:101BC000812088737020805AC0F30120C873702070
:101BD000805CC0F346000874012048741939002065
:101BE000ADE70000FF0540000246506C0860906CB5
:101BF0004860D06C8860106DC860506D0861906D51
:101C00004861D06D8861106EC86100207047F8B5DA
:101C10000446002000906946204601F0D6FE0546A5
:101C200015B1A06B2843A0630098C0F3432630464B
:101C3000F8BD000070B50446256B2068406BC0F30A
:101C4000C03030B105F0080018B1204601F098FE10
:101C5000F8E02068406BC0F30020002862D04FF409
:101C60008070216888632068C06B4CF23A318843E9
:101C70002168C8632068C06A20F001002168C8623A
:101C800005F0080038B305F0020010B905F0200097
:101C900050B1206801F004F906462EB1A06B304324
:101CA000A0632046FFF7BAFE40F23A5021688863ED
:101CB000012084F834000020206305F0010010B9F1
:101CC00005F0020018B1204600F092FABAE0204672
:101CD00000F093FAB6E005F080000028B8D005F0D7
:101CE000200050B1206801F0DBF806462EB1A06B51
:101CF0003043A0632046FFF791FE05F00100002865
:101D0000A6D105F002000028A2D12068C06A20F008
:101D100008002168C862012084F83400204600F0E1
:101D20006CFA8FE02068406BC0F3803030B105F072
:101D3000080018B1204601F0C8FE83E02068406B1F
:101D400040F23A21084008B1012000E000200028BC
:101D500078D02068406BC0F3400018B1A06B40F011
:101D60000200A0632068406BC0F3C00018B1A06BF4
:101D700040F00800A0632068406BC0F3401018B129
:101D8000A06B40F02000A0632068406BC0F30010FF
:101D900018B1A06B40F01000A0632068406BC0F346
:101DA000402018B1A06B40F00800A06340F23A70E8
:101DB000216888632068C06B40F23A31884321680B
:101DC000C863206801F06CF8A16B0843A06305F0BC
:101DD000080040B1012084F8340000202063204630
:101DE000FFF71CFE2EE005F0800000B305F01000A8
:101DF00010B905F0200050B11348E16B0865E06BA5
:101E0000FEF72AFD98B1E06B01F039FB1AE005F00E
:101E1000010010B905F0020050B10C48216C0865B2
:101E2000206CFEF719FD10B1206C01F0FBFA09E0FF
:101E30000020A063012084F83400002020632046A5
:101E4000FFF792FD70BD00007F34000825340008C4
:101E500010B504460CB9012010BD94F8340020B927
:101E600000202077204600F053F8032084F8340047
:101E7000204600F00BF808B10120EDE70020A06338
:101E80002063012084F834000020E5E770B58AB0B3
:101E90000446002004900590069007900890762054
:101EA000099007A807C88DE80700206804A90EC993
:101EB00000F036FE064616B101200AB070BD0020C3
:101EC00012490860206800F045FE01200F49A03942
:101ED000C1F8A000204601F0EDFC05463DB101200F
:101EE00084F83400A06B2843A0630120E5E7204676
:101EF00001F05EFC05463DB1012084F83400A06B82
:101F00002843A0630120D8E70020D6E7A08025421F
:101F100010B586B00446142101A8FEF7B1F958495E
:101F2000206888427ED100BF00200090554800689C
:101F300040F40060534908600846006800F40060FF
:101F4000009000BF00BF00BF002000904D48143833
:101F5000006840F004004B491439086008460068E6
:101F600000F00400009000BF00BF00BF0020009000
:101F70000846006840F0080008600846006800F065
:101F80000800009000BF00BF4FF4F85001900220FD
:101F9000029000200390032004900C20059001A9DA
:101FA0003948FEF727FF042001900220029000200C
:101FB0000390032004900C20059001A93348FEF7FC
:101FC00019FF3348334908604FF000604860002132
:101FD00030488160C1604FF48061016189004161D6
:101FE000890081612021C1610021016204214162D7
:101FF000032181624FF40001C16289100163FEF781
:1020000063FD08B1FEF77AFA00BF224820648463BA
:1020100000BF1F484830204908604FF0006048600A
:10202000402100E029E01C4881600021C1604FF49C
:102030008061016189004161890081612021C16164
:102040000021016204214162032181624FF40001F9
:10205000C16289100163FEF737FD08B1FEF74EFA41
:1020600000BF0D48E063846300BF002211463120A9
:10207000FFF75EF83120FFF74BF806B010BD000007
:10208000002C01404438024000080240000C02408D
:1020900058640240DC0000203C0100202DE9F043A0
:1020A00087B004460F4691461E46C8463FB9A06B0E
:1020B00040F00060A063012007B0BDE8F08394F811
:1020C0003400012871D10020A06308EB0601E06D07
:1020D000814205D9A06B40F00070A0630120EBE7BE
:1020E000032084F8340000202168C8622068C06B97
:1020F00040F22A3108432168C8633948216CC8631B
:102100003848216CC8640020216C0865720293086D
:10211000226802F180013A46206CFEF74BFD80B147
:102120002068C06B20F495702168C8632E48216830
:102130008863A06B40F08040A063012084F83400E5
:10214000BAE7012029490860606C012801D04FEAF4
:1021500048284FF40071206800F05EFD05464DB13F
:10216000214821688863A06B2843A063012084F87C
:102170003400A1E74FF0FF300190700202909020F0
:10218000039002200490002005900120069001A9F0
:10219000206800F097FC012E08D982202063414678
:1021A000206800F0A1FD054607E016E081202063CD
:1021B0004146206800F0B4FD054665B10A48216833
:1021C0008863A06B2843A063012084F834000020BA
:1021D0002063012070E700206EE702206CE700001A
:1021E000DD33000869330008FF0540008C85254277
:1021F00010B50446FEF7CAF810BD10B50446FEF748
:10220000DFF810BD2DE9F04387B0044688469146BB
:102210001E464F46B8F1000F07D1A06B40F000609A
:10222000A063012007B0BDE8F08394F834000128D2
:1022300077D10020A063B919E06D814205D9A06B68
:1022400040F00070A0630120ECE7032084F8340024
:1022500000202168C8622068C06B40F21A21084340
:102260002168C8633948E16BC8633948E16BC864C9
:102270000020E16B0865606C012800D07F024FF4FC
:102280000071206800F0C8FC05464DB13148216856
:102290008863A06B2843A063012084F83400C1E761
:1022A000012E07D9A02020633946206800F016FED1
:1022B000054606E0902020633946206800F02AFE9B
:1022C000054665B1234821688863A06B2843A06355
:1022D000012084F83400002020630120A2E70120BF
:1022E0001D49086071028B08216801F18002414696
:1022F000E06BFEF75FFCA8B12068C06B40F21A21CA
:1023000088432168C863134821688863A06B40F044
:102310008040A063012084F8340000202063012065
:1023200080E711E04FF0FF300190700202909020A2
:1023300003900020049005900120069001A92068D8
:1023400000F0C0FB00206DE702206BE76D34000851
:1023500069330008FF0540008C85254210B504460E
:102360000CB9012010BD606A00B900BF0021A16254
:1023700094F8510028B9002084F85000204600F05D
:1023800033F8022084F851002068006820F04000F3
:1023900021680860D4E901010843E1680843216924
:1023A000084361690843218B01F400710843E16926
:1023B0000843216A0843A16A084321680860042190
:1023C000A06901EA1040616A0843216848602068FA
:1023D000C06920F400602168C861002060650120A8
:1023E00084F851000020BDE710B586B004461421E2
:1023F00001A8FDF745FF1B492068884230D100BF86
:10240000002000901848006840F4801016490860C9
:102410000846006800F48010009000BF00BF00BFB5
:102420000020009010481438006840F020000E4949
:10243000143908600846006800F02000009000BFD2
:1024400000BF4FF4607001900220029000200390C2
:10245000032004900520059001A90448FEF7CAFC5A
:1024600006B010BD00500140443802400014024044
:1024700070B504462546681EB0F1807F01D3012067
:102480000FE0681E4FF0E02148610F214FF0FF3050
:1024900002F0B0F800204FF0E021886107200861C9
:1024A000002070BD704700002DE9F0470446206809
:1024B00005682068C668206847694FF00008C14673
:1024C00005F00F08B8F1000F0AD105F0200038B16F
:1024D00006F0200020B1204601F0A2FDBDE8F08703
:1024E000B8F1000F72D007F0010018B906F490702F
:1024F00000286BD005F0010030B106F4807018B1EF
:10250000E06B40F00100E06305F0040030B107F03B
:10251000010018B1E06B40F00200E06305F002003A
:1025200030B107F0010018B1E06B40F00400E06347
:1025300005F0080048B106F0200010B907F00100CE
:1025400018B1E06B40F00800E063E06B70B305F099
:10255000200028B106F0200010B1204601F060FDF7
:1025600020684069C0F38019E06B00F0080010B9E2
:10257000B9F1000F23D0204601F032FD20684069F8
:1025800000F04000402816D12068406920F040004B
:1025900021684861606B50B11748616B0865606BDA
:1025A000FEF75AF910B1606B016D88470CE02046C8
:1025B000FFF778FF08E02046FFF774FF04E02046AD
:1025C000FFF770FF0020E06388E7FFE705F0800079
:1025D00030B106F0800018B1204601F069FF7DE7B8
:1025E00005F0400030B106F0400018B1204601F07F
:1025F00007FD73E700BF71E7CD3F000810B5044643
:102600000CB9012010BDA06900B100E000BF94F832
:10261000390028B9002084F83800204600F028F856
:10262000242084F839002068C06820F40050216814
:10263000C860204601F048FD2068006920F4904001
:10264000216808612068406920F02A0021684861FB
:102650002068C06840F400502168C8600020E06332
:10266000202084F8390084F83A000020CAE70000EE
:1026700010B586B00446142101A8FDF701FE2349D8
:102680002068884240D100BF0020009020480068A8
:1026900040F010001E4908600846006800F0100075
:1026A000009000BF00BF00BF002000901848143801
:1026B000006840F0010016491439086008460068B7
:1026C00000F00100009000BF00BF4FF4C060019017
:1026D0000220029000200390032004900720059020
:1026E00001A90C48FEF786FB002211462520FEF7C3
:1026F0001FFD2520FEF70CFD07480068C06840F06C
:10270000200005490968C86006B010BD00100140EE
:102710004438024000000240F40100202DE9F84353
:1027200004460D4616461F464FF0000994F83A003D
:10273000202861D105B116B90120BDE8F88300BF9A
:1027400094F83800012801D10220F6E7012084F82E
:10275000380000BF0020E063222084F83A00FEF732
:102760005DFC8146A685E68500BF002084F8380020
:1027700000BF39E0E08D401EE085A068B0F5805FC5
:102780001BD14B46002220212046009701F0C4FEB9
:1027900008B10320D1E7A846206938B9206840680D
:1027A000C0F30800A8F80000AD1C1DE020684068D8
:1027B000C0B2A8F800006D1C16E04B460022202194
:1027C0002046009701F0A8FE08B10320B5E7206974
:1027D00020B92068406805F8010B05E020684068D2
:1027E00000F07F0005F8010BE08D0028C2D1202009
:1027F00084F83A000020A0E702209EE770472DE908
:10280000F84304460D4616461F464FF0000994F85B
:10281000390020285DD105B116B90120BDE8F88343
:1028200000BF94F83800012801D10220F6E701200A
:1028300084F8380000BF0020E063212084F83900CC
:10284000FEF7ECFB8146A684E68400BF002084F8F6
:10285000380000BF2BE0E08C401EE084A068B0F59B
:10286000805F16D14B46002280212046009701F060
:1028700053FE08B10320D1E7A846B8F80000C0F322
:10288000080021684860206908B9AD1C0FE06D1C84
:102890000DE04B46002280212046009701F03CFECF
:1028A00008B10320BAE715F8010B21684860E08CF5
:1028B0000028D0D14B46002240212046009701F04D
:1028C0002BFE08B10320A9E7202084F8390000205E
:1028D000A4E70220A2E7704700BFFEE702E020461F
:1028E00001F0FAF9FBE7000008B500BF00200090F6
:1028F0000E48006840F480000C49086008460068F3
:1029000000F48000009000BF00BF002211463B2071
:10291000FEF70EFC3B20FEF7FBFB00221146452094
:10292000FEF706FC4520FEF7F3FB08BD30380240F9
:1029300010B503490348FDF7E2FD0349087010BDD7
:1029400015000020647200081400002000B587B054
:10295000142102A8FDF794FC00BF002001902D482F
:10296000006840F020002B4908600846006800F02D
:102970002000019000BF00BF00BF0020019008466A
:10298000006840F0800008600846006800F08000A1
:10299000019000BF00BF00BF002001900846006802
:1029A00040F0040008600846006800F00400019050
:1029B00000BF00BF00BF002001900846006840F043
:1029C000010008600846006800F00100019000BFA7
:1029D00000BF00BF002001900846006840F00800DA
:1029E00008600846006800F00800019000BF00BFC2
:1029F000002240210848FEF70BFB402002900120F6
:102A0000039000200490059002A90348FEF7F2F914
:102A100007B000BD303802400014024006480749A4
:102A2000086000204860002104488160C1600161A5
:102A30004161816170470000002C01405800002076
:102A400010B50E480E4908604FF4827048600021AE
:102A50000B488160C160016141614FF40071816187
:102A60000021C1610162416281620A21C162FFF7F6
:102A700075FC08B1FDF742FD10BD0000005001409B
:102A80009C01002010B50B480B4908604FF4E13061
:102A90004860002108488160C16001610C214161EA
:102AA00000218161C161FFF7A9FD08B1FDF726FD95
:102AB00010BD000000100140F401002000BFFEE73F
:102AC0007047704710B50246002308685062486896
:102AD0009062D1E9020420430C6920434C692043F1
:102AE0000343D06A20F0F7001843D062002010BDE5
:102AF00001460869C0B270470146086800F003004B
:102B00007047024602F1140043181868704700002D
:102B100010B50248FFF78EF810BD000058000020E5
:102B20000FB410B504460021DDE903021043059AF5
:102B30001043069A1043079A1043089A1043014322
:102B4000606847F6FF62904308436060002010BC55
:102B50005DF814FB10B50446032020600220FEF748
:102B600073F8002010BD0146D1F88000704710B501
:102B70000246002308689060D1E901042043CC6834
:102B800020430C6920430343D0686FF30B001843C4
:102B9000D060002010BD02460868C2F88000002006
:102BA000704770B586B005460C46019437200290F8
:102BB00040200390002004904FF48060059001A90C
:102BC0002846FFF7D4FF41F288323721284600F02B
:102BD000DDF90646304606B070BD000070B586B01F
:102BE00005460C460B4820430190292002904020C6
:102BF0000390002004904FF48060059001A92846BE
:102C0000FFF7B5FF284600F0C9FA0646304606B081
:102C100070BD00000000108070B586B005460C46FF
:102C200001941020029040200390002004904FF463
:102C30008060059001A92846FFF799FF41F288328C
:102C40001021284600F0A2F90646304606B070BDB5
:102C500070B586B005460C460194062002904020CF
:102C60000390002004904FF48060059001A928464D
:102C7000FFF77DFF41F288320621284600F086F9F1
:102C80000646304606B070BD30B585B0044600201B
:102C900000900190029003904FF480600490694688
:102CA0002046FFF764FF204600F050F9054628460D
:102CB00005B030BD30B585B004464FF4D5700090F6
:102CC0000820019040200290002003904FF4806083
:102CD000049069462046FFF74AFF204600F0E6FAD6
:102CE0000546284605B030BD70B586B005460C4691
:102CF00001941220029040200390002004904FF491
:102D00008060059001A92846FFF731FF41F2883223
:102D10001221284600F03AF90646304606B070BD4A
:102D200070B586B005460C460194112002904020F3
:102D30000390002004904FF48060059001A928467C
:102D4000FFF715FF41F288321121284600F01EF9E5
:102D50000646304606B070BDF0B585B0064614464E
:102D60001D4600940720019040200290002003900F
:102D70004FF48060049069463046FFF7F8FE41F258
:102D800088320721304600F001F90746384605B081
:102D9000F0BD30B585B004460020009002200190BF
:102DA000C0200290002003904FF480600490694698
:102DB0002046FFF7DCFE204600F0BEF90546284617
:102DC00005B030BD70B586B005460C4601940920AB
:102DD0000290C0200390002004904FF48060059082
:102DE00001A92846FFF7C3FE284600F0A5F90646CC
:102DF000304606B070BD30B585B004460020009066
:102E00003320019040200290002003904FF4806016
:102E1000049069462046FFF7AAFE41F2883233212A
:102E2000204600F0B3F80546284605B030BD70B521
:102E300086B005460C4601940D2002904020039078
:102E4000002004904FF48060059001A92846FFF708
:102E50008EFE41F288320D21284600F097F8064692
:102E6000304606B070BD70B586B005460C460020F1
:102E700001900320029040200390002004904FF422
:102E80008060059001A92846FFF771FE22460321C4
:102E9000284600F0AFF90646304606B070BD000087
:102EA00030B585B00446002000900C2001904020F1
:102EB0000290002003904FF4806004906946204601
:102EC000FFF755FE044A0C21204600F05FF8054646
:102ED000284605B030BD000000E1F50570B586B0AC
:102EE00005460C46019419200290402003900020D2
:102EF00004904FF48060059001A92846FFF737FE43
:102F000041F288321921284600F040F80646304642
:102F100006B070BD70B586B005460C460194182009
:102F2000029040200390002004904FF480600590B0
:102F300001A92846FFF71BFE41F2883218212846D6
:102F400000F024F80646304606B070BD01460E4833
:102F50000068C0084FF47A73B0FBF3F041F2883395
:102F600000FB03F200BF101EA2F1010202D14FF0DC
:102F700000407047486B00F080000028F3D0C52067
:102F800088630020F5E70000540000202DE9F0439D
:102F900005460F46904666480068C0084FF47A71AF
:102FA000B0FBF1F000FB08F900BFB9F10000A9F196
:102FB000010903D14FF00040BDE8F0836E6B06F0CD
:102FC00045000028F1D006F400600028EDD1686BC0
:102FD00000F0040010B10420A863EDE7686B00F076
:102FE000010010B10120A863E6E7C520A8632846C8
:102FF000FFF77EFDB84201D00120DDE70021284621
:10300000FFF77FFD04464B48204008B90020D3E776
:1030100004F00040B0F1004F02D14FF00070CBE758
:1030200004F08040B0F1804F01D14020C4E704F0AB
:103030000050B0F1005F01D18020BDE704F0805066
:10304000B0F1805F02D14FF48070B5E704F000600A
:10305000B0F1006F02D14FF40070ADE704F0806072
:10306000B0F1806F02D14FF48060A5E704F080706A
:10307000B0F1807F02D14FF400609DE704F40000BE
:10308000B0F5000F02D14FF4805095E704F48000B2
:10309000B0F5800F02D14FF400508DE704F400101A
:1030A000B0F5001F02D14FF4804085E704F4801092
:1030B000B0F5801F02D14FF400407DE704F480207A
:1030C000B0F5802F02D14FF4003075E704F40030E2
:1030D000B0F5003F02D14FF480206DE704F480305A
:1030E000B0F5803F02D14FF4002065E704F40040C2
:1030F000B0F5004F02D14FF480105DE704F480403A
:10310000B0F5804F02D14FF4001055E704F40050A1
:10311000B0F5005F02D14FF480004DE704F00800E5
:10312000082801D1000547E74FF4803044E700004C
:103130005400002008E0FFFD10B501461648006865
:10314000C0084FF47A74B0FBF4F041F2883400FB0D
:1031500004F300BF181EA3F1010302D14FF0004099
:1031600010BD4A6B02F045000028F3D002F4006065
:103170000028EFD1486B00F0040010B104208863F0
:10318000EEE7486B00F0010010B101208863E7E72B
:10319000C52088630020E3E75400002010B50146F5
:1031A00013480068C0084FF47A74B0FBF4F041F2A1
:1031B000883400FB04F300BF181EA3F1010302D101
:1031C0004FF0004010BD4A6B02F045000028F3D0DC
:1031D00002F400600028EFD1486B00F0040010B149
:1031E00004208863EEE7C52088630020EAE700003A
:1031F000540000202DE9F04304460F4690462A482B
:103200000068C0084FF47A71B0FBF1F041F28831E8
:1032100000FB01F900BFB9F10000A9F1010903D1D8
:103220004FF00040BDE8F083666B06F045000028D3
:10323000F1D006F400600028EDD1606B00F00400CE
:1032400010B10420A063EDE7606B00F0010010B145
:103250000120A063E6E72046FFF74AFCB84201D010
:103260000120DFE7C520A06300212046FFF749FCCD
:10327000054605F4604020B9280CA8F8000000209D
:10328000D0E705F48040B0F5804F02D14FF40050F4
:10329000C8E705F40040B0F5004F02D14FF480506C
:1032A000C0E74FF48030BDE75400002010B5014660
:1032B00018480068C0084FF47A74B0FBF4F041F28B
:1032C000883400FB04F300BF181EA3F1010302D1F0
:1032D0004FF0004010BD4A6B02F045000028F3D0CB
:1032E00002F400600028EFD1486B00F0040010B138
:1032F00004208863EEE7486B00F0010010B1012064
:103300008863E7E7486B00F0400008B1402088631D
:103310000020DFE75400002010B5044601200749D3
:103320000870FCF7F5FF28B90448007820F0010088
:10333000024908700148007810BD00000800002014
:1033400070B50446FDF76AFE054604E0FCF7E0FFB1
:1033500008B9002070BDFDF761FE401BA042F5D307
:103360004FF0FF30F6E700002DE9F0410646B46B60
:103370003046FDF785FA02282CD0206C476DE06BB3
:10338000D0F85480012F02D0B8F1010F1FD112489C
:10339000216888632068C06B20F49D702168C86331
:1033A000A06B40F08040A0632046FEF730FC05464D
:1033B000062D01D0052D05D12068FFF771FDA16B09
:1033C0000843A063012084F83400002020632046D5
:1033D000FEF724FBBDE8F081FF05400070B506460E
:1033E000B46B206B82280AD12068FFF759FD05468F
:1033F0002DB1A06B2843A0632046FEF70FFB206889
:10340000C06A20F008002168C86240F23A50216882
:103410008863012084F83400002020632046FEF7F2
:10342000E7FE70BD70B50546AC6B40F23A502168BE
:1034300088632046FEF7EBFB0646012084F8340043
:1034400000202063062E01D0052E05D12068FFF74D
:1034500027FDA16B0843A063A06B18B92046FEF7B7
:1034600083FA02E02046FEF7D9FA70BD0146886B68
:103470000268D26B42F480720368DA63704770B5F9
:103480000546AC6B40F23A50216888632046FEF74F
:10349000BEFB0646012084F8340000202063062E7F
:1034A00001D0052E05D12068FFF7FAFCA16B084377
:1034B000A063A06B18B92046FEF756FA02E020463A
:1034C000FEF7ACFA70BD000000B58FB023A30FCBA0
:1034D000CDE90D23CDE90B01142224A106A8FCF7A8
:1034E000B6FE182226A16846FCF7B1FE2A484068BD
:1034F00000F07F40B0F1006F26D14FF433322749FE
:10350000274803F0B7F94FF47A73142206A9254827
:10351000FFF775F92248406800F07F40B0F1006F76
:103520000AD14FF47A7310220BA91E48FFF767F9EE
:103530001B4803F089F90EE04FF47A7315226946AF
:103540001848FFF75CF906E04FF47A7315226946D4
:103550001448FFF754F90FB000BD0000BFAACABC61
:10356000D6B4D0D0B3CCD0F2210D0A00B3CCD0F277
:10357000D0B4C8EBD0BEC6ACB3C9B9A6210D0A0001
:10358000B3CCD0F2D3D0CEF32CCEDEB7A8D6B4D005
:10359000D0210D0A000000000010002000100020C3
:1035A00000000108F401002010B5012211A1124809
:1035B00002F018F8114908700846007840B1084632
:1035C0000078082804D00E4801F0F6FF012010BD55
:1035D00001220C490A4802F035F8084908700846EB
:1035E000007820B1064801F0E7FF0120EFE7002056
:1035F000EDE70000303A0000600A00202C000020B7
:10360000980C00202D0000202DE9F04389B00446DD
:103610000F46FDF703FD81464FF0000800200190A2
:1036200002903E4608212068FFF7F6FA05461DB1D4
:10363000284609B0BDE8F0835022125B11042068CF
:10364000FFF7AFFA05460DB12846F2E74FF0FF301D
:10365000039008200490302005900220069000205E
:1036600007900120089003A92068FFF72BFA206833
:10367000FFF7C1FB05460DB12846DAE715E02068E3
:10368000406B00F4001038B12068FFF76CFA01A914
:1036900041F8280008F10108FDF7C0FCA0EB090083
:1036A000401C10B94FF00040C3E72068406B40F267
:1036B0002A4108400028E2D02068406B00F0080052
:1036C00018B1082021688863B3E72068406B00F0D8
:1036D000020018B1022021688863AAE72068406BC5
:1036E00000F0200018B1202021688863A1E740F293
:1036F0003A502168886302980006029901F47F41DC
:1037000040EA0120029901F47F0140EA1120029968
:1037100040EA11603060361D01980006019901F4FD
:103720007F4140EA0120019901F47F0140EA112024
:10373000019940EA1160306000207AE700B587B057
:103740001C220FA16846FCF782FDFFF72DFFA8B9E8
:10375000124B4FF434321249124802F090F91249D8
:1037600008700846007830B14FF47A731A2269461F
:103770000E48FFF744F80B4801F01EFF07B000BDEC
:103780005344BFA8B3CCD0F2D3D0CEF32CC7EBBDFB
:10379000F8D0D0BCECB2E90D0A00000028000020EF
:1037A00000100020980C00202C000020F4010020C4
:1037B00030B58FB00446012003902068FFF79CF9D4
:1037C00018B94FF080600FB030BD606C03281BD07B
:1037D0002068FFF7DEFA05460DB12846F3E7002121
:1037E0002068FFF78EF9606704212068FFF789F9E8
:1037F000A06708212068FFF784F9E0670C212068A2
:10380000FFF77FF980210851606C032807D003A9D6
:103810002068FFF728FB05460DB12846D3E7606C0A
:10382000032820D0BDF80C1021655022125B110432
:103830002068FFF7C7FA05460DB12846C3E7002107
:103840002068FFF75EF9606604212068FFF759F9E8
:10385000A06608212068FFF754F9E0660C21206873
:10386000FFF74FF9206704212068FFF74AF9010D9F
:10387000E16404A92046FEF7D3F810B14FF0805060
:10388000A1E75020005B01040A4600232068FFF7EF
:1038900063FA05460DB1284695E7D4E90412A069FC
:1038A000CDE90012029094E80F00FFF739F90020EB
:1038B00089E70000F8B504460020009000260027A4
:1038C0002068FFF7E1F905460DB12846F8BD2068EC
:1038D000FFF7F0F9054645B10021A1642068FFF724
:1038E000D3F905461DB12846F0E70121A164A06C7B
:1038F000012808D100212068FFF753F9054615B1CA
:103900004FF08050E2E71DE000212068FFF749F901
:1039100005460DB12846D9E718492068FFF75EF93A
:10392000054615B14FF08050D0E700212068FFF721
:10393000E8F80646012080EAD67080F0010700987A
:10394000401C00904FF6FF710098884201D2002F72
:10395000DAD04FF6FF710098884202D34FF08070A2
:10396000B4E706F08040B0F1804F02D101206064DE
:1039700001E0002060640020A8E70000000010C102
:103980002DE9F0410546AC6AEF6AE7B14FF0000857
:1039900014E02868FFF7E7F806462670641C7F1ECF
:1039A000300A2070641C7F1E300C2070641C7F1E47
:1039B000300E2070641C7F1E08F10108B8F1080F5A
:1039C000E7D3AC62EF62BDE8F08170B504460D4606
:1039D00015B94FF0006070BD5022125B11042068D1
:1039E000FFF725FA06460EB13046F4E700212068BD
:1039F000FFF787F828600020EDE77CB5044600203B
:103A00000090019000212068FFF77BF800F0007023
:103A1000B0F1007F02D14FF400607CBD69462046C2
:103A2000FFF7F2FD05460DB12846F6E7019800F4D0
:103A3000803098B15022125B11042068FFF7B1F872
:103A400005460DB12846E8E700212068FFF700F998
:103A500005460DB12846E0E70020DEE74FF0806024
:103A6000DBE77CB50446002000900190002120682F
:103A7000FFF747F800F00070B0F1007F02D14FF47B
:103A800000607CBD69462046FFF7BEFD05460DB1CE
:103A90002846F6E7019800F4802098B15022125B86
:103AA00011042068FFF77DF805460DB12846E8E7C8
:103AB00002212068FFF7CCF805460DB12846E0E763
:103AC0000020DEE74FF08060DBE7F8B505462C6AA2
:103AD0006E6A1EB300271DE020780090641C761EDD
:103AE0002078009941EA00200090641C761E20781E
:103AF000009941EA00400090641C761E20780099ED
:103B000041EA00600090641C761E69462868FFF751
:103B100042F87F1C082FDFD32C626E62F8BD0000D4
:103B200010B50446FCF700FC20B92046FFF7F4FB73
:103B3000024908700148007810BD0000080000200C
:103B4000F0B589B007460D461446012616480078A0
:103B500000F0010010B1032009B0F0BD35B1012D16
:103B600006D0022D0BD0032D18D10FE0002617E050
:103B700001A8FCF7C3FB07982060002610E001A80D
:103B8000FCF7BCFB08982080002609E001A8FCF7A0
:103B9000B5FB0898400A2060002601E0042600BF1B
:103BA00000BF3046D8E70000080000202DE9F047AC
:103BB00081460D4616461F464FF0010847F2305029
:103BC000FFF7BEFB002802DA4046BDE8F0873A4620
:103BD00031462846FCF7C6FB58BB00201649086052
:103BE000FDF71CFA044600BF1348006830B9FDF722
:103BF00015FA001B47F230518842F5D30E48006891
:103C000010B94FF0010814E000200B490860FDF7DF
:103C100005FA044605E0FCF77BFB10B94FF00008FD
:103C200006E0FDF7FBF9001B47F230518842F2D362
:103C300000BF4046C9E700001000002010B5044650
:103C40002046FFF769FB10BD2DE9F04781460D4680
:103C500016461F464FF0010800201E49086047F233
:103C60003050FFF76DFB002802DA4046BDE8F087D0
:103C70003A4631462846FCF78FFB40BBFDF7CEF9AC
:103C8000044600BF1348006830B9FDF7C7F9001BB0
:103C900047F230518842F5D30E48006810B94FF012
:103CA000010814E000200B490860FDF7B7F904464D
:103CB00005E0FCF72DFB10B94FF0000806E0FDF71A
:103CC000ADF9001B47F230518842F2D300BF4046A5
:103CD000CCE700000C00002010B50446FFF72EFDD5
:103CE000FFF7F2FB10BD000001463A48814201D2C5
:103CF000002070473848814201D20120F9E7374857
:103D0000814201D20220F4E73548814201D20320EA
:103D1000EFE73448814201D20420EAE73248814289
:103D200001D20520E5E73148814201D20620E0E7D3
:103D30002F48814201D20720DBE72E48814201D281
:103D40000820D6E72C48814201D20920D1E72B4830
:103D5000814201D20A20CCE7B1F1016F01D20B20E0
:103D6000C7E72748814201D20C20C2E7254881429B
:103D700001D20D20BDE72448814201D20E20B8E7D0
:103D80002248814201D20F20B3E72148814201D26B
:103D90001020AEE71F48814201D21120A9E71E483A
:103DA000814201D21220A4E71C48814201D2132093
:103DB0009FE71B48814201D214209AE719488142AB
:103DC00001D2152095E71848814201D2162090E7CC
:103DD00017208EE7004000080080000800C000089F
:103DE00000000108000002080000040800000608A6
:103DF0000000080800000A0800000C0800000E0877
:103E0000004010080080100800C0100800001108D1
:103E1000000012080000140800001608000018082E
:103E200000001A0800001C0800001E08014608686F
:103E3000704700002DE9F04387B004460E46174650
:103E40004FF000090020019000258046B4F1006F7A
:103E500002D304F0030010B107B0BDE8F083FCF713
:103E6000AFFF254604EB87081E4885421DD219E0A6
:103E70002846FFF7DBFF401C78B10020029028465F
:103E8000FFF732FF0490012005900220069001A95F
:103E900002A8FCF7E7FE08B106E02D1D4CF25030F9
:103EA000FCF7A8FC4545E3D300BF4CF25030FCF7CB
:103EB000A1FC8146B9F1000F0FD10BE0D6F800C08C
:103EC0006246002321460220FCF72EFF00B103E0EA
:103ED000241D361D4445F1D300BFFCF71BFF00BF76
:103EE000BAE700000000FF1F704710B5FDF79CF80F
:103EF00010BD000000B593B0302107A8FCF7C0F951
:103F0000142102A8FCF7BCF900BF0020019026484C
:103F1000006840F08050244908600846006800F0BE
:103F20008050019000BF00BF00BF002001901F48DB
:103F3000006840F440401D4908600846006800F4ED
:103F40004040019000BF00BF01200790000408908E
:103F500002200D9041050E910F210F91D821109153
:103F6000022111910421129107A8FDF7B9FA08B1B5
:103F7000FCF7C4FAFDF72EF908B1FCF7BFFA0F20E1
:103F8000029002200390002004904FF4A05005906E
:103F90004FF480500690052102A8FDF761F908B1A1
:103FA000FCF7ACFA13B000BD40380240007000408E
:103FB0000548006840F47000034908604FF0006055
:103FC000014980390860704788ED00E070B505460A
:103FD000AC6B0020E085E0842046FEF763FA70BDFC
:103FE0000168C96821F490710268D160016849696B
:103FF00021F0010102685161202180F83A107047D8
:1040000010B504462068C06820F040002168C860F0
:10401000202084F839002046FEF75DFC002010BD0A
:1040200070B5044694F83A0022284AD1A068B0F549
:10403000805F13D1A56A206940B920684068C0F349
:1040400008002880A06A801CA06219E020684068EF
:10405000C0B22880A06A401CA06211E0206938B973
:1040600020684068C1B2A26A501CA062117007E0CB
:104070002068406800F07F01A26A501CA0621170A5
:10408000E08D401E80B2E085C8B92068C06820F08D
:1040900020002168C8602068C06820F48070216812
:1040A000C8602068406920F0010021684861202034
:1040B00084F83A002046FEF7A1FB002070BD0020E6
:1040C000FCE70220FAE700002DE9F84F04462068DB
:1040D000006920F44050E1680843216808612169C3
:1040E000A068084361690843E169084300902068BB
:1040F000C06849F20C618843009908432168C86090
:104100002068406920F44070A16908432168486133
:10411000E069B0F5004F75D1E3492068884203D0CB
:10412000E249206888426FD1FDF772F9814602208A
:104130006168A0FB01510B461920A9FB00712A46BA
:104140003846FCF753F86421B0FBF1F04FEA001A4F
:1041500002206168A0FB01510B461920A9FB0071E8
:104160002A463846FCF742F8074602206168A0FB61
:1041700001510B461920A9FB00B12A465846FCF70D
:1041800035F86421B0FBF1F000EBC00101EB001049
:10419000A7EB8000322101EBC0006421B0FBF1F0FD
:1041A00000F0F8000AEB400A02206168A0FB015110
:1041B0000B461920A9FB00712A463846FCF716F871
:1041C000074602206168A0FB01510B461920A9FB9C
:1041D00000B12A465846FCF709F86421B0FBF1F01B
:1041E00000EBC00101EB0010A7EB8000322101EBD6
:1041F000C0006421B0FBF1F000F0070050442168DA
:1042000088604FE16EE0FFE7FDF7F2F8814602209B
:104210006168A0FB01510B461920A9FB00712A46D9
:104220003846FBF7E3FF6421B0FBF1F04FEA001AD8
:1042300002206168A0FB01510B461920A9FB007107
:104240002A463846FBF7D2FF074602206168A0FBEA
:1042500001510B461920A9FB00B12A465846FBF72D
:10426000C5FF6421B0FBF1F000EBC00101EB0010D1
:10427000A7EB8000322101EBC0006421B0FBF1F01C
:1042800000F0F8000AEB400A02206168A0FB01512F
:104290000B461920A9FB00712A463846FBF7A6FFFA
:1042A000074602206168A0FB015003461920A9FBC4
:1042B00000B12A465846FBF799FF6421B0FBF1F0A4
:1042C00000EBC00101EB0010A7EB8000322101EBF5
:1042D000C0006421B0FBF1F000F0070050442168F9
:1042E0008860DFE070492068884203D06F49206809
:1042F00088426BD1FDF78CF8814604206168A0FBF1
:1043000001510B461920A9FB00712A463846FBF7DC
:104310006DFF824604206168A0FB01510B46192005
:10432000A9FB00712A463846FBF760FF6421B0FB09
:10433000F1F000EBC00101EB0010AAEB800032218C
:1043400001EB00106421B0FBF1F000F0F00A042052
:104350006168A0FB015003461920A9FB00712A46A1
:104360003846FBF743FF6421B0FBF1F00AEB001A7B
:1043700004206168A0FB01510B461920A9FB0071C4
:104380002A463846FBF732FF074604206168A0FB47
:10439000015003461920A9FB00B12A465846FBF7F5
:1043A00025FF6421B0FBF1F000EBC00101EB001030
:1043B000A7EB8000322101EB00106421B0FBF1F08B
:1043C00000F00F005044216888606BE0FDF710F8A2
:1043D000814604206168A0FB015003461920A9FB17
:1043E00000712A463846FBF701FF824604206168C7
:1043F000A0FB015003461920A9FB00712A4638464C
:10440000FBF7F4FE6421B0FBF1F000EBC00101EB1F
:104410000010AAEB8000322101EB00106421B0FBF8
:10442000F1F000F0F00A04206168A0FB015003469F
:104430001920A9FB00712A463846FBF7D7FE6421F4
:10444000B0FBF1F00AEB001A04206168A0FB0170D8
:1044500003461920A9FB005001463A462846FBF7BF
:10446000C5FE074604206168A0FB015003461920E1
:10447000A9FB00B12A465846FBF7B8FE6421B0FB01
:10448000F1F000EBC00101EB0010A7EB800032213E
:1044900001EB00106421B0FBF1F000F00F0050447C
:1044A00021688860BDE8F88F0010014000140140C9
:1044B000014691F8390021282CD18868B0F5805F39
:1044C0000FD10A6A1088C0F308000B6858600869A9
:1044D00018B9086A801C086209E0086A401C086272
:1044E00005E00B6A581C086218780B685860C88C85
:1044F000401E80B2C88458B90868C06820F08000A7
:104500000B68D8600868C06840F040000B68D8604D
:10451000002070470220FCE72DE9F04104460D46DB
:1045200017469846069E21E0701CF8B12EB1FCF7A4
:1045300075FDA0EB0800B04218D92068C06820F4CF
:10454000D0702168C8602068406920F001002168AF
:104550004861202084F8390084F83A0000BF002028
:1045600084F8380000BF0320BDE8F08120680068AF
:104570002840A84201D1012000E00020B842D3D059
:104580000020F1E710B5034800F006F80148FDF7F8
:104590008BFF10BDF401002038B504462068006888
:1045A000C0F34010B0B14FF47A730122694620463F
:1045B000FEF7B4F808480068B0F5343F0AD29DF819
:1045C00000000649044A1268885403480068401CE9
:1045D0000149086038BD00000400002000100020E0
:1045E00000BFFEE702480068C0F3022070470000E9
:1045F0000CED00E010B5002804DB0A07130E054A95
:10460000135406E00A07140E034A00F00F031B1FA1
:10461000D45410BD00E400E018ED00E002E008C84A
:10462000121F08C1002AFAD170477047002001E02C
:1046300001C1121F002AFBD170472DE9F047044643
:104640000D4690469946AD1E206B00EB153AC5F31A
:10465000C80605F0070101208840C7B200BF5146D7
:104660000AF1010A204602F0C8FA10B10120BDE8A3
:10467000F08700BF00BF04F13800805D384008B10A
:10468000012000E00020484501D10220EFE704F1BD
:104690003800805D784004F1380188550120E070D1
:1046A000A8F10100B0F1000800D1E0E77806000EA3
:1046B000071EE0D10127701C0646B0F5007FD9D354
:1046C0000026CCE770B504460D460020E070401E81
:1046D00060632946204602F090FA08B1042070BDBC
:1046E00004F2362002F0A8F94AF65521884201D09A
:1046F0000320F4E794F83800E92807D094F838004C
:10470000EB2817D13A20005D902813D104F16E00F8
:1047100002F055F920F07F400C49884201D1002079
:10472000DDE704F18A0002F04AF90949884201D123
:104730000020D4E70B2207A104F1380002F035FA7B
:1047400008B90120CBE70220C9E700004641540028
:1047500046415433EB769045584641542020200082
:10476000024600E0521C107810B110788842F9D14E
:104770001078704730B502460B46002004460146CB
:104780001CE01A4800EB01100068A8B1174800EBC4
:10479000011000681568A8420FD1144800EB011001
:1047A00040689568A84208D1104800EB0110806865
:1047B000156BA84201D103E00124491C0229E0D372
:1047C00000BF022906D10CB9022B01D1002030BD57
:1047D0001220FCE733B9054800EB01108089B0F5E1
:1047E000807F01D11020F2E70020F0E734020020A2
:1047F000014600200BE0074A02EB001212688A42D1
:1048000004D10022034B03EB00131A60401C022862
:10481000F1D37047340200202DE9F84F8246154647
:104820001E46DAF800000090DAF8500000F10409A2
:104830004FF40072002328463146FBF7D7FC0746A9
:104840000098B0F80AC0624600233846FBF7CEFC59
:10485000834600BF59F8044B14B90020BDE8F88F17
:10486000A34500D204E0ABEB040B09F10409F1E726
:1048700000BFD9F800005844F0E70246891ED0690D
:10488000801E884201D8002070475389106B01FBBD
:104890000300F9E72DE9F04780460C4604F11A00C1
:1048A00002F0CAF810B10020BDE8F087207800F0CF
:1048B0003F00401E00EB800101EBC0054FF00109F5
:1048C000002621E01849895D081902F0B5F807466D
:1048D000B9F1000F11D0FF2D0BD2384601F0E6FAE6
:1048E000824629466D1C38F8110001F0DFFA824536
:1048F00001D00020D8E7B94605E04FF6FF708742A7
:1049000001D00020D0E7761C0D2EDBD3207800F0FC
:10491000400038B1B9F1000F04D038F8150008B1E3
:104920000020C1E70120BFE7F87200082DE9F04739
:1049300004468A462668BAF1000F06D1776917B196
:10494000F069B84217D8012715E05146204601F01A
:1049500091FE8146B9F1020F02D20120BDE8F08735
:1049600009F1010008B94846F8E7F069484501D95E
:104970004846F3E75746307804284CD1012239469F
:10498000304601F022FB05460DB1681C08B92846E7
:10499000E4E701231A4629463046FFF74EFE8046DB
:1049A000B8F1020F01D10120D8E7B8F1010F02D10F
:1049B0004FF0FF30D2E7BAF1000F02D10220E071D0
:1049C0000AE0E079022807D1781C854204D0A0686B
:1049D000381AA0610320E071E07902284FD00AF173
:1049E0000100854207D1E06910B1E069401C00E098
:1049F0000220E06143E0E06908B90120E0612A4655
:104A00005146204601F0BFFA8046B8F1000F36D17A
:104A10000120E06133E03D4600BF6D1CF069A84213
:104A200004D80225BD4201D9002097E72946204637
:104A300001F020FE8146B9F1000F00D10BE0B9F181
:104A4000010F02D009F1010008B9484686E7BD42CE
:104A5000E3D1002082E700BF4FF0FF322946304605
:104A600002F02AF98046B8F1000F08D1BAF1000F20
:104A700005D02A465146304602F01EF98046B8F16C
:104A8000000F0DD17561D6E90610801E814202D853
:104A9000B069401EB061307940F00100307107E02C
:104AA000B8F1010F02D14FF0FF3000E001200546C0
:104AB000284653E72DE9F34F83B0814604980068F8
:104AC0000190D9F80000D0F80CA000200546064659
:104AD00000BF3046761C01990C5C202C00DA2BE0DC
:104AE0002F2C01D05C2C0AD100E0761C0198805D4F
:104AF0002F28FAD00198805D5C28F6D01CE0FF2DAD
:104B000003D3062005B0BDE8F08FE4B201212046B2
:104B100001F0A6F904460CB90620F3E7802C06DA6A
:104B200021466AA0FFF71CFE08B10620EAE72846E6
:104B30006D1C2AF81040CCE700BF01988119049839
:104B40000160202C01DA042000E00020074608E084
:104B5000681E3AF81040202C02D02E2C00D002E023
:104B60006D1E002DF4D100BF00202AF815000DB9EC
:104B70000620C7E70B22202109F1400002F034F89B
:104B8000002600E0761C3AF816002028FAD03AF801
:104B900016002E28F6D00EB147F0030700E06D1E78
:104BA00025B1681E3AF810002E28F8D14FF0000801
:104BB000CDF808804FF0080B00BF3046761C3AF85D
:104BC000104004B954E0202C03D02E2C04D1AE4266
:104BD00002D047F00307F0E70298584501D2AE42F1
:104BE00016D1BBF10B0F02D147F0030740E0AE42F4
:104BF00001D047F00307AE4200D939E02E46082025
:104C000002904FF00B0B4FEA88604FEA1068D4E730
:104C1000802C0BDB0021204601F022F904461CB158
:104C2000A4F180002C490C5C47F0020700BF24B1BE
:104C300021462AA0FFF794FD18B15F2447F003072F
:104C40000FE0412C04DB5A2C02DC48F0020808E09B
:104C5000612C06DB7A2C04DC48F00108A4F120006A
:104C600084B20298411C029109F140010C54A4E75E
:104C700000BF99F84000E52802D1052089F84000DE
:104C8000BBF1080F03D14FEA88604FEA106808F0C3
:104C90000C000C2803D008F00300032801D147F0D2
:104CA000020707F0020058B908F00300012801D1FB
:104CB00047F0100708F00C00042801D147F008075E
:104CC0004B2000F8097000201CE70000222A3A3C23
:104CD0003E3F7C7F00000000787200082B2C3B3D9B
:104CE0005B5D00002DE9F04704460D46402200219F
:104CF000204601F079FF85202070C02084F8200034
:104D000000274FF001084FF00109402600BFC122E3
:104D10003046761C225400223046761C225400BFB6
:104D2000B9F1000F06D035F81700B0F1000901D035
:104D3000781CC7B2A019494602F073F9B01C0646A8
:104D400000F01F000028EBD108F1010000F0FF087F
:104D500035F817000028DAD184F8237084F8018030
:104D6000284602F059FA8246514604F1240002F026
:104D700058F9BDE8F087000010B50246531E1A46E8
:104D8000022B17D20C4B03EB02139989B1F5807FEC
:104D900000D10021002901DD4B1E99B2064B03EB27
:104DA0000213998121B90023034C04EB0214236000
:104DB000002000E0022010BD340200202DE9F04167
:104DC00004460E46D4F800800021204600F022FB65
:104DD00005465DBB002700BF4046A16B01F00DFFFB
:104DE000054605B121E098F80000042805D1E06BE4
:104DF0000078012121EAD01009E0E06B0078E52875
:104E000002D0E06B007808B9012000E0002020B15A
:104E1000781C0746B04201D107E000270121204657
:104E200000F0DEF80546002DD6D000BF042D00D1DD
:104E300007252846BDE8F0812DE9F04F85B00446EE
:104E400025680021204600F0E5FA07461FB13846E4
:104E500005B0BDE8F08F287804284CD1E86802F04E
:104E6000DBF901903EE0296901F1240001F0E4FD45
:104E70000199884200D035E0286990F8230003901A
:104E80004FF0400A002002901FE00AF01F0008B90E
:104E90000AF1020A296901EB0A0001F0CDFD009038
:104EA00001F004F88346EA68029932F8110000F034
:104EB000FDFF834500D00BE00398401EC0B2039075
:104EC0000AF1020A0298401C029003980028DCD1E3
:104ED00000BF039828B9E968029831F8100000B9BA
:104EE00006E000BF0021204600F00AF9071EBAD0F4
:104EF00000BF3846ACE74FF0FF09CDF810904FF0F7
:104F0000FF30E06400BF2846A16B01F076FE074643
:104F100007B162E0E06B06780EB904275DE0E06B54
:104F2000C07A00F03F0884F80680E52E05D008F02E
:104F3000080040B1B8F10F0F05D04FF0FF094FF056
:104F4000FF30E06442E0B8F10F0F22D14B20005D4A
:104F500000F04000A0BB06F0400038B1E06B407BA1
:104F6000049006F0BF06B146206BE0644E450CD1BC
:104F7000E06B417B0498814207D1E16BE868FFF761
:104F800089FC10B1A9F1010000E0FF2000F0FF0949
:104F90001CE0B9F1000F06D1E06B02F081F8049932
:104FA000884200D119E04B20005D00F0010040B9BB
:104FB0000B2204F14001E06B01F0F7FD08B90CE0B1
:104FC00004E04FF0FF094FF0FF30E064002120467D
:104FD00000F006F80746002F95D000BF384637E7A7
:104FE0002DE9F047044689462568206B00F120072B
:104FF000A06B40B12878042801D1800601E04FF46D
:105000000010B84202D80420BDE8F087C7F30800BA
:1050100000286CD1A06B401CA063606B38B9288954
:10502000B0EB571F63D80020A0630420ECE7688929
:10503000401E00EA5720002859D12046616B01F03C
:1050400019FB0646012E01D80220DDE7701C08B9C5
:105050000120D9E7E869B04243D8B9F1000F03D184
:105060000020A0630420CFE72046616BFFF75EFCC1
:1050700006460EB90720C7E7012E01D10220C3E77B
:10508000701C08B90120BFE7E07940F00400E0712E
:10509000284602F05DF808B10120B5E74FF4007230
:1050A000002105F1380001F09FFD4FF00008314666
:1050B0002846FFF7E2FB68630CE00120E870284611
:1050C00002F046F808B101209EE708F10108686B7C
:1050D000401C686368894045EFD8686BA0EB080006
:1050E0006863666331462846FFF7C7FBA063276302
:1050F000C7F3080105F138000844E063002083E7A6
:105100002DE9F05F04468A46042627684FF0FF0920
:10511000CB4667E03846A16B01F06FFD064606B14D
:1051200063E0E06B05780DB904265EE0387804286A
:105130000FD100BF852D4ED1206BE064204601F0D9
:105140009FFC064626B93869007900F03F00A0713F
:105150004BE0E06BC07A00F03F0884F80680E52D54
:105160000AD02E2D08D028F02000082801D10120D7
:1051700000E00020504502D04FF0FF092BE0B8F1CD
:105180000F0F1CD105F0400038B1E06B90F80DB066
:1051900005F0BF05A946206BE0644D450BD1E06BDF
:1051A000407B584507D1E16BF86801F041FD10B133
:1051B000A9F1010000E0FF2000F0FF090BE0B9F1C8
:1051C000000F04D1E06B01F06BFF584502D04FF0A7
:1051D000FF30E06409E000212046FFF701FF0646AA
:1051E00006B102E0A06B002894D100BF0EB10020F0
:1051F000A0633046BDE8F09F2DE9F04F99B004461A
:1052000026684B20005D00F0A00018B1062019B000
:10521000BDE8F08F4FF0000B01E00BF1010BF068DF
:1052200030F81B000028F8D13078042862D10BF147
:105230000E000F21B0FBF1F000F1020949462046B3
:10524000FFF7BCFD05460DB12846E0E7A9F10100D6
:105250002022216B02FB1010E064A068002843D0DC
:10526000E07900F0040000283ED070894002D4E9C3
:105270000431181841F10001C4E90401204600F08E
:1052800067FE05460DB12846C1E74FF0FF322046C4
:10529000616B00F078FE05460DB12846B7E7214660
:1052A000684601F0CFFB05460DB12846AFE7D4E9CB
:1052B0000473316901F138003A4601F084FED4E903
:1052C0000473316901F128003A4601F07CFEE0796F
:1052D00040F00100316981F82100684601F0A7FE25
:1052E00005460DB1284692E7D6E90310FFF7FAFC10
:1052F00000208CE70C2204F1400115A801F067FCA6
:105300009DF85F0000F0010028B340214B200155BB
:105310004FF0010A0EE0534615A904F14000F2686F
:1053200001F04EF92046FFF787FD054605B104E080
:105330000AF1010ABAF1640FEDD300BFBAF1640FAC
:1053400001D1072063E7042D01D028465FE79DF8CF
:105350005F104B2001559DF85F0000F0020030B156
:105360000BF10C000D21B0FBF1F0401C00E001201E
:10537000814649462046FFF721FD054675BBA9F148
:105380000100B0F1000929D0206BA0EB49112046A3
:1053900000F040F805460DBB04F1400001F080FE2E
:1053A000149000BF3046A16B01F027FC054605B103
:1053B00013E009F0FF02E16BF068149B01F01EFDA1
:1053C0000120F07000212046FFF70AFE054625B9AE
:1053D000A9F10100B0F10009E4D100BFC5B9304620
:1053E000A16B01F00AFC054695B920220021E06B73
:1053F00001F0FAFB0B2204F14001E06B01F0E7FB46
:105400004B20005D00F01800E16B08730120F07084
:105410002846FCE62DE9F04104460D462668307822
:10542000042801D1800601E04FF40010A84202D9FF
:1054300005F01F0010B10220BDE8F0812563A768C8
:105440002FB93078032802DBF76A0020E07147B9F2
:105450003089B0EB551F01D80220EDE7F06AA06358
:105460001CE070894FEA402811E03946204601F0DF
:1054700001F90746781C08B90120DDE7022F02D3A5
:10548000F069B84201D80220D6E7A5EB08054545EA
:10549000EBD239463046FFF7F0F9A0636763A06BA3
:1054A00008B90220C8E7A06B00EB5520A063C5F344
:1054B000080106F138000844E0630020BCE7000062
:1054C00070B5044600250848005D58B9012006491A
:1054D000085501F10802105D0A1D52F824201168D8
:1054E00088470546284670BD540200202DE9F0414A
:1054F00004460D4616460649085D091F51F824105A
:1055000032460B692946984707463846BDE8F08180
:105510005C0200202DE9F04104460D4616461F4668
:105520000749085D091F51F824103B463246D1F85F
:1055300008C02946E04780464046BDE8F0810000AB
:105540005C02002070B50446044A105D121F52F838
:105550002420516888470546284670BD5C0200201B
:105560002DE9F04104460D4616461F460749085DE1
:10557000091F51F824103B463246D1F80CC0294689
:10558000E04780464046BDE8F08100005C02002014
:10559000002100E0491C022905D2064800EB011059
:1055A00000680028F6D1022901D0012070470020B0
:1055B000FCE700003402002038B50546284600F01C
:1055C00072FB044664B96946284601F0EAFD0446C8
:1055D00034B9E86AFFF7D0FB04460CB90020286014
:1055E000204638BDF7B582B016460398019001A851
:1055F00001F005F90546002D02DA0B2005B0F0BDDB
:105600000F4850F8254024B12046FFF7F1F800205C
:105610002070029810B10020029908700849029881
:1056200041F82500029808B1012E01D00020E5E7DD
:10563000002202A903A800F01BFD07463846DDE75B
:105640001C0000202DE9F74FADF5986D04469046FB
:1056500024B909200DF2CC4DBDE8F08F08F03F08C9
:1056600042460DF26C410DF2C44000F001FD0546CA
:10567000002D7DD1DDF86C14CDF8701499A8DDF8FB
:105680006C14C86001A8DDF86C1408610DF58E601B
:10569000DDF8C41400F022FF054695B99DF8BB045F
:1056A00000F0800008B106250BE028F0010008B1E9
:1056B000012000E0002001460DF58E60FFF75AF84A
:1056C000054608F01C0000287ED075B1042D09D1D4
:1056D000FFF75EFF20B10DF58E60FFF78DFD00E056
:1056E0001220054648F008080AE09DF8760400F00C
:1056F000110008B1072503E008F0040000B10825F7
:10570000002D7DD108F00800002879D001F075F84F
:10571000CDF86804DDF86C04007804287BD1DDF84E
:105720006C042060DDF86C14096901F1340001F0AB
:1057300046F9A060DDF86C14096901F1380001F048
:105740004AF9C4E90401DDF86C04006990F821000D
:1057500000F00200E0710020E061DDF86C140969DE
:1057600001F10800DDF8681401F021FC002000E0E0
:1057700048E1DDF86C1409690875DDF86C140969F5
:1057800001F10C00DDF8681401F011FC0020DDF8D7
:105790006C14096948752020DDF86C1409690871DA
:1057A000DDF86C14096901F13400002101F0FFFB00
:1057B000DDF86C14096901F138000022134601F08C
:1057C00002FCDDF86C1400E06FE0096901F12800CB
:1057D0000022134601F0F7FB0120DDF86C14096983
:1057E00081F821000DF58E6001F021FC0546002DA9
:1057F0006CD1A068002869D000222046A16801E091
:1058000064E008E001F03AFB0546A068401EDDF8C0
:105810006C1448615AE0DDF8AC1401F10E00DDF8BB
:10582000681401F0C4FBDDF8AC1401F11600DDF8DA
:10583000681401F0BCFB2020DDF8AC14C872DDF860
:10584000AC14DDF86C0401F0A7F883460022DDF803
:10585000AC14DDF86C0401F098FBDDF8AC1401F138
:105860001C00002101F0A3FB0120DDF86C14C870BE
:10587000BBF1000F2AD0DDF86C04416BCDF8681441
:10588000002259460DF58E6001F0F8FA0546EDB993
:10589000DDF86814DDF86C0401F0AFF90546ABF1F2
:1058A0000100DDF86C14486110E07DB99DF87604C4
:1058B00000F0100008B1042508E008F0020028B14B
:1058C0009DF8760400F0010000B10725D5B908F075
:1058D000080008B148F04008DDF86C04406BA06493
:1058E000DDF8AC04E06428F0010008B1012000E01C
:1058F000002001460DF58E6000F0F0FFE062E06AE6
:1059000000B90225002D7DD1DDF86C040078042853
:1059100027D1DDF878042062DDF8800420F0FF0054
:105920009DF8771408436062DDF8BC04A062DDF8DE
:105930006C14096901F1340001F041F8A060DDF850
:105940006C14096901F1380001F045F8C4E904015B
:10595000DDF86C04006990F8210000F00200E071AD
:105960000FE0DDF8AC14DDF86C0401F015F8A06070
:10597000DDF8AC1401F11C0001F021F80021C4E9AC
:10598000040100202065DDF86C042060DDF86C0463
:10599000C088A08084F83080002084F831006064E2
:1059A000A063E0634FF40072002104F1540001F0A1
:1059B0001BF908F0200000285CD00023D4E9040182
:1059C00058405940084355D0D4E90401C4E90E01B8
:1059D000DDF86C0440894FEA4029D4F808A0D4E9E6
:1059E000046712E05146204600F044FE8246BAF1B8
:1059F000010F00D802250AF1010000B90125B6EB1C
:105A0000090600E036E067F1000725B90020B9EB90
:105A10000601B841E6D3C4F840A05DBB4FF4007264
:105A2000002330463946FAF7E1FB00214A404B405B
:105A30001A431FD05146DDF86C04FEF71EFFCDF867
:105A4000640408B9022515E04FF4007200233046C3
:105A50003946FAF7CBFBDDF8641408446064626CE5
:105A6000DDF86C144878012304F15401FFF752FD6E
:105A700000B101250DB1002020602846EAE52DE99E
:105A8000FF4F87B0044615460898039000210A98F6
:105A9000016005A9204601F084FB0690069818B91C
:105AA00094F83100069018B106980BB0BDE8F08F5D
:105AB00094F8300000F0010008B90720F5E7D4E9B8
:105AC0000E31D4E90420D71A60EB0108791B78F174
:105AD000000000D23D46E1E0D4E90E014FF400722F
