:020000040800F2
:10000000780C0020C90100085B150008C113000826
:1000100059150008F9020008791B000800000000CB
:10002000000000000000000000000000C9170008E8
:10003000FB020008000000005D150008CB17000857
:10004000E3010008E3010008E3010008E301000800
:10005000E3010008E3010008E3010008E3010008F0
:10006000E3010008E3010008E3010008E3010008E0
:10007000E3010008E3010008E3010008E3010008D0
:10008000E3010008E3010008E3010008E3010008C0
:10009000E3010008E3010008E3010008E3010008B0
:1000A000E3010008E3010008E3010008E3010008A0
:1000B000E3010008E3010008E3010008E301000890
:1000C000E3010008E3010008E3010008E301000880
:1000D000E3010008291B0008E3010008E301000810
:1000E000E3010008E3010008E3010008E301000860
:1000F000E3010008E3010008E3010008E301000850
:10010000E3010008E3010008E3010008E30100083F
:10011000E3010008E3010008E3010008E30100082F
:10012000E3010008E3010008E3010008E30100081F
:10013000E3010008E3010008E3010008E30100080F
:10014000E3010008E3010008E3010008E3010008FF
:10015000E3010008E3010008E3010008E3010008EF
:10016000E3010008E3010008E3010008E3010008DF
:10017000E3010008E3010008E301000800000000BB
:10018000E3010008E3010008E3010008E3010008BF
:10019000E3010008E3010008E3010008E3010008AF
:1001A000E3010008E3010008E3010008DFF80CD0D8
:1001B00000F090F800480047511C0008780C00201F
:1001C00080F30888704700000648804706480047CB
:1001D000FEE7FEE7FEE7FEE7FEE7FEE7FEE7FEE7F7
:1001E000FEE7FEE759180008AD0100082DE9F05FB1
:1001F0000546002092469B46884606468146402496
:100200001BE0284641464746224600F053F8534635
:100210005A46C01A914110D311461846224600F0A2
:100220003AF82D1A67EB01084F46224601200021BB
:1002300000F031F817EB00094E41201EA4F1010433
:10024000DFDC484631462A464346BDE8F09F40EA97
:1002500001039B0703D009E008C9121F08C0042A44
:10026000FAD203E011F8013B00F8013B521EF9D22B
:100270007047D2B201E000F8012B491EFBD2704753
:100280000022F6E710B513460A4604461946FFF762
:10029000F0FF204610BD202A04DB203A00FA02F1CC
:1002A000002070479140C2F1200320FA03F3194364
:1002B00090407047202A04DB203A21FA02F0002106
:1002C000704721FA02F3D040C2F120029140084366
:1002D00019467047064C074D06E0E06840F0010300
:1002E00094E8070098471034AC42F6D3FFF762FF5A
:1002F000801C0008A01C0008FEE770477047000043
:1003000010B511A38AB00FCB06AC84E80F001822F9
:1003100011A16846FFF79BFF154C606808214FF458
:100320007A73B1EB106F09D1102206A9114800F0C1
:10033000E9FF204601F040FC0AB010BD15226946D5
:100340000C4800F0DFFFF7E7BFAACABCD6B4D0D094
:10035000B3CCD0F2210D0A00B3CCD0F2D3D0CEF37F
:100360002CCEDEB7A8D6B4D0D0210D0A00000000F4
:100370000000010818000020002229B101291DD029
:1003800002291ED04FF440720B2800D9001D0E49DF
:100390000B6823F440730B600B6813430B600A680F
:1003A00022F0F8020A600A68022303EBC00002434D
:1003B0000A60086840F48030086070474FF480722B
:1003C000E2E74FF40072DFE7103C02401348016897
:1003D00089050FD5016821F400710160016841F4BD
:1003E00000610160016821F400610160016841F46D
:1003F00000710160016849050FD5016821F4806131
:100400000160016841F480510160016821F480516C
:100410000160016841F4806101607047003C024066
:100420000E4A136823F44073136003290DD0012989
:1004300011680FD041F40041116011684FF480330E
:1004400043EA0020014311607047116848F2040339
:100450001943F1E741F00401EEE70000103C0240CF
:10046000064A136823F4407313601368136013681B
:1004700043F001031360017070470000103C02401C
:10048000094910B50C6824F440740C600C6844F4FD
:1004900040740C600C6844F001040C600260BFF30F
:1004A0006F8F436010BD0000103C0240074A136884
:1004B00023F440731360136843F48073136013686C
:1004C00043F001031360018070470000103C0240BC
:1004D000074A136823F440731360136843F40073EE
:1004E0001360136843F0010313600160704700005C
:1004F000103C02401C490868C2061C4805D5C26968
:1005000042F01002C26110220A600A68920605D504
:10051000C26942F00802C26120220A600A685206DB
:1005200005D5C26942F00402C26140220A600A682D
:10053000120605D5C26942F00202C26180220A6039
:100540000A68D20506D5C26942F00102C2614FF4C1
:1005500080720A600A68920705D5C26942F02002DB
:10056000C2610220086070470C3C02405800002025
:1005700070B5114904460020C86100F0D9F906465B
:100580000E4D09E0601C07D024B100F0D1F9801BAA
:10059000A04201D9032070BD2868C003F2D42868A6
:1005A000C00701D001202860286810F4F970F2D04B
:1005B000FFF7A0FF012070BD580000200C3C024056
:1005C00090F83510022903D0802141650120704741
:1005D000052180F835100068016821F001010160F3
:1005E0000020704710B50021054C05E0224602238B
:1005F0005B1C9342FCDB491C8142F7D310BD000019
:10060000409002002DE9F047044623480F46017E42
:1006100001290AD00121804601764CF25039484622
:10062000FFF7A6FF020003D030E00220BDE8F0870C
:100630004FF0FF3038602068184D012801D0A668BF
:100640001DE0207C6168FFF7EBFE4846FFF790FF56
:100650000246286848F204018843286014E0217C9F
:100660003046FFF789FE4846FFF782FF0200286800
:1006700020F0FA00286001D03E6005E0761CD4E945
:1006800002100844B042EAD8FFF7A0FE002188F823
:1006900018101046CAE7000058000020103C024025
:1006A0000348016841F000410160002070470000EC
:1006B000103C02402DE9F0471B4E05461446307EA3
:1006C0001F468946012808D0012030764CF2503868
:1006D0004046FFF74DFF18B114E00220BDE8F08757
:1006E0009DB1012D16D0022D19D022463B46484619
:1006F000FFF7C6FE4046FFF73BFF0C490A6822F0B1
:1007000001020A6000213176E8E7E1B24846FFF7CE
:10071000A7FEEFE7A1B24846FFF7C8FEEAE7214689
:100720004846FFF7D5FEE5E758000020103C0240A0
:10073000074900200A68002A09DA054A054B0C3AE5
:100740001360054B13600968002900DA0120704727
:10075000103C024023016745AB89EFCD2DE9F84FEE
:1007600000224FF0010803254FF00F0E0B6808FA26
:1007700002F42340A3426ED14E68012E05D0022E12
:1007800003D0112E01D0122E12D186684FEA420CEE
:1007900005FA0CF7BE43CF6807FA0CF737438760BA
:1007A0004668A6430C79C4F3001494403443446073
:1007B000C668570005FA07FC8C6826EA0C06BC40A0
:1007C0003443C4604C68022C01D0122C13D1D408DD
:1007D00000EB8404A346D4F8209054074FEAD46A6F
:1007E0000EFA0AF629EA06090E6906FA0AF646EA38
:1007F0000906CBF8206004680E7924EA0C0406F0A0
:100800000306BE40264306604C68E4006FD53B4CAF
:10081000266846F480462660246822F0030604F425
:1008200080440094364C3444A446D4F808489607D3
:10083000360F0EFA06F7BC43324FB84201D10027FB
:100840002EE0314FB84201D1012729E02F4FB842A5
:1008500002D1022724E04AE02D4FB84201D10327FC
:100860001EE02C4FB84201D1042719E02A4FB842AC
:1008700001D1052714E0294FB84201D106270FE026
:10088000274FB84201D107270AE0264FB84201D1CD
:10089000082705E0244FB84201D1092700E00A27C4
:1008A000B7402743CCF80878204E34684F689C4303
:1008B000FF0300D51C4334601C4E361D34684F685E
:1008C0009C43BF0300D51C433460184E083634687F
:1008D0004F689C43FF0200D51C433460134E0C3616
:1008E00034684F689C43BF0200D51C433460521CDF
:1008F000102AFFF43BAFBDE8F88F000044380240F7
:1009000000300140000002400004024000080240A4
:10091000000C024000100240001402400018024087
:10092000001C02400020024000240240003C014024
:100930000148806870470000040000200248816878
:100940000278114481607047040000200B4810B504
:10095000016841F400710160016841F48061016047
:10096000016841F480710160032000F06FF80020FD
:1009700000F006F800F024F8002010BD003C024012
:1009800070B50D4D04464FF47A712878B1FBF0F044
:100990000A490968B1FBF0F000F03CFB48B9102CA3
:1009A00007D200222146501E00F030F800206C6073
:1009B00070BD012070BD0000040000201000002068
:1009C0000A4808B5016841F480410160006800F4FC
:1009D000804000900548001F016841F0805101608F
:1009E000006800F08050009008BD000044380240CC
:1009F000002809DB00F01F0201219140400980001E
:100A000000F1E020C0F8001170470000F0B40E4B78
:100A10001B680C46C3F30223C3F10705042D00D95C
:100A20000425191D072901D2002300E0DB1E012641
:100A300006FA05F1491E214099409E40761E164057
:100A40003143F0BC01F099B80CED00E0064900F02C
:100A5000070208684FF6FF03184040EA0220034AE5
:100A600010430860704700000CED00E00000FA053C
:100A70002DE9F8431748016841F080510160006892
:100A8000154F00F08050012600903E64FFF750FFA4
:100A900005464FF47A78114C05E000BFFFF748FF98
:100AA000401B40450DD86068C003F7D57E64FFF752
:100AB0003FFF0546464607E0FFF73AFF401BB042BE
:100AC00002D90320BDE8F88360688003F4D50020D4
:100AD000F8E700004038024000000E42007000407D
:100AE0002DE9F0470E46050065D0DFF81481D8F8EF
:100AF0000000F7B200F00F00B04207D288F8007093
:100B0000D8F8000000F00F00B04254D128683D4CE6
:100B1000810712D5400703D5206840F4E0502060DB
:100B20002878000703D5206840F4604020602068E2
:100B3000A96820F0F000084320602878C0072DD075
:100B4000304968680839012812D0022813D00328D8
:100B500011D00968890700292DDA216821F00301E5
:100B600001432160FFF7E4FE814641F2883A0EE03E
:100B700009688903EFE709688901ECE7FFF7D8FE08
:100B8000A0EB0901514502D90320BDE8F087206898
:100B9000696800F00C00B0EB810FEFD1D8F80010BD
:100BA000404601F00F01B14207D90770006800F01C
:100BB0000F00B04201D00120E7E72878400705D5B3
:100BC0002068E96820F4E050084320602878000796
:100BD00006D52068296920F4604040EAC100206001
:100BE00000F038F82168084AC1F30311515CC8408D
:100BF0000649086006480068FFF7C2FE0020C4E707
:100C0000003C024008380240661C0008100000202A
:100C1000080000200448054900680968044AC1F337
:100C20008221515CC8407047100000200838024003
:100C3000761C00080448054900680968044AC1F3A5
:100C40004231515CC8407047100000200838024013
:100C5000761C0008154810B5006810F00C02144806
:100C600013D01449042A0FD0082A0ED10F4C241F88
:100C70002268236802F03F025B0207D52068C0F3B8
:100C80008810A0FB010106E0084610BD2168C1F3F1
:100C90008811A1FB00010023FFF7A8FA2168C1F326
:100CA0000141491C4900B0FBF1F010BD0838024079
:100CB0000024F40040787D012DE9F84F04006ED047
:100CC0002078DFF83C93C007A9F104054AD009F168
:100CD00004000168C1F38101012908D00068C0F354
:100CE000810002280AD1D9F80000400206D5286800
:100CF000800337D560680028E1D033E06068B0F544
:100D0000803F10D0B0F5A02F286810D020F480309C
:100D10002860286820F4802028606068A8B1FFF768
:100D200007FE06460DE0286840F48030F4E740F402
:100D300080202860F7E700BFFFF7FAFD801B6428DA
:100D400073D828688003F7D50CE0FFF7F1FD06465D
:100D500005E000BFFFF7ECFD801B6428F0D8286891
:100D60008003F7D42078DFF89C8280074FF0000AD8
:100D70003ED5A348001D016811F00C0F08D0006893
:100D8000C0F3810002280BD1D9F80000400207D43B
:100D90002868800716D5E068012800D112E02BE111
:100DA000E068B8B10120C8F80000FFF7C1FD0646B1
:100DB00005E000BFFFF7BCFD801B0228C0D82868F3
:100DC0008007F7D52868216920F0F80040EAC100C3
:100DD00028600DE0C8F800A0FFF7AAFD064604E071
:100DE000FFF7A6FD801B02281FD828688007F7D4CC
:100DF0002078000722D5824E83486169703671B130
:100E000001210160FFF794FD074604E0FFF790FD24
:100E1000C01B022809D830688007F7D50EE0C0F85B
:100E200000A0FFF785FD074605E082E0FFF780FDA3
:100E3000C01B02287DD830688007F7D4207840078F
:100E400068D5DFF8BCB100270BF13C0BDBF80000E4
:100E5000C0000BD4DBF8001041F08051CBF800103B
:100E6000DBF80000012700F080500090674E3068EA
:100E7000C00510D4306840F480703060FFF758FD32
:100E8000009005E0FFF754FD0099401A022850D861
:100E90003068C005F6D55A4EA0686C3601280FD0D0
:100EA0000528306810D020F001003060306820F054
:100EB00004003060A068B8B1FFF73AFD00900FE081
:100EC000306840F00100F4E740F004003060F7E7DC
:100ED000FFF72EFD0099411A41F28830814266D811
:100EE00030688007F4D50EE0FFF722FD009007E0A0
:100EF000FFF71EFD0099411A41F28830814256D811
:100F000030688007F4D42FB1DBF8001021F0805155
:100F1000CBF80010A069C8B33949091D0968C1F3AD
:100F2000810102294AD00228504607D0C8F8600043
:100F300000E03CE0FFF7FCFC04463BE04746C8F815
:100F40006000FFF7F5FC064605E000BFFFF7F0FC88
:100F5000801B02282BD828688001F7D4D4E9070128
:100F60000843A16A2A4A490802EB0141626A41EA40
:100F70008211084394F82C1040EA0161C9F800106E
:100F800001203866FFF7D4FC044606E036E000BFD7
:100F9000FFF7CEFC001B022809D828688001F7D58E
:100FA0002CE000BFFFF7C4FC001B022802D903207D
:100FB000BDE8F88F28688001F4D41FE00128F7D03D
:100FC000D9F80000E26900F48001914214D1226A4C
:100FD00000F03F0191420FD147F6C071626A0140B3
:100FE000914209D1A26A00F44031914204D1E16AF0
:100FF00000F07060884201D00120D9E70020D7E7D7
:101000000438024000004742800E47420070004012
:101010000000FFFF10B5401EB0F1807F01D301201A
:1010200010BD4FF0E02460610F21601700F0A5FDB6
:101030000020A06107202061002010BD7047000043
:1010400070B5026804461068D168536910F00F0F3C
:1010500053D003F0010501F490762E435FD0C20710
:1010600005D0CA0503D5E26B42F00102E2634207F4
:1010700005D5DA0703D0E26B42F00202E263820791
:1010800005D5DA0703D0E26B42F00402E2630207FF
:1010900007D501F020022A4303D0E26B42F0080298
:1010A000E263E26B002A34D0800604D5880602D5BC
:1010B000204600F0F5FB20684069E16BC0F380102A
:1010C00001F008010143204624D000F0DBFB20683A
:1010D000416949061AD5416921F040014161606BBF
:1010E000A0B11B490165606BFFF76AFA002810D0B8
:1010F000606B016DBDE87040084783060FD58B0615
:101100000DD52046BDE8704000F0CABB2046FFF771
:1011100095FF70BDFFF792FF0020E06370BD0306EE
:1011200006D50B0604D52046BDE8704000F098BCFB
:101130004006F3D54806F1D5D168204621F040019C
:10114000D160202184F8391000F039F970BD000019
:101150007518000870B5040004D094F83900002513
:1011600010B106E0012070BD84F83850204600F030
:1011700023F8242084F839002068C16821F4005144
:10118000C160204600F0D8FB2068016921F490413D
:1011900001612068416921F02A0141612068C1682C
:1011A00041F40051C160E563202084F8390084F8DF
:1011B0003A00002070BD000010B586B0044614212E
:1011C0006846FFF75DF81B49206888422FD11A480E
:1011D0000021026842F010020260006800F0100076
:1011E000059015481438026842F001020260006858
:1011F00000F0010005904FF4C06000900220CDE99E
:101200000101032003900720049069460B48FFF773
:10121000A5FA002211462520FFF7F8FB2520FFF74D
:10122000E7FB07480068C16841F02001C16006B0D3
:1012300010BD000000100140443802400000024090
:10124000180000202DE9F843044690F83A0099462A
:1012500016460D46202852D1BDB1B6B194F83800DB
:1012600001284CD0012084F838000027E7632220B1
:1012700084F83A002C34FFF75BFB24F8026B8046BD
:1012800024F80A6B04F8387931E00120BDE8F883CE
:10129000E08D401EE085A0684346B0F5805F4FF0CA
:1012A00000024FF020012046CDF8009004D000F05D
:1012B00008FC98B10320E9E700F003FC0028F9D10D
:1012C000206900282068406803D0C1B225F8011BBE
:1012D0000DE0C0F3080125F8021B08E02069002892
:1012E0002068406801D000F07F0005F8010BE08D18
:1012F0000028CDD1202084F83A000020C6E7022043
:10130000C4E770472DE9F843044690F839001F46BA
:1013100016460D46202850D1B5B1AEB194F838002C
:1013200001284AD0012084F838004FF00008C4F8A2
:101330003C80212084F83900FFF7FAFAA684814620
:10134000E68484F8388026E00120BDE8F883E08C4C
:10135000401EE084A0684B46B0F5805F4FF000026D
:101360004FF080012046009703D000F0AAFBE8B9B7
:101370000DE000F0A6FBC8B928882168C0F308007A
:101380004860206908B16D1C05E0AD1C03E02168D0
:1013900015F8010B4860E08C0028D8D14B4600229C
:1013A00040212046009700F08CFB08B10320CCE7D9
:1013B000202084F839000020C7E70220C5E77047E5
:1013C000FEE70000F0B597B0282215A10DA8FEF7A2
:1013D0003EFF34221CA16846FEF739FF4FF47A76AF
:1013E000334625220DA92548FFF78CFF244C254DB7
:1013F0000027206858B12760287830280BD0312882
:101400000CD03346322269461C48FFF77BFF0A2086
:10141000FFF7E8F8EDE7002017B0F0BD0120FBE78B
:10142000C7EBCAE4C8EBC3FCC1EE0D0A303AB8FC06
:10143000D0C2B9CCBCFE0D0A312EC6F4B6AFB3CCC7
:10144000D0F20D0A00000000CAE4C8EBC3FCC1EEF4
:10145000D3D0CEF32CC7EBD6D8D0C2CAE4C8EB0D9C
:101460000A303AB8FCD0C2B9CCBCFE0D0A312EC647
:10147000F4B6AFB3CCD0F20D0A0000001800002083
:1014800000000020001000201FB5124D0826124F4A
:101490004FF47A78FFF796FF10B1FEF731FFF9E7C6
:1014A0000E4C00F05DF802460FF2340C9CE80B1075
:1014B0008DE80B106868B6EB106FEBD1214638460B
:1014C00000F090FB4346102269460948FFF71AFFD7
:1014D000E0E70000001000200000010800100020DC
:1014E000B9CCBCFEB8FCD0C2CDEAB3C9210D0A000C
:1014F00018000020094808B5016841F0800101602A
:10150000016801F080010091016841F00101016072
:10151000006800F00100009008BD00003038024073
:101520000C4810B50A4901604FF4E13141600021D7
:1015300081600C22C160C0E904128161C161FFF7C2
:1015400009FE002803D0BDE81040FEF7D7BE10BD4D
:101550000010014018000020FEE7704770470000AF
:1015600070B515A38CB00FCB07AD002485E80F0034
:101570001C2215A16846FEF76AFE4FF47A763346C0
:10158000192269461748FFF7BDFE174D286870B14C
:1015900084420BD104460020286033460F2207A95D
:1015A0001048FFF7AFFE0CB0204670BD84B20A2091
:1015B000FFF718F8EAE70000D3C3BBA7BDD3CAD52D
:1015C000CDEAB3C90D0A0000C7EBCAB9D3C3B4AEA4
:1015D000BFDAB7A2CBCD2E62696ECEC4BCFE0D0AB7
:1015E0000000000018000020000000203A49884256
:1015F00001D2002070473949884201D2012070474A
:101600003749884201D2022070473649884201D2C8
:10161000032070473449884201D20420704733497F
:10162000884201D2052070473149884201D2062004
:1016300070473049884201D2072070472E498842BE
:1016400001D2082070472D49884201D209207047F5
:101650002B49884201D20A207047B0F1016F01D2B4
:101660000B2070472749884201D20C207047264939
:10167000884201D20D2070472449884201D20E20B1
:1016800070472349884201D20F2070472149884280
:1016900001D2102070472049884201D211207047A2
:1016A0001E49884201D2122070471D49884201D24A
:1016B000132070471B49884201D2142070471A49F1
:1016C000884201D2152070471849884201D216205D
:1016D0007047172070470000004000080080000895
:1016E00000C0000800000108000002080000040813
:1016F000000006080000080800000A0800000C08A6
:1017000000000E08004010080080100800C01008FB
:10171000000011080000120800001408000016085C
:101720000000180800001A0800001C0800001E082D
:101730002DE9F04F87B04FF0000817460E460446DB
:10174000CDF81480B0F1006F38D3A00736D1FEF782
:10175000EFFF1C48254604EB87074CF250398442C2
:1017600015D24FF0010A4FF0020BBD420FD228688C
:10177000401C11D02846CDF80080FFF737FF02AAA1
:1017800005A982E8010C6846FEF73CFF28B14846EF
:10179000FEF7EEFE70B10FE02D1D4846FEF7E8FEA5
:1017A000E3E70023214602203268FEF783FF18B9E1
:1017B000241D361DBC42F4D3FEF772FF07B0BDE80E
:1017C000F08F00000000FF1F7047FFF7B7B8000060
:1017D00070B592B030216846FEF752FD14210CA876
:1017E000FEF74EFD1A480025016841F08051016066
:1017F000006800F0805011901648016841F44041A3
:1018000001600068022400F4404011900120009023
:10181000000401908001CDE906400F260896D820EB
:10182000CDE9090404200B906846FFF745FAFFF75D
:101830001FF94FF4A050CDE90E50E002CDE90C6441
:10184000109005210CA8FFF74BF912B070BD0000F5
:1018500040380240007000400548016841F47001C2
:10186000016003494FF00060803908607047000054
:1018700088ED00E010B5806B0021C185C184FFF7C1
:10188000DDFB10BD0168CA6822F49072CA6001686D
:101890004A6922F001024A61202180F83A1070471B
:1018A00010B590F83A10222901D0022010BD8168AD
:1018B000B1F5805F11D00169002901681FD0496826
:1018C00001F07F03816A4A1C82620B70C18D491E40
:1018D0000904090CC18518D02BE00269816A002A2D
:1018E0000268526805D0D2B20A80816A491C8162BE
:1018F000ECE7C2F308020A80816A891CF7E74A68AC
:10190000816A4B1C83620A70E0E70168CA6822F0B2
:101910002002CA600168CA6822F48072CA60016845
:101920004A6922F001024A61202180F83A10FFF74B
:10193000E8FC002010BD00002DE9F04104460068DD
:101940000169E26821F44051114301612169A068F5
:10195000E26908436169114308432168CA6849F292
:101960000C639A430243CA6020684169A26921F46A
:10197000407111434161E069192764253226B0F5B1
:10198000004F354A354920684FF0000806D088429C
:1019900001D0904236D1FFF74DF935E0884201D0B1
:1019A000904202D1FFF746F901E0FFF733F9616891
:1019B0004A18A0FB070148EB0803FEF717FC014695
:1019C000B0FBF5F00201B1FBF5F06FF018035843DE
:1019D00001EB800006EBC000B0FBF5F000F0F80072
:1019E00002EB4002B1FBF5F0584301EB800006EB3F
:1019F000C000B0FBF5F000F00700216810448860DB
:101A0000BDE8F081FFF706F961688B0F8A00A0FB43
:101A10000701FEF7EBFB0146B0FBF5F06FF0180293
:101A2000504301EB800006EB0010B0FBF5F000F036
:101A3000F002B1FBF5F002EB0012B1FBF5F06FF034
:101A40001803584301EB800006EB0010B0FBF5F0E3
:101A500000F00F00D1E70000001401400010014029
:101A600090F83910212901D0022070478168B1F522
:101A7000805F016A0BD04A1C0262026809785160DB
:101A8000C18C491E0904090CC1840ED017E00988D5
:101A90000268C1F30801516001690029016A02D09E
:101AA000491C0162ECE7891CFBE70168CA6822F067
:101AB0008002CA600068C16841F04001C160002036
:101AC00070472DE9F041984617460E460446069D9C
:101AD0001DE0681C1BD02DB1FEF72AFFA0EB08000B
:101AE000A84214D92068C16821F4D071C16020686F
:101AF000416921F001014161202084F8390084F816
:101B00003A00002084F838000320BDE8F081206806
:101B1000006836EA000004D00020B842D9D0002086
:101B2000F3E70120F9E7000010B5044800F008F8D9
:101B3000BDE810400148FFF783BA000018000020FC
:101B400008B501680968C943890610D44FF47A734F
:101B500001226946FFF776FB05490868B0F5343F76
:101B600005D2044B9DF800201A54401C086008BDA3
:101B70000000002000100020FEE70907090E0028E1
:101B800004DB00F1E02080F80014704700F00F0043
:101B900000F1E02080F8141D704702E008C8121F11
:101BA00008C1002AFAD170477047002001E001C146
:101BB000121F002AFBD1704710B50168074A114077
:101BC000B1F1005F09D14168054C21600068FEF762
:101BD000F7FA2068BDE81040004710BD0000F02F64
:101BE000140000202DE9F0470025904606460C46DB
:101BF0002F464FF40079DFF854A019E0E078A1787F
:101C0000000640EA014061784A4640EA012114F8A2
:101C1000040B08434AF825006D1CADB2954206D16D
:101C200000250A493046FFF783FD06F500663F1D93
:101C30004745E3D3002D06D02A463046BDE8F0479D
:101C40000249FFF775BDBDE8F0870000780000206D
:101C5000FEF77CFEFFF7BCFDFFF74CFCFFF760FCD6
:101C6000FFF712FCFCE7000000000000000001028A
:101C70000304060708090000000001020304000035
:101C8000A01C000800000020180000009A1B00089B
:101C9000B81C000818000020E8DF0200AA1B00089A
:101CA0000000000001000000100000000000000023
:081CB0000024F4000000000014
:04000005080001AD41
:00000001FF
