:020000040800F2
:10000000280E0020C9010008C32500083D23000870
:10001000C1250008A70300088D3600080000000075
:10002000000000000000000000000000DD320008B9
:100030003D04000800000000C5250008DF3200086C
:10004000E3010008E3010008E3010008E301000800
:10005000E3010008E3010008E3010008E3010008F0
:10006000E3010008E3010008E3010008E3010008E0
:10007000E3010008E3010008E3010008E3010008D0
:10008000E3010008E3010008E3010008E3010008C0
:10009000E3010008E3010008E3010008E3010008B0
:1000A000E3010008E3010008E3010008E3010008A0
:1000B000E3010008E3010008E3010008E301000890
:1000C000E3010008E3010008E3010008E301000880
:1000D000E30100083D360008E3010008E3010008E1
:1000E000E3010008E3010008E3010008E301000860
:1000F000E3010008E3010008E3010008E301000850
:10010000E3010008C9260008E3010008E301000834
:10011000E3010008E3010008E3010008E30100082F
:10012000E3010008E3010008E3010008A903000857
:10013000E3010008E3010008E3010008E30100080F
:10014000E3010008E3010008E3010008E3010008FF
:10015000E3010008B5030008E3010008E30100081B
:10016000E3010008E3010008E3010008E3010008DF
:10017000E3010008E3010008E301000800000000BB
:10018000E3010008E3010008E3010008E3010008BF
:10019000E3010008E3010008E3010008E3010008AF
:1001A000E3010008E3010008E3010008DFF80CD0D8
:1001B00000F090F80048004765370008280E00203E
:1001C00080F30888704700000648804706480047CB
:1001D000FEE7FEE7FEE7FEE7FEE7FEE7FEE7FEE7F7
:1001E000FEE7FEE76D330008AD0100082DE9F05F82
:1001F0000546002092469B46884606468146402496
:100200001BE0284641464746224600F053F8534635
:100210005A46C01A914110D311461846224600F0A2
:100220003AF82D1A67EB01084F46224601200021BB
:1002300000F031F817EB00094E41201EA4F1010433
:10024000DFDC484631462A464346BDE8F09F40EA97
:1002500001039B0703D009E008C9121F08C0042A44
:10026000FAD203E011F8013B00F8013B521EF9D22B
:100270007047D2B201E000F8012B491EFBD2704753
:100280000022F6E710B513460A4604461946FFF762
:10029000F0FF204610BD202A04DB203A00FA02F1CC
:1002A000002070479140C2F1200320FA03F3194364
:1002B00090407047202A04DB203A21FA02F0002106
:1002C000704721FA02F3D040C2F120029140084366
:1002D00019467047064C074D06E0E06840F0010300
:1002E00094E8070098471034AC42F6D3FFF762FF5A
:1002F000C0370008E0370008704700000146014899
:1003000001F0D2B92000002010B5044801F0DEF958
:10031000042801D0012010BD002010BD20000020C5
:1003200010B500F015F8012801D0012010BD0748D4
:1003300001F0E6FA040006D14FF40061034801F031
:100340006BF800B10124204610BD00002000002001
:1003500008B501208DF800009DF8000008BD0000E0
:1003600038B50024009313460A460146034801F0BD
:10037000AFFB00B10124204638BD00002000002062
:100380007047000038B50024009313460A46014622
:10039000034801F0A1FC00B10124204638BD000053
:1003A000200000207047FEE7014800F0DFB90000A0
:1003B000A4000020014800F0D9B900000401002089
:1003C00001681823CAB2103AB2FBF3F2054B6FF37F
:1003D0000901032A9B5CC36500D9091D8165084694
:1003E00070470000A037000810B5014600208B6957
:1003F0008A6A4FF0C07453B1B3F5005F15D072B183
:10040000012A0CD0022A0AD0032A09D104E01AB129
:10041000012A06D0022A03D1C96AC90100D50120E8
:1004200010BDC96AA142FAD010BD002AF7D0012A36
:10043000F2D0022AF3D0032AF3D010BD70477047E0
:1004400010B511A38AB00FCB06AC84E80F001822B8
:1004500011A16846FFF7FBFE154C606808214FF4B8
:100460007A73B1EB106F09D1102206A9114801F07F
:1004700007FF204603F02AF90AB010BD152269468D
:100480000C4801F0FDFEF7E7BFAACABCD6B4D0D035
:10049000B3CCD0F2210D0A00B3CCD0F2D3D0CEF33E
:1004A0002CCEDEB7A8D6B4D0D0210D0A00000000B3
:1004B00000000108BC010020002200F001B800008B
:1004C00030B50E4B054601205C7A002C14D1587AC9
:1004D0001C54587A03EB800045605D7A03F10800F4
:1004E0002A54587A421C5A72303008703A204870A8
:1004F0002F208870CC70002030BD0000FC0100204F
:10050000002229B101291DD002291ED04FF44072CA
:100510000B2800D9001D0E490B6823F440730B60B3
:100520000B6813430B600A6822F0F8020A600A683D
:10053000022303EBC00002430A60086840F48030E5
:10054000086070474FF48072E2E74FF40072DFE713
:10055000103C02401348016889050FD5016821F459
:1005600000710160016841F400610160016821F4DB
:1005700000610160016841F4007101600168490592
:100580000FD5016821F480610160016841F4805158
:100590000160016821F480510160016841F48061CB
:1005A00001607047003C02400E4A136823F4407318
:1005B000136003290DD0012911680FD041F40041C7
:1005C000116011684FF4803343EA00200143116049
:1005D0007047116848F204031943F1E741F0040140
:1005E000EEE70000103C0240064A136823F4407313
:1005F000136013681360136843F001031360017004
:1006000070470000103C0240094910B50C6824F402
:1006100040740C600C6844F440740C600C6844F046
:1006200001040C600260BFF36F8F436010BD0000D7
:10063000103C0240074A136823F4407313601368A8
:1006400043F480731360136843F001031360018067
:1006500070470000103C0240074A136823F44073BF
:100660001360136843F400731360136843F00103CD
:100670001360016070470000103C02401C4908688C
:10068000C2061C4805D5C26942F01002C2611022A0
:100690000A600A68920605D5C26942F00802C26182
:1006A00020220A600A68520605D5C26942F0040297
:1006B000C26140220A600A68120605D5C26942F08A
:1006C0000202C26180220A600A68D20506D5C269A8
:1006D00042F00102C2614FF480720A600A68920718
:1006E00005D5C26942F02002C2610220086070474D
:1006F0000C3C0240080A002070B511490446002055
:10070000C86100F013FB06460E4D09E0601C07D0DF
:1007100024B100F00BFB801BA04201D9032070BD67
:100720002868C003F2D42868C00701D001202860DF
:10073000286810F4F970F2D0FFF7A0FF012070BD17
:10074000080A00200C3C024090F83510022903D022
:100750008021416501207047052180F8351000682F
:10076000016821F001010160002070472DE9F84384
:1007700004464FF00009CDF8009063484FF416513D
:10078000A56D0068B0FBF1F72E6894F85C100820A6
:1007900000FA01F131420FD021680A6852070BD5E7
:1007A0000A6822F004020A6094F85C108840A8608D
:1007B000606D40F00100606594F85C104FF0010836
:1007C00008FA01F0304208D021684969090604D5C9
:1007D000A860606D40F00200606594F85C10042031
:1007E0008840304208D021680968890704D5A8608C
:1007F000606D40F00400606594F85C101020884043
:10080000304218D021680968090714D5A86020680B
:100810000168490304D50068000308D5A16C07E00E
:100820000168C90503D4016821F008010160216C49
:1008300009B12046884794F85C1020208840304257
:1008400031D021680968C9062DD5A86094F8350013
:1008500005282068016806D0490347D500680003D1
:100860001DD4616C1CE021F0160101602068416913
:1008700021F080014161206C08B9A06C20B1206892
:10088000016821F00801016094F85C103F20884065
:10089000A86084F8349084F83580216D1FE0E16B06
:1008A00009B120468847606D00282BD0606DC007D5
:1008B00014D0052084F835002068016821F001017A
:1008C00001600098401C0090B84203D8206800687E
:1008D000C007F6D184F8349084F83580E16C0029A3
:1008E00010D001B02046BDE8F04308470168C905B3
:1008F000D5D4016821F01001016084F8349084F8A7
:100900003580CCE7BDE8F8831C0000202DE9F041DC
:10091000044600F00BFA06465CB1002584F834501A
:10092000022084F835002068016821F0010101608F
:100930000DE00120BDE8F08100F0F8F9801B0528EA
:1009400005D920206065032084F83500F2E720688F
:100950000068C007F0D12268116820480140D4E93E
:1009600001031843D4E9033633431843636918433A
:10097000A3691843E3691843236A18430843616A6B
:10098000042903D1D4E90B131943084310602068EC
:100990004069666A20F0070130460E4301270428AB
:1009A0000CD1A06A0643E06A40B12046FFF71CFD67
:1009B00020B14020606584F83570BAE72068466150
:1009C0002046FFF7FDFC94F85C203F2191408160B8
:1009D000656584F835700020ACE700003F8010F0BA
:1009E00010B50021054C05E0224602235B1C934212
:1009F000FCDB491C8142F7D310BD0000409002008F
:100A00002DE9F047044623480F46017E01290AD00C
:100A10000121804601764CF250394846FFF76CFEC2
:100A2000020003D030E00220BDE8F0874FF0FF3035
:100A300038602068184D012801D0A6681DE0207C90
:100A40006168FFF7B1FD4846FFF756FE0246286889
:100A500048F204018843286014E0217C3046FFF707
:100A60004FFD4846FFF748FE0200286820F0FA00D4
:100A7000286001D03E6005E0761CD4E902100844ED
:100A8000B042EAD8FFF766FD002188F8181010463A
:100A9000CAE70000080A0020103C02400348016831
:100AA00041F000410160002070470000103C02400E
:100AB0002DE9F0471B4E05461446307E1F468946F9
:100AC000012808D0012030764CF250384046FFF71C
:100AD00013FE18B114E00220BDE8F0879DB1012D8E
:100AE00016D0022D19D022463B464846FFF78CFD12
:100AF0004046FFF701FE0C490A6822F001020A6035
:100B000000213176E8E7E1B24846FFF76DFDEFE7F7
:100B1000A1B24846FFF78EFDEAE721464846FFF7B7
:100B20009BFDE5E7080A0020103C02400749002031
:100B30000A68002A09DA054A054B0C3A1360054B8E
:100B400013600968002900DA01207047103C024058
:100B500023016745AB89EFCD2DE9F84F00224FF017
:100B6000010803254FF00F0E0B6808FA02F423402A
:100B7000A3426ED14E68012E05D0022E03D0112E55
:100B800001D0122E12D186684FEA420C05FA0CF7FA
:100B9000BE43CF6807FA0CF7374387604668A64321
:100BA0000C79C4F30014944034434460C668570081
:100BB00005FA07FC8C6826EA0C06BC403443C46086
:100BC0004C68022C01D0122C13D1D40800EB840401
:100BD000A346D4F8209054074FEAD46A0EFA0AF6D6
:100BE00029EA06090E6906FA0AF646EA0906CBF86A
:100BF000206004680E7924EA0C0406F00306BE4067
:100C0000264306604C68E4006FD53B4C266846F4EA
:100C100080462660246822F0030604F48044009491
:100C2000364C3444A446D4F808489607360F0EFADA
:100C300006F7BC43324FB84201D100272EE0314FB6
:100C4000B84201D1012729E02F4FB84202D1022733
:100C500024E04AE02D4FB84201D103271EE02C4F7B
:100C6000B84201D1042719E02A4FB84201D1052723
:100C700014E0294FB84201D106270FE0274FB842B0
:100C800001D107270AE0264FB84201D1082705E025
:100C9000244FB84201D1092700E00A27B740274373
:100CA000CCF80878204E34684F689C43FF0300D589
:100CB0001C4334601C4E361D34684F689C43BF0390
:100CC00000D51C433460184E083634684F689C4386
:100CD000FF0200D51C433460134E0C3634684F6855
:100CE0009C43BF0200D51C433460521C102AFFF401
:100CF0003BAFBDE8F88F00004438024000300140AF
:100D0000000002400004024000080240000C0240C3
:100D1000001002400014024000180240001C024073
:100D20000020024000240240003C0140014880684D
:100D300070470000100000200248816802781144CA
:100D400081607047100000200B4810B5016841F425
:100D500000710160016841F480610160016841F443
:100D600080710160032000F06FF8002000F006F8A9
:100D700000F024F8002010BD003C024070B50D4D7D
:100D800004464FF47A712878B1FBF0F00A490968FB
:100D9000B1FBF0F001F0FCF848B9102C07D20022AA
:100DA0002146501E00F030F800206C6070BD01201C
:100DB00070BD0000100000201C0000200A4808B58B
:100DC000016841F480410160006800F480400090B7
:100DD0000548001F016841F080510160006800F083
:100DE0008050009008BD000044380240002809DB14
:100DF00000F01F02012191404009800000F1E02035
:100E0000C0F8001170470000F0B40E4B1B680C4690
:100E1000C3F30223C3F10705042D00D90425191DCE
:100E2000072901D2002300E0DB1E012606FA05F1A6
:100E3000491E214099409E40761E16403143F0BC29
:100E400002F025BC0CED00E0064900F0070208683E
:100E50004FF6FF03184040EA0220034A104308609F
:100E6000704700000CED00E00000FA052DE9F843A2
:100E70001748016841F0805101600068154F00F08B
:100E80008050012600903E64FFF750FF05464FF466
:100E90007A78114C05E000BFFFF748FF401B404542
:100EA0000DD86068C003F7D57E64FFF73FFF0546A5
:100EB000464607E0FFF73AFF401BB04202D9032045
:100EC000BDE8F88360688003F4D50020F8E70000EF
:100ED0004038024000000E42007000402DE9F0470B
:100EE0000E46050065D0DFF81481D8F80000F7B28F
:100EF00000F00F00B04207D288F80070D8F8000068
:100F000000F00F00B04254D128683D4C810712D543
:100F1000400703D5206840F4E0502060287800079F
:100F200003D5206840F4604020602068A96820F064
:100F3000F000084320602878C0072DD03049686849
:100F40000839012812D0022813D0032811D00968CB
:100F5000890700292DDA216821F00301014321606E
:100F6000FFF7E4FE814641F2883A0EE00968890302
:100F7000EFE709688901ECE7FFF7D8FEA0EB09016C
:100F8000514502D90320BDE8F0872068696800F068
:100F90000C00B0EB810FEFD1D8F80010404601F003
:100FA0000F01B14207D90770006800F00F00B0428E
:100FB00001D00120E7E72878400705D52068E968D7
:100FC00020F4E050084320602878000706D5206808
:100FD000296920F4604040EAC100206000F038F840
:100FE0002168084AC1F30311515CC84006490860F2
:100FF00006480068FFF7C2FE0020C4E7003C02403C
:1010000008380240A83700081C0000201400002007
:101010000448054900680968044AC1F38221515C0B
:10102000C84070471C00002008380240B83700084C
:101030000448054900680968044AC1F34231515C1B
:10104000C84070471C00002008380240B83700082C
:10105000154810B5006810F00C02144813D014495C
:10106000042A0FD0082A0ED10F4C241F22682368AF
:1010700002F03F025B0207D52068C0F38810A0FB96
:10108000010106E0084610BD2168C1F38811A1FBEB
:1010900000010023FFF7AAF82168C1F30141491CB0
:1010A0004900B0FBF1F010BD083802400024F40004
:1010B00040787D012DE9F84F04006ED02078DFF8EC
:1010C0003C93C007A9F104054AD009F10400016866
:1010D000C1F38101012908D00068C0F38100022812
:1010E0000AD1D9F80000400206D52868800337D518
:1010F00060680028E1D033E06068B0F5803F10D030
:10110000B0F5A02F286810D020F48030286028681F
:1011100020F4802028606068A8B1FFF707FE06462B
:101120000DE0286840F48030F4E740F48020286027
:10113000F7E700BFFFF7FAFD801B642873D8286823
:101140008003F7D50CE0FFF7F1FD064605E000BF90
:10115000FFF7ECFD801B6428F0D828688003F7D4E3
:101160002078DFF89C8280074FF0000A3ED5A34824
:10117000001D016811F00C0F08D00068C0F3810059
:1011800002280BD1D9F80000400207D42868800754
:1011900016D5E068012800D112E02BE1E068B8B173
:1011A0000120C8F80000FFF7C1FD064605E000BFBA
:1011B000FFF7BCFD801B0228C0D828688007F7D540
:1011C0002868216920F0F80040EAC10028600DE09D
:1011D000C8F800A0FFF7AAFD064604E0FFF7A6FD49
:1011E000801B02281FD828688007F7D420780007C2
:1011F00022D5824E83486169703671B10121016048
:10120000FFF794FD074604E0FFF790FDC01B02289E
:1012100009D830688007F7D50EE0C0F800A0FFF7C6
:1012200085FD074605E082E0FFF780FDC01B022830
:101230007DD830688007F7D42078400768D5DFF87C
:10124000BCB100270BF13C0BDBF80000C0000BD455
:10125000DBF8001041F08051CBF80010DBF8000003
:10126000012700F080500090674E3068C00510D410
:10127000306840F480703060FFF758FD009005E062
:10128000FFF754FD0099401A022850D83068C00575
:10129000F6D55A4EA0686C3601280FD00528306864
:1012A00010D020F001003060306820F00400306081
:1012B000A068B8B1FFF73AFD00900FE0306840F049
:1012C0000100F4E740F004003060F7E7FFF72EFD7F
:1012D0000099411A41F28830814266D8306880070F
:1012E000F4D50EE0FFF722FD009007E0FFF71EFDAA
:1012F0000099411A41F28830814256D830688007FF
:10130000F4D42FB1DBF8001021F08051CBF800109D
:10131000A069C8B33949091D0968C1F381010229CF
:101320004AD00228504607D0C8F8600000E03CE0F0
:10133000FFF7FCFC04463BE04746C8F86000FFF7B7
:10134000F5FC064605E000BFFFF7F0FC801B022815
:101350002BD828688001F7D4D4E907010843A16A93
:101360002A4A490802EB0141626A41EA82110843B4
:1013700094F82C1040EA0161C9F800100120386689
:10138000FFF7D4FC044606E036E000BFFFF7CEFCD2
:10139000001B022809D828688001F7D52CE000BF7F
:1013A000FFF7C4FC001B022802D90320BDE8F88F18
:1013B00028688001F4D41FE00128F7D0D9F8000094
:1013C000E26900F48001914214D1226A00F03F01E9
:1013D00091420FD147F6C071626A0140914209D132
:1013E000A26A00F44031914204D1E16A00F07060D9
:1013F000884201D00120D9E70020D7E70438024015
:1014000000004742800E4742007000400000FFFF8E
:1014100010B5FEF771FF10BD2DE9FE430446032011
:101420000F4684F83400606C03285AD0B7F5805F0B
:1014300057D04FF4006600254FF08068B7421CD1AA
:10144000009501950021206801F03AF9800121D42E
:101450006946204601F0B6FC98BB0198400332D59E
:10146000B4F850000104206801F066F948BB02217D
:10147000206822E0A06B284327E01FB1A06B40F05A
:10148000006022E0009501950021206801F018F924
:10149000800101D53546EDE76946204601F092FC12
:1014A00078B90198C0030ED5B4F850000104206843
:1014B00001F042F928B90021206801F08AF90028DA
:1014C000D8D00546D6E74546D4E7A063A06B0125F2
:1014D00058B121680C48886384F834500120BDE875
:1014E000FE83A06B40F08050EFE7211DD4E9050694
:1014F0000EC90097CDE90106206801F0EBF884F8E9
:1015000034500020EBE70000FF054000704700006A
:10151000F0B5426E920F0A70426EC2F383624A7057
:10152000426EC2F301628A70426E120CCA70B0F849
:101530006420120A0A7190F864204A71826E120DBA
:10154000CA80826EC2F303420A72B0F86820C2F306
:10155000C0324A72B0F86820C2F380328A72B0F8A2
:101560006820C2F34032CA72B0F86820C2F3003279
:101570000A7300264E73426C4FF40075012462B169
:10158000012A3AD0026847499163816B41F080514A
:10159000816380F834400120F0BDB0F86820C36E4C
:1015A0009205120D42EA93720A61C26EC2F3C262E0
:1015B0000A75C26EC2F302624A75C26EC2F342522B
:1015C0008A75C26EC2F38242CA75C26EC2F3C2325B
:1015D0000A760A69521C42650B7E03F007039B1CC6
:1015E0009A4042650B7A03F00F0704FA07F383650C
:1015F0005B0A5A43C0E917250EE090F86820C36ED5
:101600009206920A42EA13420A610A69521C920245
:101610004265C0E91652056630F86C2FC2F380327D
:1016200001F8192F0288C2F3C6124A70027802F03C
:101630007F028A704268D20FCA704268C2F3417258
:101640000A714268C2F382624A714268C2F38352ED
:101650008A714268C2F34052CA710E724268C2F384
:1016600000424A728288C2F3C0328A728288C2F310
:101670008032CA728288C2F340320A738288C2F30F
:1016800000324A738288C2F381228A738288C2F34D
:101690000122CA730079C0F3460008744C7400201C
:1016A000F0BD0000FF054000426C0A60826C4A6099
:1016B000C26C8A60026DCA60426D0A61826D4A61C5
:1016C000C26D8A61006EC8610020704770B5044623
:1016D000B0F8500000250104206801F084F918B129
:1016E000A16B0143A16304E00021206800F0E8FF42
:1016F0000546C5F3432070BDF8B5056B0446006888
:10170000416B09041BD5290719D5D4E90A56002EC7
:1017100014D00027206800F0F7FF05F8010B010A3C
:1017200005F8011B010C05F8021B000E361F7F1C7B
:1017300005F8010C082FEDD3C4E90A56F8BD416B3A
:101740004FF00006C9054FF0010744D53902816307
:101750002068C16B4CF23A329143C1632068C16A80
:1017600021F00101C16228071DD515F0220F09D013
:10177000206801F069F928B1A16B0143A1632046FB
:10178000FFF7C4FE216840F23A50886384F8347051
:101790002663A80703D0204600F096FAF8BD20463D
:1017A00000F096FAF8BD2806FCD5A80609D52068F1
:1017B00001F04AF928B1A16B0143A1632046FFF76C
:1017C000A5FEA807EED12068C16A21F00801C16218
:1017D00084F83470E3E7416B490424D5290722D506
:1017E000D4E90856002EDDD05FF0000715F8010B94
:1017F000009015F8011B361F40EA0120009015F8F3
:10180000021B40EA0140009015F8011C40EA01600B
:1018100000906946206800F08AFF7F1C082FE5D3FE
:10182000C4E90856F8BD416B40F23A221142F9D0A2
:10183000416B890703D5A16B41F00201A163416BA4
:10184000090703D5A16B41F00801A163416B89062B
:1018500003D5A16B41F02001A163416BC90603D5FB
:10186000A16B41F01001A163416B890503D5A16B08
:1018700041F00801A16340F23A7181632068C16BB5
:1018800040F23A329143C163206801F0DDF8A16B68
:101890000843A063280706D584F8347026632046E1
:1018A000FFF734FEF8BD2806FCD515F0300F0CD03C
:1018B000E16B11480865E06BFEF746FF0028F1D0A8
:1018C000E06BBDE8F84001F05BBAA8070CD0216CD2
:1018D0000A480865206CFEF737FF0028E2D0206C2C
:1018E000BDE8F84001F02ABAA66384F83470266394
:1018F0002046FFF78DFDF8BD812D00083D2D000825
:1019000070B504000ED094F83400002518B925777E
:10191000204600F03BF8032084F83400204600F015
:101920000BF808B1012070BDA5632563012084F880
:101930003400002070BD0000FEB50025044676206E
:101940000095CDE9015029460B460A46206800F073
:10195000C1FE08B10120FEBD0B4E46F8A05F206815
:1019600000F0CAFE01253560204601F00DFB20B9CC
:10197000204601F091FA0028EDD084F83450A16B94
:101980000143A163E6E70000008025422DE9F04F06
:1019900087B0054614216846FEF772FC4649286860
:1019A00088427DD145480068444940F400600860A1
:1019B000086800F4006005904048143800683F490A
:1019C00040F0040014390860086800F00400059035
:1019D000086840F0080008600868022400F0080069
:1019E00005904FF4F850CDE9000402AA0020032628
:1019F0004FF00C0882E8410169463148FFF7ACF826
:101A000002AA002082E841010427CDE9007469465A
:101A10002C48FFF7A1F82D4C2B484FF00068C4E983
:101A2000000800204FF48069A060C4E90309B802EF
:101A30004FF4804BC4E9050BC4E909764FF0200A46
:101A40000020C4E907A07E05B7102046C4E90B6753
:101A5000FEF75CFF08B1FEF7F2FC2C64A5631B4C9B
:101A6000194860344830C4E900084020A0600020D4
:101A7000C4E90309C4E907A00420606204F1280254
:101A8000032082E8C1004FF48051C4E9051B2046C1
:101A9000FEF73CFF08B1FEF7D2FCEC63002200E049
:101AA00007E011463120A563FFF7AEF93120FFF7BB
:101AB0009DF907B0BDE8F08F002C0140443802408A
:101AC00000080240000C024058640240A4000020BC
:101AD0002DE9F04F87B09B4616460D460446FFF7AA
:101AE00025F900903DB194F83400012807D0A06B8F
:101AF00040F000500DE0A06B40F0006009E00027CE
:101B0000A763E16D06EB0B00884204D9A06B40F09F
:101B10000070A06395E0032084F834002068C76259
:101B2000606C012800D076024FF40071206800F04C
:101B300037FEDFF890A1012140B12368C3F838A037
:101B4000A26B0243A26384F834107AE04FF0FF30B6
:101B500001904FEA4B200290902003900220CDE9A3
:101B6000040706918846B94601A9206800F092FD55
:101B7000BBF1010F06D9022020633146206800F036
:101B8000A3FE05E0C4F830803146206800F0B5FEC1
:101B900030B12268C2F838A0A16B0143A1634CE0C8
:101BA000029E1EE0406B000413D596B1002720680A
:101BB00000F0AAFD05F8010B010A05F8011B010C54
:101BC00005F8021B000E361F7F1C05F8010C082FBC
:101BD000EDD3FFF7ABF80099411A109881421DD25E
:101BE000E0B12068426B40F22A310A42DAD0416B00
:101BF000C90509D5BBF1010F06D9616C032903D0D2
:101C000000F022FF0028C4D12068416B09071AD5D3
:101C1000C0F838A0A06B40F0080051E02168C1F87E
:101C200038A0A06B40F00040A06384F83480C4F872
:101C30003090032007B0BDE8F08F84F83480C4F8FA
:101C400030900120F6E7416B890705D5C0F838A030
:101C5000A06B40F0020033E0416B89061CD5C0F850
:101C600038A0A06B40F020002AE000BF00F04CFD3F
:101C700005F8010B010A05F8011B010C05F8021B10
:101C8000000E05F8010C361FFFF750F80099411AB5
:101C9000109881420ED268B12068416B890201D54B
:101CA000002EE3D1216840F23A50886384F83480F2
:101CB0000020BFE72168C1F838A0A06B40F00040C9
:101CC000A063BAE7FF05400010B5FEF759FB10BD51
:101CD00010B5FEF767FB10BD2DE9FF4F8DB016461E
:101CE0000D460446FFF722F80B903DB194F83400FE
:101CF000012807D0A06B40F000500DE0A06B40F031
:101D0000006009E00027A7631098E16D3044884225
:101D100004D9A06B40F00070A0638BE0032084F82E
:101D200034002068C762606C012800D076024FF44E
:101D30000071206800F034FDDFF864B1012140B18A
:101D40002368C3F838B0A26B0243A26384F834104E
:101D500070E04FF0FF3003901098894640020490E5
:101D60009020CDE90507CDE90771BA4603A920689F
:101D700000F090FC1098012806D9202020633146FD
:101D8000206800F07BFE05E01020206331462068CB
:101D900000F08DFE5FEA000806D02168C1F838B077
:101DA000A06B40EA080071E0049E27E0406B40040D
:101DB0001CD5DEB15FF0000715F8010B009015F897
:101DC000011B361F40EA0120009015F8021B40EA73
:101DD0000140009015F8011C40EA0160009069463E
:101DE000206800F0A4FC7F1C082FE5D3FEF79EFFBF
:101DF0000B99411A1A98814220D2F8B12068416BA0
:101E000040F21A321142D1D0416BC90523D5109945
:101E1000012920D9616C03291DD000F015FED0B135
:101E20002268C2F838B0A16B0143A16384F83490F2
:101E3000C4F830A0012011B0BDE8F08F2168C1F8CE
:101E400038B0A06B40EA0800A06384F83490C4F86E
:101E500030A00320EFE72068416B090705D5C0F8E3
:101E600038B0A06B40F0080010E0416B890705D541
:101E7000C0F838B0A06B40F0020007E0416BC90623
:101E800006D5C0F838B0A06B40F01000A063CDE7D5
:101E900040F23A51816384F834900020CBE700008F
:101EA000FF05400070B5040005D00025A56294F838
:101EB000510010B106E0012070BD84F8505020465A
:101EC00000F030F8022084F851002068016821F009
:101ED00040010160D4E901010843D4E90312114330
:101EE000084361690843218B01F400710843E169EB
:101EF0000843216A0843A16A084321680860A06971
:101F0000042101EA1040616A0843216848602068A2
:101F1000C16921F40061C1616565012084F8510047
:101F2000002070BD10B586B0044614216846FEF747
:101F3000A7F914492068884221D11348002102687A
:101F400042F480120260006800F4801005900E4890
:101F50001438026842F020020260006800F020009D
:101F600005904FF4607000900220CDE9010103203C
:101F700003900520049069460448FEF7EDFD06B085
:101F800010BD0000005001404438024000140240DF
:101F900010B5401EB0F1807F01D3012010BD4FF07D
:101FA000E02460610F21601701F071FB0020A06147
:101FB00007202061002010BD7047000070B5026846
:101FC00004461068D168536910F00F0F53D003F026
:101FD000010501F490762E435FD0C20705D0CA05F3
:101FE00003D5E26B42F00102E263420705D5DA074E
:101FF00003D0E26B42F00202E263820705D5DA0702
:1020000003D0E26B42F00402E263020707D501F05D
:1020100020022A4303D0E26B42F00802E263E26B43
:10202000002A34D0800604D5880602D5204601F067
:10203000C1F920684069E16BC0F3801001F008012C
:102040000143204624D001F0A7F9206841694906E0
:102050001AD5416921F040014161606BA0B11B4973
:102060000165606BFEF770FB002810D0606B016D9E
:10207000BDE87040084783060FD58B060DD5204676
:10208000BDE8704001F096B92046FFF795FF70BD9E
:10209000FFF792FF0020E06370BD030606D50B0634
:1020A00004D52046BDE8704001F064BA4006F3D57F
:1020B0004806F1D5D168204621F04001D1602021A9
:1020C00084F8391000F039F970BD00008933000838
:1020D00070B5040004D094F83900002510B106E072
:1020E000012070BD84F83850204600F023F82420E9
:1020F00084F839002068C16821F40051C16020468D
:1021000001F0A4F92068016921F49041016120687F
:10211000416921F02A0141612068C16841F4005100
:10212000C160E563202084F8390084F83A0000207B
:1021300070BD000010B586B0044614216846FEF755
:102140009FF81B49206888422FD11A480021026855
:1021500042F010020260006800F01000059015487F
:102160001438026842F001020260006800F00100C9
:1021700005904FF4C06000900220CDE901010320DA
:1021800003900720049069460B48FEF7E5FC002207
:1021900011462520FEF738FE2520FEF727FE0748CA
:1021A0000068C16841F02001C16006B010BD0000A8
:1021B000001001404438024000000240BC010020F1
:1021C0002DE9F843044690F83A00994616460D4624
:1021D000202852D1BDB1B6B194F8380001284CD0B6
:1021E000012084F838000027E763222084F83A00B1
:1021F0002C34FEF79BFD24F8026B804624F80A6B12
:1022000004F8387931E00120BDE8F883E08D401E04
:10221000E085A0684346B0F5805F4FF000024FF0C4
:1022200020012046CDF8009004D001F0D4F998B1F7
:102230000320E9E701F0CFF90028F9D1206900284F
:102240002068406803D0C1B225F8011B0DE0C0F33F
:10225000080125F8021B08E0206900282068406872
:1022600001D000F07F0005F8010BE08D0028CDD1F2
:10227000202084F83A000020C6E70220C4E7704717
:102280002DE9F843044690F839001F4616460D46DE
:10229000202850D1B5B1AEB194F8380001284AD009
:1022A000012084F838004FF00008C4F83C80212059
:1022B00084F83900FEF73AFDA6848146E68484F866
:1022C000388026E00120BDE8F883E08C401EE084E1
:1022D000A0684B46B0F5805F4FF000024FF08001E0
:1022E0002046009703D001F076F9E8B90DE001F03F
:1022F00072F9C8B928882168C0F3080048602069CD
:1023000008B16D1C05E0AD1C03E0216815F8010B58
:102310004860E08C0028D8D14B460022402120465E
:10232000009701F058F908B10320CCE7202084F889
:1023300039000020C7E70220C5E77047FEE700002C
:10234000F0B597B0282215A10DA8FDF780FF342223
:102350001CA16846FDF77BFF4FF47A7633462522B1
:102360000DA92548FFF78CFF244C254D0027206838
:1023700058B12760287830280BD031280CD033464C
:10238000322269461C48FFF77BFF0A20FEF728FB34
:10239000EDE7002017B0F0BD0120FBE7C7EBCAE472
:1023A000C8EBC3FCC1EE0D0A303AB8FCD0C2B9CCC0
:1023B000BCFE0D0A312EC6F4B6AFB3CCD0F20D0A76
:1023C00000000000CAE4C8EBC3FCC1EED3D0CEF3DA
:1023D0002CC7EBD6D8D0C2CAE4C8EB0D0A303AB845
:1023E000FCD0C2B9CCBCFE0D0A312EC6F4B6AFB3D8
:1023F000CCD0F20D0A000000BC010020000000203B
:10240000001000201FB5124D0826124F4FF47A78A5
:10241000FFF796FF10B1FEF713F8F9E70E4C00F046
:10242000D3F802460FF2340C9CE80B108DE80B1029
:102430006868B6EB106FEBD12146384601F05CF9C5
:102440004346102269460948FFF71AFFE0E70000FB
:10245000001000200000010800100020B9CCBCFED4
:10246000B8FCD0C2CDEAB3C9210D0A00BC010020DE
:102470000D4808B5016841F4800101600068002240
:1024800000F48000009011463B20FEF7BDFC3B208D
:10249000FEF7ACFC002211464520FEF7B5FCBDE876
:1024A00008404520FEF7A2BC3038024010B5044970
:1024B0000448FEF701F80249491E087010BD0000EB
:1024C000060000208C370008154808B5016841F067
:1024D00020010160016801F020010091016841F0D4
:1024E00080010160016801F080010091016841F004
:1024F00004010160016801F004010091016841F0EC
:1025000001010160016801F001010091016841F0E1
:1025100008010160006800F00800009008BD00009C
:102520003038024006480549016000214160816061
:10253000C16001614161816170470000002C014070
:10254000200000200F4810B50D4901604FF4827142
:10255000416000218160C1604FF400720161C0E9F7
:102560000512C1610162416281620A21C162FFF705
:1025700099FC002803D0BDE81040FDF760BF10BDF6
:1025800000500140640100200C4810B50A49016068
:102590004FF4E1314160002181600C22C160C0E94B
:1025A00004128161C161FFF793FD002803D0BDE8EB
:1025B0001040FDF744BF10BD00100140BC010020D9
:1025C000FEE7704770470000F0B51CA195B00FC939
:1025D00010AC002584E80F001C221CA109A8FDF7FF
:1025E00036FE242220A16846FDF731FE4FF47A77AB
:1025F0003B461A2209A92548FFF742FE244C002633
:102600002068B8B1854214D132280AD905463B4624
:102610000F2210A91D482660FFF732FE15B028468C
:10262000F0BD3B462222694618482660FFF728FE87
:1026300000E085B20A20FEF7D3F9E1E7D3C3BBA7D8
:10264000BDD3CAD5CDEAB3C90D0A0000C7EBCAB9DC
:10265000D3C3B4AEBFDAB7A2CBCD2E62696ECEC4FF
:10266000BCFE210D0A000000B7A2CBCDCAFDBEDD25
:10267000D3D0CEF32CC7EBD1A1D4F1B7A2CBCD2EC2
:1026800062696ECEC4BCFE0D0A000000BC010020D1
:10269000000000200A6842624A688262D1E902238F
:1026A0001A43D1E904310B43C16A1A4321F0F701FF
:1026B0001143C16200207047006800F003007047BA
:1026C00008444069704700000148FFF715B8000052
:1026D0002000002070B50DF1100C11439CE8700033
:1026E0002343194329434268314347F6FF639A4322
:1026F0000A434260002070BD10B503210160022032
:10270000FEF76EF9002010BDD0F8800070470A680F
:102710008260D1E901231A43D1E903310B43C16837
:102720001A436FF30B011143C16000207047096821
:10273000C0F880100020704710B586B004463720DE
:10274000CDE9001040200290002003904FF48060FB
:10275000049069462046FFF7DAFF41F288323721BC
:10276000204600F0BDF906B010BD000010B50446CB
:102770000A4886B001432920CDE90010402002908C
:10278000002003904FF48060049069462046FFF7D4
:10279000BEFF204600F05CFA06B010BD00001080BD
:1027A00010B586B004461020CDE9001040200290FC
:1027B000002003904FF48060049069462046FFF7A4
:1027C000A6FF41F288321021204600F089F906B0B8
:1027D00010BD10B586B004460620CDE9001040209B
:1027E0000290002003904FF48060049069462046D8
:1027F000FFF78DFF41F288320621204600F070F984
:1028000006B010BD30B585B0002405460094019493
:102810004FF480600294CDE9034069462846FFF7F3
:1028200076FF0B484FF4FA510068B0FBF1F041F22B
:1028300088314843401E03D24FF0004005B030BD00
:10284000696B0906F6D5C520A8632046F6E70000A7
:102850001C00002070B585B004464FF4D570009080
:1028600001A908204025002681E86100C0010490EC
:1028700069462046FFF74BFF12484FF4FA510068B3
:10288000B0FBF1F041F288314843401E03D24FF0D3
:10289000004005B070BD616B11F0450FF5D0090522
:1028A000F3D4606B400701D5042003E0606BC007E0
:1028B00002D00120A063ECE7606B400600D5A56361
:1028C0003046E6E71C00002010B586B00446122012
:1028D000CDE9001040200290002003904FF480606A
:1028E000049069462046FFF712FF41F28832122118
:1028F000204600F0F5F806B010BD10B586B00446CD
:102900001120CDE9001040200290002003904FF4E8
:102910008060049069462046FFF7F9FE41F2883254
:102920001121204600F0DCF806B010BD10B586B0CD
:1029300004460720CDE900204020029000200390AB
:102940004FF48060049069462046FFF7E0FE41F2B4
:1029500088320721204600F0C3F806B010BD10B53C
:1029600086B0044600210220CDE90010C020CDE948
:1029700002014FF48060049069462046FFF7C7FECD
:10298000204600F03DF906B010BD10B586B00446F3
:102990000920CDE90010C0200290002003904FF4E0
:1029A0008060049069462046FFF7B1FE204600F0A3
:1029B00027F906B010BD10B586B0044600213320BB
:1029C000CDE900104020CDE90201000104906946E4
:1029D0002046FFF79CFE41F288323321204600F06A
:1029E0007FF806B010BD10B586B004460D20CDE9C5
:1029F000001040200290002003904FF4806004906B
:102A000069462046FFF783FE41F288320D212046B9
:102A100000F066F806B010BD30B585B00C4605462E
:102A200000210320CDE900104020CDE90201000182
:102A3000049069462846FFF76AFE2246032128468D
:102A400000F028F905B030BD10B586B0044600216D
:102A50000C20CDE900104020CDE9020100010490D6
:102A600069462046FFF753FE034A0C21204600F03A
:102A700037F806B010BD000000E1F50510B586B0CE
:102A800004461920CDE90010402002900020039058
:102A90004FF48060049069462046FFF738FE41F20B
:102AA00088321921204600F01BF806B010BD10B581
:102AB00086B004461820CDE9001040200290002086
:102AC00003904FF48060049069462046FFF71FFE94
:102AD00041F288321821204600F002F806B010BDFD
:102AE000454B10B51B684FF4FA54B3FBF4F3534352
:102AF0005B1E02D24FF0004010BD426B12F0450F3A
:102B0000F6D01205F4D4426B520703D50421816339
:102B1000084610BD426BD20702D00121816305E057
:102B2000C52282630269D2B28A4201D0012010BD5F
:102B30000021FFF7C5FD3149084201D1002010BD39
:102B4000002802DA4FF0007010BD410001D540208E
:102B500010BD810001D5802010BDC10002D54FF409
:102B6000807010BD010102D54FF4007010BD41010D
:102B700002D54FF4806010BDC10102D54FF4006052
:102B800010BD010202D54FF4805010BD410202D5A4
:102B90004FF4005010BD810202D54FF4804010BDAB
:102BA000C10202D54FF4004010BD410302D54FF4DD
:102BB000003010BD810302D54FF4802010BDC10349
:102BC00002D54FF4002010BD010402D54FF480104F
:102BD00010BD410402D54FF4001010BD810402D590
:102BE0004FF4800010BD000702D54FF4000010BD67
:102BF0004FF4803010BD00001C00002008E0FFFDF5
:102C000012494FF4FA520968B1FBF2F141F28832ED
:102C10005143491E02D24FF000407047426B12F000
:102C2000450FF6D01205F4D4416B490703D50421B2
:102C3000816308467047416BC90703D00121816356
:102C400008467047C5218163002070471C000020A2
:102C50000F494FF4FA520968B1FBF2F141F28832A0
:102C60005143491E02D24FF000407047426B12F0B0
:102C7000450FF6D01205F4D4416B490703D5042162
:102C8000816308467047C5218163002070470000BA
:102C90001C00002030B5204B4FF4FA541B68B3FBE6
:102CA000F4F341F2883463435B1E02D24FF00040DC
:102CB00030BD446B14F0450FF6D02405F4D4436BBB
:102CC0005B0703D504218163084630BD436BDB07F6
:102CD00002D00121816303E00369DBB28B4201D0A2
:102CE000012030BDC52181630021FFF7E9FC10F40C
:102CF000604F04D0410406D54FF4005030BD000CA5
:102D00001080002030BD000402D54FF4805030BD4B
:102D10004FF4803030BD00001C00002010B5064C80
:102D200001202070FDF7F0FA18B9207820F001009A
:102D30002070207810BD00000400002010B5846BC6
:102D400040F23A50216888632046FEF7BFFC01211B
:102D500084F8341000212163062801D0052805D10C
:102D60002068FFF771FEA16B0843A063A06B0028E9
:102D7000204602D0FEF7CAFB10BDFEF749FB10BD8E
:102D800010B5846B40F23A50216888632046FEF704
:102D90009DFC012184F8341000212163062801D014
:102DA000052805D12068FFF74FFEA16B0843A063FB
:102DB000A06B0028204602D0FEF7A8FB10BDFEF74E
:102DC00027FB10BD2DE9F04F89B00D460446FDF7F5
:102DD000ADFF0026834600960196374608212068FD
:102DE000FFF7DEFC002834D1B4F85000010420685D
:102DF000FFF7A2FC00282CD1401E4FF00808CDE9B7
:102E0000020830204FF00209CDE904090120CDE984
:102E1000067002A92068FFF73DFC2068FFF7CBFD94
:102E2000002816D1EA4640F22A472068416B394211
:102E300012D1416B890204D5FFF766FC4AF82600DF
:102E4000761CFDF773FFA0EB0B00401CEDD14FF09B
:102E5000004009B0BDE8F08F416B090703D5C0F809
:102E600038800820F5E7416B890703D5C0F8389012
:102E70000220EEE7416B890603D5202181630846D5
:102E8000E7E740F23A518163019800BA2860009860
:102E900000BA68600020DCE710B590B0044601205D
:102EA000ADF838002068FFF707FC002854D0606CAC
:102EB000032842D02068FFF752FD00284AD10021A4
:102EC0002068FFF7FDFB606704212068FFF7F8FB2F
:102ED000A06708212068FFF7F3FBE0670C2120685A
:102EE000FFF7EEFBC4F88000606C032825D00EA924
:102EF0002068FFF791FD00282CD1606C03281CD0BE
:102F0000BDF83800206501042068FFF73EFD002869
:102F100020D100212068FFF7D3FB606604212068E0
:102F2000FFF7CEFBA06608212068FFF7C9FBE0662B
:102F30000C212068FFF7C4FB206704212068FFF7FD
:102F4000BFFB000DE06403A92046FEF7E1FA30B1B3
:102F50004FF0805010B010BD4FF08060FAE7B4F829
:102F60005000002302042068FFF7E0FC0028F1D1A4
:102F700004F1100007C88DE8070094E80F00FFF780
:102F8000A9FB0020E6E700002DE9F84F00260446E3
:102F900000963546B0460068FFF734FC002827D17C
:102FA0002068FFF757FC4FF0805B4FF001094FF6A8
:102FB000FF7748B1A6642068FFF724FC002817D1EA
:102FC000A06C012802D020E0C4F8489000212068BD
:102FD000FFF7B2FB58B918E000212068FFF7ACFBFF
:102FE000002805D151462068FFF7C0FB10B15846B4
:102FF000BDE8F88F00212068FFF762FB05464FEA25
:10300000D0780098401C009002E0DFF82CA00098D7
:10301000B84202D2B8F1000FDED00098B84202D315
:103020004FF08070E4E7680002D5C4F8449000E0F7
:1030300066640020DCE70000000010C170B5064C9B
:10304000054601202070FDF76BF918B92846FFF7F7
:1030500065FE2070207870BD0400002010B5124875
:1030600088B014460078C00702D0032008B010BD15
:10307000C1B1012905D0022908D003290CD00420B0
:10308000F4E76846FDF73AF906980AE06846FDF766
:1030900035F90798208005E06846FDF72FF9079875
:1030A000400A20600020E1E70400002070B51D46C2
:1030B000164608460124A31E2A463146FDF750F95C
:1030C00028B900BFFDF720F90028FBD100242046D5
:1030D00070BDFFF723BE000070B51D4616460846BA
:1030E0000124A31E2A463146FDF74CF928B900BF3A
:1030F000FDF70AF90028FBD10024204670BD00002E
:103100003A49884201D2002070473949884201D2A9
:10311000012070473749884201D202207047364962
:10312000884201D2032070473449884201D20420EA
:1031300070473349884201D205207047314988429F
:1031400001D2062070473049884201D207207047DB
:103150002E49884201D2082070472D49884201D269
:10316000092070472B49884201D20A207047B0F1EC
:10317000016F01D20B2070472749884201D20C20F1
:1031800070472649884201D20D2070472449884261
:1031900001D20E2070472349884201D20F20704788
:1031A0002149884201D2102070472049884201D22B
:1031B000112070471E49884201D2122070471D49D4
:1031C000884201D2132070471B49884201D2142043
:1031D00070471A49884201D2152070471849884221
:1031E00001D21620704717207047000000400008E9
:1031F0000080000800C0000800000108000002086C
:1032000000000408000006080000080800000A0882
:1032100000000C0800000E08004010080080100894
:1032200000C0100800001108000012080000140877
:10323000000016080000180800001A0800001C080A
:1032400000001E082DE9F04F87B04FF00008174628
:103250000E460446CDF81480B0F1006F38D3A007B5
:1032600036D1FDF763FC1C48254604EB87074CF27A
:103270005039844215D24FF0010A4FF0020BBD4283
:103280000FD22868401C11D02846CDF80080FFF7E7
:1032900037FF02AA05A982E8010C6846FDF7B0FBDA
:1032A00028B14846FDF728FA70B10FE02D1D4846B9
:1032B000FDF722FAE3E70023214602203268FDF7FA
:1032C000F7FB18B9241D361DBC42F4D3FDF7E6FB0D
:1032D00007B0BDE8F08F00000000FF1F7047FDF74A
:1032E0002BBD000070B592B030216846FCF7C8FFD6
:1032F00014210CA8FCF7C4FF1A480025016841F00E
:1033000080510160006800F08050119016480168FB
:1033100041F4404101600068022400F440401190F3
:1033200001200090000401908001CDE906400F26A5
:103330000896D820CDE9090404200B906846FDF7D3
:10334000B9FEFDF793FD4FF4A050CDE90E50E00219
:10335000CDE90C64109005210CA8FDF7BFFD12B05B
:1033600070BD000040380240007000400548016810
:1033700041F47001016003494FF00060803908603A
:103380007047000088ED00E010B5806B0021C1851A
:10339000C184FEF711FE10BD0168CA6822F4907264
:1033A000CA6001684A6922F001024A61202180F85E
:1033B0003A10704710B590F83A10222901D0022037
:1033C00010BD8168B1F5805F11D0016900290168E5
:1033D0001FD0496801F07F03816A4A1C82620B702A
:1033E000C18D491E0904090CC18518D02BE0026962
:1033F000816A002A0268526805D0D2B20A80816AC6
:10340000491C8162ECE7C2F308020A80816A891CC8
:10341000F7E74A68816A4B1C83620A70E0E701683B
:10342000CA6822F02002CA600168CA6822F4807269
:10343000CA6001684A6922F001024A61202180F8CD
:103440003A10FEF71CFF002010BD00002DE9F041EE
:10345000044600680169E26821F4405111430161AA
:103460002169A068E2690843616911430843216842
:10347000CA6849F20C639A430243CA6020684169F2
:10348000A26921F4407111434161E0691927642563
:103490003226B0F5004F354A354920684FF0000814
:1034A00006D0884201D0904236D1FDF7C1FD35E00B
:1034B000884201D0904202D1FDF7BAFD01E0FDF74C
:1034C000A7FD61684A18A0FB070148EB0803FCF759
:1034D0008DFE0146B0FBF5F00201B1FBF5F06FF097
:1034E0001803584301EB800006EBC000B0FBF5F079
:1034F00000F0F80002EB4002B1FBF5F0584301EB9D
:10350000800006EBC000B0FBF5F000F0070021687A
:1035100010448860BDE8F081FDF77AFD61688B0F8B
:103520008A00A0FB0701FCF761FE0146B0FBF5F045
:103530006FF01802504301EB800006EB0010B0FB67
:10354000F5F000F0F002B1FBF5F002EB0012B1FB78
:10355000F5F06FF01803584301EB800006EB001004
:10356000B0FBF5F000F00F00D1E7000000140140BF
:103570000010014090F83910212901D00220704735
:103580008168B1F5805F016A0BD04A1C0262026853
:1035900009785160C18C491E0904090CC1840ED000
:1035A00017E009880268C1F3080151600169002928
:1035B000016A02D0491C0162ECE7891CFBE7016843
:1035C000CA6822F08002CA600068C16841F0400108
:1035D000C160002070472DE9F041984617460E461D
:1035E0000446069D1DE0681C1BD02DB1FDF79EFB17
:1035F000A0EB0800A84214D92068C16821F4D0715A
:10360000C1602068416921F001014161202084F8F6
:10361000390084F83A00002084F838000320BDE81F
:10362000F0812068006836EA000004D00020B8422B
:10363000D9D00020F3E70120F9E7000010B50448D5
:1036400000F008F8BDE810400148FEF7B7BC0000E4
:10365000BC01002008B501680968C943890610D477
:103660004FF47A7301226946FEF7AAFD05490868FE
:10367000B0F5343F05D2044B9DF800201A54401C8D
:10368000086008BD0000002000100020FEE70907C8
:10369000090E002804DB00F1E02080F800147047D8
:1036A00000F00F0000F1E02080F8141D704702E0E8
:1036B00008C8121F08C1002AFAD1704770470020BD
:1036C00001E001C1121F002AFBD1704710B501684B
:1036D000074A1140B1F1005F09D14168054C2160F2
:1036E0000068FCF76DFD2068BDE81040004710BD84
:1036F0000000F02F0C0000202DE9F0470025904637
:1037000006460C462F464FF40079DFF854A019E026
:10371000E078A178000640EA014061784A4640EA34
:10372000012114F8040B08434AF825006D1CADB2C2
:10373000954206D100250A493046FFF783FD06F57C
:1037400000663F1D4745E3D3002D06D02A4630468C
:10375000BDE8F0470249FFF775BDBDE8F0870000FE
:1037600008020020FDF7F0FAFFF7BCFDFEF7ACFE03
:10377000FEF77EFEFEF708FFFEF7D4FEFEF796FE8C
:10378000FEF7E0FEFEF73EFEFEE700003D300008DB
:10379000D3300008AD300008D93000085D30000893
:1037A00000061016000610160000000000000000C1
:1037B00001020304060708090000000001020304D7
:1037C000E03700080000002020000000AE360008AE
:1037D0000038000820000020E0DF0200BE360008AC
:1037E00000000000010000000000000000000000D8
:1037F0000100000010000000000000000024F400A0
:04000005080001AD41
:00000001FF
