:020000040800F2
:10000000300E0020C90100088F2A00083928000896
:100010008D2A0008D3030008A93F00080000000053
:10002000000000000000000000000000F93B000894
:100030004D05000800000000912A0008FB3B000865
:10004000E3010008E3010008E3010008E301000800
:10005000E3010008E3010008E3010008E3010008F0
:10006000E3010008E3010008E3010008E3010008E0
:10007000E3010008E3010008E3010008E3010008D0
:10008000E3010008E3010008E3010008E3010008C0
:10009000E3010008E3010008E3010008E3010008B0
:1000A000E3010008E3010008E3010008E3010008A0
:1000B000E3010008E3010008E3010008E301000890
:1000C000E3010008E3010008E3010008E301000880
:1000D000E3010008593F0008E3010008E3010008BC
:1000E000E3010008E3010008E3010008E301000860
:1000F000E3010008E3010008E3010008E301000850
:10010000E3010008912C0008E3010008E301000866
:10011000E3010008E3010008E3010008E30100082F
:10012000E3010008E3010008E3010008B904000846
:10013000E3010008E3010008E3010008E30100080F
:10014000E3010008E3010008E3010008E3010008FF
:10015000E3010008C5040008E3010008E30100080A
:10016000E3010008E3010008E3010008E3010008DF
:10017000E3010008E3010008E301000800000000BB
:10018000E3010008E3010008E3010008E3010008BF
:10019000E3010008E3010008E3010008E3010008AF
:1001A000E3010008E3010008E3010008DFF80CD0D8
:1001B00000F0A6F8004800470D420008300E00206D
:1001C00080F30888704700000648804706480047CB
:1001D000FEE7FEE7FEE7FEE7FEE7FEE7FEE7FEE7F7
:1001E000FEE7FEE7893C0008AD0100082DE9F05F5D
:1001F0000546002092469B46884606468146402496
:100200001BE0284641464746224600F069F853461F
:100210005A46C01A914110D311461846224600F0A2
:1002200050F82D1A67EB01084F46224601200021A5
:1002300000F047F817EB00094E41201EA4F101041D
:10024000DFDC484631462A464346BDE8F09F40EA97
:1002500001039B0703D009E008C9121F08C0042A44
:10026000FAD203E011F8013B00F8013B521EF9D22B
:100270007047D2B201E000F8012B491EFBD2704753
:100280000022F6E710B513460A4604461946FFF762
:10029000F0FF204610BD30B50B460146002020225D
:1002A000012409E021FA02F59D4205D303FA02F583
:1002B000491B04FA02F52844151EA2F10102F1DCE3
:1002C00030BD202A04DB203A00FA02F100207047FA
:1002D0009140C2F1200320FA03F319439040704784
:1002E000202A04DB203A21FA02F00021704721FA8B
:1002F00002F3D040C2F120029140084319467047F2
:10030000064C074D06E0E06840F0010394E8070062
:1003100098471034AC42F6D3FFF74CFF6842000810
:1003200088420008704700000146014801F04ABBBE
:100330002400002010B5044801F056FB042801D029
:10034000012010BD002010BD2400002010B500F0D9
:1003500015F8012801D0012010BD074801F05EFC0E
:10036000040006D14FF40061034801F0E3F900B145
:100370000124204610BD00002400002008B5012003
:100380008DF800009DF8000008BD000038B500247D
:10039000009313460A460146034801F027FD00B1C9
:1003A0000124204638BD00002400002070470000D2
:1003B00038B50024009313460A460146034801F06D
:1003C00019FE00B10124204638BD000024000020A1
:1003D0007047FEE72DE9F04100268EB0074635460E
:1003E00034461C221BA16846FFF731FF1C2220A1C6
:1003F00007A8FFF72CFF4FF47A734FF01C02F7B1F8
:1004000007A9224802F0BAF902F06EFB00F044F8A6
:10041000DFF87C801F4F3868C0B1864215D16FF07D
:100420002F024146085D60B10D280AD005EB850317
:1004300002EB43031844641CC5B2E4B2F2E7694618
:10044000DFE70EB02846BDE8F08186B20A2000F052
:100450004FFCE0E7C7EBD1A1D4F1D0E8D2AAB8B203
:10046000B8C7B5C4B3CCD0F2D0F2BAC5210D0A00DA
:10047000C7EBD1A1D4F1D0E8D2AAD4CBD0D0B5C4A7
:10048000B3CCD0F2D0F2BAC5210D0A00C0010020D1
:10049000001000200000002005490020FF22086015
:1004A00004494FF434330A54401C9842FBD370473C
:1004B0000000002000100020014800F0DFBA00001A
:1004C000A8000020014800F0D9BA0000080100206F
:1004D00001681823CAB2103AB2FBF3F2054B6FF36E
:1004E0000901032A9B5CC36500D9091D8165084683
:1004F000704700004842000810B5014600208B6993
:100500008A6A4FF0C07453B1B3F5005F15D072B171
:10051000012A0CD0022A0AD0032A09D104E01AB118
:10052000012A06D0022A03D1C96AC90100D50120D7
:1005300010BDC96AA142FAD010BD002AF7D0012A25
:10054000F2D0022AF3D0032AF3D010BD70477047CF
:10055000002200F001B8000030B50E4B0546012026
:100560005C7A002C14D1587A1C54587A03EB800022
:1005700045605D7A03F108002A54587A421C5A7289
:10058000303008703A2048702F208870CC700020DE
:1005900030BD000000020020002229B101291DD039
:1005A00002291ED04FF440720B2800D9001D0E49BD
:1005B0000B6823F440730B600B6813430B600A68ED
:1005C00022F0F8020A600A68022303EBC00002432B
:1005D0000A60086840F48030086070474FF4807209
:1005E000E2E74FF40072DFE7103C02401348016875
:1005F00089050FD5016821F400710160016841F49B
:1006000000610160016821F400610160016841F44A
:1006100000710160016849050FD5016821F480610E
:100620000160016841F480510160016821F480514A
:100630000160016841F4806101607047003C024044
:100640000E4A136823F44073136003290DD0012967
:1006500011680FD041F40041116011684FF48033EC
:1006600043EA0020014311607047116848F2040317
:100670001943F1E741F00401EEE70000103C0240AD
:10068000064A136823F440731360136813601368F9
:1006900043F001031360017070470000103C0240FA
:1006A000094910B50C6824F440740C600C6844F4DB
:1006B00040740C600C6844F001040C600260BFF3ED
:1006C0006F8F436010BD0000103C0240074A136862
:1006D00023F440731360136843F48073136013684A
:1006E00043F001031360018070470000103C02409A
:1006F000074A136823F440731360136843F40073CC
:100700001360136843F00103136001607047000039
:10071000103C02401C490868C2061C4805D5C26945
:1007200042F01002C26110220A600A68920605D5E2
:10073000C26942F00802C26120220A600A685206B9
:1007400005D5C26942F00402C26140220A600A680B
:10075000120605D5C26942F00202C26180220A6017
:100760000A68D20506D5C26942F00102C2614FF49F
:1007700080720A600A68920705D5C26942F02002B9
:10078000C2610220086070470C3C02400C0A002045
:1007900070B5114904460020C86100F055FC0646BA
:1007A0000E4D09E0601C07D024B100F04DFC801B09
:1007B000A04201D9032070BD2868C003F2D4286884
:1007C000C00701D001202860286810F4F970F2D029
:1007D000FFF7A0FF012070BD0C0A00200C3C024076
:1007E0002DE9F04330A38FB00FCB06AC84E80F00A7
:1007F000142231A10AA8FFF72AFD182233A1684666
:10080000FFF725FD0120FFF7E5FD02F043F94FF664
:10081000FF7105464FF43338B8FBF1F0314EC7B2E3
:100820000024894609E000BFC4EB0440411930446C
:100830004A4602F0AFFF641CE4B2BC42F4D3B8FBFA
:10084000F9F2C4EB044009FB12824119304402F072
:10085000A1FF2548406808254FF47A76B5EB106F64
:100860001BD1224C42461F49204603F099FC3346D7
:1008700014220AA91E4801F081FF6068B5EB106FD1
:100880000BD13346102206A9194801F077FF204604
:1008900003F070FC0FB0BDE8F083334615226946C3
:1008A000134801F06BFFF5E7BFAACABCD6B4D0D09D
:1008B000B3CCD0F2210D0A00B3CCD0F2D0B4C8EB47
:1008C000D0BEC6ACB3C9B9A6210D0A00B3CCD0F2D4
:1008D000D3D0CEF32CCEDEB7A8D6B4D0D0210D0A1B
:1008E000000000000010002000100020000001089F
:1008F000C00100202DE9F04738A198B00FC910AC15
:1009000084E80F0039A114AC0FC984E80F001C2241
:100910003AA109A8FFF79BFC24223FA16846FFF7F4
:1009200096FC00252846FFF755FD02F0B3F8434E2C
:100930004FF47A74234630601A2209A9404801F026
:100940001DFFFFF7A9FDA0463E4C00272068B8B365
:1009500085423DD13228276033D902F049F9C24699
:1009600043460F2214A9364801F008FF4FF6FF71E5
:100970004FF43438B8FBF1F0334D3668C7B2002479
:10098000894608E0C4EB0440811928444A4602F035
:100990004DFF641CE4B2BC42F4D3B8FBF9F2C4EBE3
:1009A000044009FB12828119284402F03FFF53469C
:1009B000102210A9224801F0E1FE18B0BDE8F0872E
:1009C00007E04346222269461D4801F0D7FE00E0B9
:1009D00085B20A2000F08CF9B8E70000B9CCBCFE63
:1009E000B8FCD0C2CDEAB3C9210D0A00CAFDBEDDF4
:1009F000BDD3CAD5CDEAB3C90D0A0000C7EBCAB949
:100A0000D3C3B4AEBFDAB7A2CBCD2E62696ECEC46B
:100A1000BCFE210D0A000000B7A2CBCDCAFDBEDD91
:100A2000D3D0CEF32CC7EBD1A1D4F1B7A2CBCD2E2E
:100A300062696ECEC4BCFE0D0A00000010000020EA
:100A4000C0010020000000200010002008B1FFF7C6
:100A5000C7BEFFF74FBF90F83510022903D08021A1
:100A6000416501207047052180F835100068016854
:100A700021F0010101600020704700002DE9F843DA
:100A800004464FF00009CDF8009063484FF416512A
:100A9000A56D0068B0FBF1F72E6894F85C10082093
:100AA00000FA01F131420FD021680A6852070BD5D4
:100AB0000A6822F004020A6094F85C108840A8607A
:100AC000606D40F00100606594F85C104FF0010823
:100AD00008FA01F0304208D021684969090604D5B6
:100AE000A860606D40F00200606594F85C1004201E
:100AF0008840304208D021680968890704D5A86079
:100B0000606D40F00400606594F85C10102088402F
:100B1000304218D021680968090714D5A8602068F8
:100B20000168490304D50068000308D5A16C07E0FB
:100B30000168C90503D4016821F008010160216C36
:100B400009B12046884794F85C1020208840304244
:100B500031D021680968C9062DD5A86094F8350000
:100B600005282068016806D0490347D500680003BE
:100B70001DD4616C1CE021F0160101602068416900
:100B800021F080014161206C08B9A06C20B120687F
:100B9000016821F00801016094F85C103F20884052
:100BA000A86084F8349084F83580216D1FE0E16BF3
:100BB00009B120468847606D00282BD0606DC007C2
:100BC00014D0052084F835002068016821F0010167
:100BD00001600098401C0090B84203D8206800686B
:100BE000C007F6D184F8349084F83580E16C002990
:100BF00010D001B02046BDE8F04308470168C905A0
:100C0000D5D4016821F01001016084F8349084F893
:100C10003580CCE7BDE8F883200000202DE9F041C5
:100C2000044600F011FA06465CB1002584F8345001
:100C3000022084F835002068016821F0010101607C
:100C40000DE00120BDE8F08100F0FEF9801B0528D1
:100C500005D920206065032084F83500F2E720687C
:100C60000068C007F0D12268116820480140D4E92B
:100C700001031843D4E90336334318436369184327
:100C8000A3691843E3691843236A18430843616A58
:100C9000042903D1D4E90B131943084310602068D9
:100CA0004069666A20F0070130460E430127042898
:100CB0000CD1A06A0643E06A40B12046FFF71CFC55
:100CC00020B14020606584F83570BAE7206846613D
:100CD0002046FFF7FDFB94F85C203F2191408160A6
:100CE000656584F835700020ACE700003F8010F0A7
:100CF00010B50021054C05E0224602235B1C9342FF
:100D0000FCDB491C8142F7D310BD0000409002007B
:100D10002DE9F047044623480F46017E01290AD0F9
:100D20000121804601764CF250394846FFF730FDEC
:100D3000020003D030E00220BDE8F0874FF0FF3022
:100D400038602068184D012801D0A6681DE0207C7D
:100D50006168FFF775FC4846FFF71AFD02462868F0
:100D600048F204018843286014E0217C3046FFF7F4
:100D700013FC4846FFF70CFD0200286820F0FA003B
:100D8000286001D03E6005E0761CD4E902100844DA
:100D9000B042EAD8FFF72AFC002188F81810104664
:100DA000CAE700000C0A0020103C0240034801681A
:100DB00041F000410160002070470000103C0240FB
:100DC0002DE9F0471B4E05461446307E1F468946E6
:100DD000012808D0012030764CF250384046FFF709
:100DE000D7FC18B114E00220BDE8F0879DB1012DB9
:100DF00016D0022D19D022463B464846FFF750FC3C
:100E00004046FFF7C5FC0C490A6822F001020A605F
:100E100000213176E8E7E1B24846FFF731FCEFE721
:100E2000A1B24846FFF752FCEAE721464846FFF7E1
:100E30005FFCE5E70C0A0020103C02400749002057
:100E40000A68002A09DA054A054B0C3A1360054B7B
:100E500013600968002900DA01207047103C024045
:100E600023016745AB89EFCD2DE9F84F00224FF004
:100E7000010803254FF00F0E0B6808FA02F4234017
:100E8000A3426ED14E68012E05D0022E03D0112E42
:100E900001D0122E12D186684FEA420C05FA0CF7E7
:100EA000BE43CF6807FA0CF7374387604668A6430E
:100EB0000C79C4F30014944034434460C66857006E
:100EC00005FA07FC8C6826EA0C06BC403443C46073
:100ED0004C68022C01D0122C13D1D40800EB8404EE
:100EE000A346D4F8209054074FEAD46A0EFA0AF6C3
:100EF00029EA06090E6906FA0AF646EA0906CBF857
:100F0000206004680E7924EA0C0406F00306BE4053
:100F1000264306604C68E4006FD53B4C266846F4D7
:100F200080462660246822F0030604F4804400947E
:100F3000364C3444A446D4F808489607360F0EFAC7
:100F400006F7BC43324FB84201D100272EE0314FA3
:100F5000B84201D1012729E02F4FB84202D1022720
:100F600024E04AE02D4FB84201D103271EE02C4F68
:100F7000B84201D1042719E02A4FB84201D1052710
:100F800014E0294FB84201D106270FE0274FB8429D
:100F900001D107270AE0264FB84201D1082705E012
:100FA000244FB84201D1092700E00A27B740274360
:100FB000CCF80878204E34684F689C43FF0300D576
:100FC0001C4334601C4E361D34684F689C43BF037D
:100FD00000D51C433460184E083634684F689C4373
:100FE000FF0200D51C433460134E0C3634684F6842
:100FF0009C43BF0200D51C433460521C102AFFF4EE
:101000003BAFBDE8F88F000044380240003001409B
:10101000000002400004024000080240000C0240B0
:10102000001002400014024000180240001C024060
:101030000020024000240240003C01400AB18161CE
:1010400070470904FBE70000014880687047000012
:1010500014000020024881680278114481607047C2
:10106000140000200B4810B5016841F400710160C4
:10107000016841F480610160016841F480710160A0
:10108000032000F06FF8002000F006F800F024F8CC
:10109000002010BD003C024070B50D4D04464FF4D9
:1010A0007A712878B1FBF0F00A490968B1FBF0F0D9
:1010B00001F0EDF948B9102C07D200222146501E4C
:1010C00000F030F800206C6070BD012070BD0000A1
:1010D00014000020200000200A4808B5016841F4EF
:1010E00080410160006800F4804000900548001FC6
:1010F000016841F080510160006800F0805000906C
:1011000008BD000044380240002809DB00F01F023F
:10111000012191404009800000F1E020C0F8001159
:1011200070470000F0B40E4B1B680C46C3F302235B
:10113000C3F10705042D00D90425191D072901D283
:10114000002300E0DB1E012606FA05F1491E2140BE
:1011500099409E40761E16403143F0BC02F03ABFE3
:101160000CED00E0064900F0070208684FF6FF03A7
:10117000184040EA0220034A10430860704700000C
:101180000CED00E00000FA052DE9F843174801686E
:1011900041F0805101600068154F00F08050012639
:1011A00000903E64FFF750FF05464FF47A78114CEB
:1011B00005E000BFFFF748FF401B40450DD86068C1
:1011C000C003F7D57E64FFF73FFF0546464607E0BC
:1011D000FFF73AFF401BB04202D90320BDE8F88375
:1011E00060688003F4D50020F8E700004038024032
:1011F00000000E42007000402DE9F0470E46050049
:1012000065D0DFF81481D8F80000F7B200F00F00C5
:10121000B04207D288F80070D8F8000000F00F0044
:10122000B04254D128683D4C810712D5400703D500
:10123000206840F4E05020602878000703D520683B
:1012400040F4604020602068A96820F0F000084366
:1012500020602878C0072DD03049686808390128F7
:1012600012D0022813D0032811D009688907002959
:101270002DDA216821F0030101432160FFF7E4FE2C
:10128000814641F2883A0EE009688903EFE7096870
:101290008901ECE7FFF7D8FEA0EB0901514502D91F
:1012A0000320BDE8F0872068696800F00C00B0EB0F
:1012B000810FEFD1D8F80010404601F00F01B14284
:1012C00007D90770006800F00F00B04201D001207C
:1012D000E7E72878400705D52068E96820F4E05062
:1012E000084320602878000706D52068296920F483
:1012F000604040EAC100206000F038F82168084AE8
:10130000C1F30311515CC8400649086006480068F3
:10131000FFF7C2FE0020C4E7003C0240083802404C
:101320005042000820000020180000200448054911
:1013300000680968044AC1F38221515CC8407047C3
:101340002000002008380240604200080448054997
:1013500000680968044AC1F34231515CC8407047D3
:10136000200000200838024060420008154810B5EF
:10137000006810F00C02144813D01449042A0FD04E
:10138000082A0ED10F4C241F2268236802F03F0266
:101390005B0207D52068C0F38810A0FB010106E0BE
:1013A000084610BD2168C1F38811A1FB000100238C
:1013B000FEF71CFF2168C1F30141491C4900B0FB45
:1013C000F1F010BD083802400024F40040787D019F
:1013D0002DE9F84F04006ED02078DFF83C93C00769
:1013E000A9F104054AD009F104000168C1F38101A3
:1013F000012908D00068C0F3810002280AD1D9F879
:101400000000400206D52868800337D560680028B0
:10141000E1D033E06068B0F5803F10D0B0F5A02F88
:10142000286810D020F480302860286820F48020BC
:1014300028606068A8B1FFF707FE06460DE028683F
:1014400040F48030F4E740F480202860F7E700BFE4
:10145000FFF7FAFD801B642873D828688003F7D54E
:101460000CE0FFF7F1FD064605E000BFFFF7ECFDDD
:10147000801B6428F0D828688003F7D42078DFF830
:101480009C8280074FF0000A3ED5A348001D0168EA
:1014900011F00C0F08D00068C0F3810002280BD1B6
:1014A000D9F80000400207D42868800716D5E06804
:1014B000012800D112E02BE1E068B8B10120C8F8A2
:1014C0000000FFF7C1FD064605E000BFFFF7BCFDC9
:1014D000801B0228C0D828688007F7D528682169B2
:1014E00020F0F80040EAC10028600DE0C8F800A034
:1014F000FFF7AAFD064604E0FFF7A6FD801B0228C1
:101500001FD828688007F7D42078000722D5824E9C
:1015100083486169703671B101210160FFF794FD64
:10152000074604E0FFF790FDC01B022809D8306889
:101530008007F7D50EE0C0F800A0FFF785FD07464D
:1015400005E082E0FFF780FDC01B02287DD83068EF
:101550008007F7D42078400768D5DFF8BCB10027B2
:101560000BF13C0BDBF80000C0000BD4DBF80010E3
:1015700041F08051CBF80010DBF80000012700F0AB
:1015800080500090674E3068C00510D4306840F439
:1015900080703060FFF758FD009005E0FFF754FDC4
:1015A0000099401A022850D83068C005F6D55A4E26
:1015B000A0686C3601280FD00528306810D020F0C4
:1015C00001003060306820F004003060A068B8B1DD
:1015D000FFF73AFD00900FE0306840F00100F4E7BB
:1015E00040F004003060F7E7FFF72EFD0099411A44
:1015F00041F28830814266D830688007F4D50EE029
:10160000FFF722FD009007E0FFF71EFD0099411A49
:1016100041F28830814256D830688007F4D42FB127
:10162000DBF8001021F08051CBF80010A069C8B39E
:101630003949091D0968C1F3810102294AD00228EC
:10164000504607D0C8F8600000E03CE0FFF7FCFC23
:1016500004463BE04746C8F86000FFF7F5FC064645
:1016600005E000BFFFF7F0FC801B02282BD828689C
:101670008001F7D4D4E907010843A16A2A4A49083E
:1016800002EB0141626A41EA8211084394F82C108E
:1016900040EA0161C9F8001001203866FFF7D4FC68
:1016A000044606E036E000BFFFF7CEFC001B022830
:1016B00009D828688001F7D52CE000BFFFF7C4FCEB
:1016C000001B022802D90320BDE8F88F286880019A
:1016D000F4D41FE00128F7D0D9F80000E26900F443
:1016E0008001914214D1226A00F03F0191420FD152
:1016F00047F6C071626A0140914209D1A26A00F4C2
:101700004031914204D1E16A00F07060884201D01A
:101710000120D9E70020D7E7043802400000474203
:10172000800E4742007000400000FFFF10B5FEF73A
:10173000F9FD10BD2DE9FE43044603200F4684F851
:101740003400606C03285AD0B7F5805F57D04FF44F
:10175000006600254FF08068B7421CD100950195C6
:101760000021206801F090FA800121D469462046CA
:1017700001F00CFE98BB0198400332D5B4F850003C
:101780000104206801F0BCFA48BB0221206822E075
:10179000A06B284327E01FB1A06B40F0006022E05F
:1017A000009501950021206801F06EFA800101D5B5
:1017B0003546EDE76946204601F0E8FD78B9019825
:1017C000C0030ED5B4F850000104206801F098FA67
:1017D00028B90021206801F0E0FA0028D8D0054699
:1017E000D6E74546D4E7A063A06B012558B1216830
:1017F0000C48886384F834500120BDE8FE83A06B58
:1018000040F08050EFE7211DD4E905060EC900978E
:10181000CDE90106206801F041FA84F83450002037
:10182000EBE70000FF05400070470000F0B5426E96
:10183000920F0A70426EC2F383624A70426EC2F324
:1018400001628A70426E120CCA70B0F86420120AEB
:101850000A7190F864204A71826E120DCA80826EFD
:10186000C2F303420A72B0F86820C2F3C0324A726F
:10187000B0F86820C2F380328A72B0F86820C2F3F0
:101880004032CA72B0F86820C2F300320A730026F0
:101890004E73426C4FF40075012462B1012A3AD0B4
:1018A000026847499163816B41F08051816380F800
:1018B00034400120F0BDB0F86820C36E9205120DCF
:1018C00042EA93720A61C26EC2F3C2620A75C26EC4
:1018D000C2F302624A75C26EC2F342528A75C26E88
:1018E000C2F38242CA75C26EC2F3C2320A760A6974
:1018F000521C42650B7E03F007039B1C9A40426515
:101900000B7A03F00F0704FA07F383655B0A5A4367
:10191000C0E917250EE090F86820C36E9206920A7F
:1019200042EA13420A610A69521C92024265C0E906
:101930001652056630F86C2FC2F3803201F8192F69
:101940000288C2F3C6124A70027802F07F028A70DF
:101950004268D20FCA704268C2F341720A7142688B
:10196000C2F382624A714268C2F383528A7142684A
:10197000C2F34052CA710E724268C2F300424A7208
:101980008288C2F3C0328A728288C2F38032CA72FD
:101990008288C2F340320A738288C2F300324A73EB
:1019A0008288C2F381228A738288C2F30122CA73B9
:1019B0000079C0F3460008744C740020F0BD0000AC
:1019C000FF054000426C0A60826C4A60C26C8A600B
:1019D000026DCA60426D0A61826D4A61C26D8A61A0
:1019E000006EC8610020704770B50446B0F8500022
:1019F00000250104206801F0DAFA18B1A16B014357
:101A0000A16304E00021206801F03EF90546C5F31A
:101A1000432070BDF8B5056B04460068416B0904AE
:101A20001BD5290719D5D4E90A56002E14D0002752
:101A3000206801F04DF905F8010B010A05F8011BBA
:101A4000010C05F8021B000E361F7F1C05F8010C67
:101A5000082FEDD3C4E90A56F8BD416B4FF00006DC
:101A6000C9054FF0010744D5390281632068C16B75
:101A70004CF23A329143C1632068C16A21F00101FE
:101A8000C16228071DD515F0220F09D0206801F08A
:101A9000BFFA28B1A16B0143A1632046FFF7C4FE42
:101AA000216840F23A50886384F834702663A807AE
:101AB00003D0204600F096FAF8BD204600F096FAD2
:101AC000F8BD2806FCD5A80609D5206801F0A0FAC3
:101AD00028B1A16B0143A1632046FFF7A5FEA8072B
:101AE000EED12068C16A21F00801C16284F8347027
:101AF000E3E7416B490424D5290722D5D4E90856E8
:101B0000002EDDD05FF0000715F8010B009015F8EE
:101B1000011B361F40EA0120009015F8021B40EA25
:101B20000140009015F8011C40EA016000906946F0
:101B3000206801F0E0F87F1C082FE5D3C4E90856BF
:101B4000F8BD416B40F23A221142F9D0416B89074E
:101B500003D5A16B41F00201A163416B090703D5D5
:101B6000A16B41F00801A163416B890603D5A16B0C
:101B700041F02001A163416BC90603D5A16B41F07F
:101B80001001A163416B890503D5A16B41F00801E8
:101B9000A16340F23A7181632068C16B40F23A322E
:101BA0009143C163206801F033FAA16B0843A0633D
:101BB000280706D584F8347026632046FFF734FEE4
:101BC000F8BD2806FCD515F0300F0CD0E16B11489C
:101BD0000865E06BFEF73FFF0028F1D0E06BBDE841
:101BE000F84001F0B1BBA8070CD0216C0A48086589
:101BF000206CFEF730FF0028E2D0206CBDE8F840F2
:101C000001F080BBA66384F8347026632046FFF79A
:101C10008DFDF8BD493300080533000870B5040098
:101C20000ED094F83400002518B92577204600F02E
:101C30003BF8032084F83400204600F00BF808B18C
:101C4000012070BDA5632563012084F834000020C5
:101C500070BD0000FEB50025044676200095CDE954
:101C6000015029460B460A46206801F017F808B1D2
:101C70000120FEBD0B4E46F8A05F206801F020F861
:101C800001253560204601F063FC20B9204601F0B3
:101C9000E7FB0028EDD084F83450A16B0143A16329
:101CA000E6E70000008025422DE9F04F87B00546A9
:101CB00014216846FEF7E4FA4649286888427DD137
:101CC00045480068444940F400600860086800F432
:101CD000006005904048143800683F4940F0040017
:101CE00014390860086800F004000590086840F0A6
:101CF000080008600868022400F0080005904FF40E
:101D0000F850CDE9000402AA002003264FF00C0889
:101D100082E8410169463148FFF7A6F802AA00208F
:101D200082E841010427CDE9007469462C48FFF799
:101D30009BF82D4C2B484FF00068C4E900080020A8
:101D40004FF48069A060C4E90309B8024FF4804BE6
:101D5000C4E9050BC4E909764FF0200A0020C4E964
:101D600007A07E05B7102046C4E90B67FEF756FFB3
:101D700008B1FEF7ECFB2C64A5631B4C19486034DA
:101D80004830C4E900084020A0600020C4E90309ED
:101D9000C4E907A00420606204F12802032082E85D
:101DA000C1004FF48051C4E9051B2046FEF736FF01
:101DB00008B1FEF7CCFBEC63002200E007E011461F
:101DC0003120A563FFF7AEF93120FFF79DF907B089
:101DD000BDE8F08F002C014044380240000802406A
:101DE000000C024058640240A80000202DE9F04F8A
:101DF00087B09B4616460D460446FFF725F900902E
:101E00003DB194F83400012807D0A06B40F0005099
:101E10000DE0A06B40F0006009E00027A763E16DD2
:101E200006EB0B00884204D9A06B40F00070A06361
:101E300095E0032084F834002068C762606C0128B4
:101E400000D076024FF40071206800F08DFFDFF8BB
:101E500090A1012140B12368C3F838A0A26B0243CE
:101E6000A26384F834107AE04FF0FF3001904FEA1B
:101E70004B200290902003900220CDE904070691A8
:101E80008846B94601A9206800F0E8FEBBF1010FC1
:101E900006D9022020633146206800F0F9FF05E0F2
:101EA000C4F830803146206801F00BF830B1226868
:101EB000C2F838A0A16B0143A1634CE0029E1EE072
:101EC000406B000413D596B10027206800F000FF96
:101ED00005F8010B010A05F8011B010C05F8021BAE
:101EE000000E361F7F1C05F8010C082FEDD3FFF7FD
:101EF000ABF80099411A109881421DD2E0B12068D8
:101F0000426B40F22A310A42DAD0416BC90509D549
:101F1000BBF1010F06D9616C032903D001F078F8F9
:101F20000028C4D12068416B09071AD5C0F838A031
:101F3000A06B40F0080051E02168C1F838A0A06B08
:101F400040F00040A06384F83480C4F8309003204F
:101F500007B0BDE8F08F84F83480C4F830900120D9
:101F6000F6E7416B890705D5C0F838A0A06B40F0B3
:101F7000020033E0416B89061CD5C0F838A0A06B85
:101F800040F020002AE000BF00F0A2FE05F8010B9F
:101F9000010A05F8011B010C05F8021B000E05F8EB
:101FA000010C361FFFF750F80099411A1098814232
:101FB0000ED268B12068416B890201D5002EE3D1B1
:101FC000216840F23A50886384F834800020BFE7EB
:101FD0002168C1F838A0A06B40F00040A063BAE7C8
:101FE000FF05400010B5FEF7E1F910BD10B5FEF792
:101FF000EFF910BD2DE9FF4F8DB016460D46044692
:10200000FFF722F80B903DB194F83400012807D077
:10201000A06B40F000500DE0A06B40F0006009E0C4
:102020000027A7631098E16D3044884204D9A06B63
:1020300040F00070A0638BE0032084F83400206837
:10204000C762606C012800D076024FF400712068EE
:1020500000F08AFEDFF864B1012140B12368C3F8C3
:1020600038B0A26B0243A26384F8341070E04FF0E2
:10207000FF30039010988946400204909020CDE9EB
:102080000507CDE90771BA4603A9206800F0E6FD0F
:102090001098012806D9202020633146206800F0DE
:1020A000D1FF05E0102020633146206800F0E3FFF7
:1020B0005FEA000806D02168C1F838B0A06B40EA9A
:1020C000080071E0049E27E0406B40041CD5DEB19F
:1020D0005FF0000715F8010B009015F8011B361F83
:1020E00040EA0120009015F8021B40EA01400090F0
:1020F00015F8011C40EA016000906946206800F074
:10210000FAFD7F1C082FE5D3FEF79EFF0B99411ABD
:102110001A98814220D2F8B12068416B40F21A32FD
:102120001142D1D0416BC90523D51099012920D97D
:10213000616C03291DD000F06BFFD0B12268C2F89A
:1021400038B0A16B0143A16384F83490C4F830A087
:10215000012011B0BDE8F08F2168C1F838B0A06B44
:1021600040EA0800A06384F83490C4F830A003204B
:10217000EFE72068416B090705D5C0F838B0A06BC0
:1021800040F0080010E0416B890705D5C0F838B071
:10219000A06B40F0020007E0416BC90606D5C0F80D
:1021A00038B0A06B40F01000A063CDE740F23A5188
:1021B000816384F834900020CBE70000FF054000E5
:1021C00070B5040005D00025A56294F8510010B147
:1021D00006E0012070BD84F85050204600F030F831
:1021E000022084F851002068016821F0400101605C
:1021F000D4E901010843D4E903121143084361699A
:102200000843218B01F400710843E1690843216A06
:102210000843A16A084321680860A069042101EA13
:102220001040616A0843216848602068C16921F450
:102230000061C1616565012084F85100002070BD16
:1022400010B586B0044614216846FEF719F8144903
:102250002068884221D113480021026842F480128C
:102260000260006800F4801005900E48143802687F
:1022700042F020020260006800F0200005904FF458
:10228000607000900220CDE9010103200390052039
:10229000049069460448FEF7E7FD06B010BD000053
:1022A0000050014044380240001402402DE9F84F2C
:1022B000044690F8500000270A9E1D4692468B4621
:1022C0004FF0010901280ED0012084F85000FEF7DC
:1022D000BBFE804694F85100616801280CD0B1F52E
:1022E000827F07D102E00220BDE8F88FA16809B91A
:1022F000042801D00227C2E0BBF1000F27D0BAF1B9
:10230000000F24D01DB394F85100042802D00520FA
:1023100084F8510000206065C4F838A0E587A587DF
:10232000C4F830B0E586A586206460642068016842
:10233000490603D4016841F040010160E068B0F54E
:10234000006F606805D0E8B3012D46D07FE001271B
:1023500095E008B1012D39D1206B21680088C86053
:10236000206B801C2063E08E401EE0862EE02068FB
:10237000816889070FD5E18E69B1B9F1010F0AD1E2
:10238000216B0988C160206B801C2063E08E401E99
:10239000E0864FF0000920688168C9070CD0E18F02
:1023A00051B1C068A16B0880A06B801CA063E08F56
:1023B000401EE0874FF00109FEF746FEA0EB080043
:1023C000B04200E009E001D3701C50D1E08E00283B
:1023D000CDD1E08F0028CAD13FE0206B2168007882
:1023E0000873206B401C2063E08E401EE0862EE0C8
:1023F0002068816889070FD5E18E69B1B9F1010FB5
:102400000AD1216B09780173206B401C2063E08E98
:10241000401EE0864FF0000920688168C9070CD093
:10242000E18F51B1C068A16B0870A06B401CA06324
:10243000E08F401EE0874FF00109FEF705FEA0EB9C
:102440000800B04202D3701C01D010E07EB1E08ED3
:102450000028CDD1E08F0028CAD14246314620461F
:1024600001F032F928B101272020606507E0032739
:1024700005E0A06818B92068C16880680090012054
:1024800084F85100002084F8500038462CE710B53D
:10249000401EB0F1807F01D3012010BD4FF0E02439
:1024A00060610F21601701F095FD0020A0610720F9
:1024B0002061002010BD704770B5026804461068A6
:1024C000D168536910F00F0F53D003F0010501F4E8
:1024D00090762E435FD0C20705D0CA0503D5E26BC4
:1024E00042F00102E263420705D5DA0703D0E26B4E
:1024F00042F00202E263820705D5DA0703D0E26BFD
:1025000042F00402E263020707D501F020022A43E9
:1025100003D0E26B42F00802E263E26B002A34D09F
:10252000800604D5880602D5204601F0D1FB20683C
:102530004069E16BC0F3801001F0080101432046BF
:1025400024D001F0B7FB2068416949061AD54169DA
:1025500021F040014161606BA0B11B490165606BD6
:10256000FEF779FA002810D0606B016DBDE870406D
:10257000084783060FD58B060DD52046BDE8704071
:1025800001F0A6BB2046FFF796FF70BDFFF793FF53
:102590000020E06370BD030606D50B0604D5204677
:1025A000BDE8704001F074BC4006F3D54806F1D593
:1025B000D168204621F04001D160202184F83910F3
:1025C00000F039F970BD0000A53C000870B50400AA
:1025D00004D094F83900002510B106E0012070BD48
:1025E00084F83850204600F023F8242084F839007D
:1025F0002068C16821F40051C160204601F0B4FB9D
:102600002068016921F4904101612068416921F04D
:102610002A0141612068C16841F40051C160E5634D
:10262000202084F8390084F83A00002070BD0000B2
:1026300010B586B0044614216846FDF721FE1B49FB
:10264000206888422FD11A480021026842F0100207
:102650000260006800F01000059015481438026808
:1026600042F001020260006800F0010005904FF4A2
:10267000C06000900220CDE90101032003900720F3
:10268000049069460B48FEF7EFFB00221146252017
:10269000FEF748FD2520FEF737FD07480068C168B2
:1026A00041F02001C16006B010BD000000100140E3
:1026B0004438024000000240C00100202DE9F843E8
:1026C000044690F83A00994616460D46202852D105
:1026D000BDB1B6B194F8380001284CD0012084F87F
:1026E00038000027E763222084F83A002C34FEF7F4
:1026F000ABFC24F8026B804624F80A6B04F83879A6
:1027000031E00120BDE8F883E08D401EE085A0683F
:102710004346B0F5805F4FF000024FF020012046A5
:10272000CDF8009004D001F0E4FB98B10320E9E774
:1027300001F0DFFB0028F9D12069002820684068FB
:1027400003D0C1B225F8011B0DE0C0F3080125F844
:10275000021B08E0206900282068406801D000F0D2
:102760007F0005F8010BE08D0028CDD1202084F8F2
:102770003A000020C6E70220C4E770472DE9F8437D
:10278000044690F839001F4616460D46202850D1C1
:10279000B5B1AEB194F8380001284AD0012084F8D0
:1027A00038004FF00008C4F83C80212084F839003C
:1027B000FEF74AFCA6848146E68484F8388026E049
:1027C0000120BDE8F883E08C401EE084A0684B4601
:1027D000B0F5805F4FF000024FF080012046009777
:1027E00003D001F086FBE8B90DE001F082FBC8B927
:1027F00028882168C0F308004860206908B16D1C72
:1028000005E0AD1C03E0216815F8010B4860E08C81
:102810000028D8D14B46002240212046009701F0E5
:1028200068FB08B10320CCE7202084F839000020A1
:10283000C7E70220C5E77047FEE70000F0B597B094
:10284000282215A10DA8FDF702FD34221CA168461F
:10285000FDF7FDFC4FF47A76334625220DA9254875
:10286000FFF78CFF244C254D0027206858B12760C6
:10287000287830280BD031280CD0334632226946D4
:102880001C48FFF77BFF0A20FEF732FAEDE7002035
:1028900017B0F0BD0120FBE7C7EBCAE4C8EBC3FCEF
:1028A000C1EE0D0A303AB8FCD0C2B9CCBCFE0D0A5C
:1028B000312EC6F4B6AFB3CCD0F20D0A0000000042
:1028C000CAE4C8EBC3FCC1EED3D0CEF32CC7EBD621
:1028D000D8D0C2CAE4C8EB0D0A303AB8FCD0C2B9AD
:1028E000CCBCFE0D0A312EC6F4B6AFB3CCD0F20D7F
:1028F0000A000000C001002000000020001000209D
:10290000FFF79CFFFEF7A2F8FAE700000D4808B5B4
:10291000016841F4800101600068002200F4800039
:10292000009011463B20FEF7FDFB3B20FEF7ECFB41
:10293000002211464520FEF7F5FBBDE80840452082
:10294000FEF7E2BB3038024010B504490448FDF7F9
:10295000FFFD0249491E087010BD0000060000205E
:102960003442000830B587B014216846FDF788FC72
:102970001D480024016841F020010160016801F058
:1029800020010591016841F080010160016801F0BA
:1029900080010591016841F004010160016801F0C6
:1029A00004010591016841F001010160016801F035
:1029B00001010591016841F00801016000680B4DBB
:1029C00000F008000590002240212846FEF736FB63
:1029D000402000900120CDE9010469462846039477
:1029E000FEF742FA07B030BD303802400014024012
:1029F000064805490160002141608160C1600161B4
:102A00004161816170470000002C014024000020DA
:102A10000F4810B50D4901604FF4827141600021EB
:102A20008160C1604FF400720161C0E90512C161AB
:102A30000162416281620A21C162FFF7C1FB002885
:102A400003D0BDE81040FDF782BD10BD005001402D
:102A5000680100200C4810B50A4901604FF4E131CB
:102A60004160002181600C22C160C0E904128161D3
:102A7000C161FFF7ABFD002803D0BDE81040FDF7B2
:102A800066BD10BD00100140C0010020FEE7704788
:102A9000704700000B2820D2DFE800F01F1F060956
:102AA0000C0F1215181A1D004FF4343070474FF4F4
:102AB000B42070474FF4072070474FF4342070471C
:102AC0004FF4612070474FF48710704704487047F7
:102AD0004FF4B4107047034870470020704700005F
:102AE00000B013000050190070B5ADF5826D31A033
:102AF00031A10068CDF80804D1E900010DF580622C
:102B0000002403C24FF480654FF47A76621C2CA136
:102B10000DF5816001F04AFA641CE0B20B281CD26A
:102B2000DFE800F01B06090B0D0F11131517190034
:102B30004FF4333112E0244910E024490EE02449D7
:102B40000CE024490AE0244908E0244906E024492D
:102B500004E0244902E0244900E000212A466846B6
:102B600000F018FE334604220DF581611F48FFF77F
:102B700005FE9DF80000FF2816D000226946104689
:102B80000B5CFF2B06D0521C401C80B292B2A842B4
:102B9000F6D3002233461548FFF7F0FDE4B20A2CC5
:102BA000B4D30DF5826D70BD334606220DF58061FC
:102BB000F1E70000302E2000BFD5210D0A000000F3
:102BC00025642E2000000000009C0500006C080019
:102BD000003C0B00000C0E0000DC100000AC1300E9
:102BE000007C1600004C1900001C1C00C0010020D5
:102BF00030B587B0182211A16846FDF728FB154DA6
:102C00004FF433344FF47A731822694612482C601B
:102C1000FFF7B4FD2868A04203D10A20FEF768F848
:102C2000F8E720462C68A04203D10020286007B0B6
:102C300030BD0A20FEF75CF8F3E70000C7EBCEAA30
:102C4000CBF9B7A2CBCDB5C4B3CCD0F2C3FCC3FB98
:102C5000210D0A0000000020C00100200A68426225
:102C60004A688262D1E902231A43D1E904310B4355
:102C7000C16A1A4321F0F7011143C1620020704775
:102C8000006800F003007047084440697047000086
:102C90000148FEF7BFBE00002400002070B50DF112
:102CA000100C11439CE870002343194329434268E8
:102CB000314347F6FF639A430A434260002070BDE8
:102CC00010B5032101600220FEF712F8002010BDAC
:102CD000D0F8800070470A688260D1E901231A4366
:102CE000D1E903310B43C1681A436FF30B01114360
:102CF000C160002070470968C0F88010002070474C
:102D000010B586B004463720CDE90010402002906F
:102D1000002003904FF48060049069462046FFF73E
:102D2000DAFF41F288323721204600F0BDF906B0C3
:102D300010BD000010B504460A4886B001432920A2
:102D4000CDE9001040200290002003904FF48060F5
:102D5000049069462046FFF7BEFF204600F05CFA6B
:102D600006B010BD0000108010B586B004461020DB
:102D7000CDE9001040200290002003904FF48060C5
:102D8000049069462046FFF7A6FF41F288321021E1
:102D9000204600F089F906B010BD10B586B0044693
:102DA0000620CDE9001040200290002003904FF44F
:102DB0008060049069462046FFF78DFF41F288321B
:102DC0000621204600F070F906B010BD30B585B080
:102DD00000240546009401944FF480600294CDE9EC
:102DE000034069462846FFF776FF0B484FF4FA5137
:102DF0000068B0FBF1F041F288314843401E03D235
:102E00004FF0004005B030BD696B0906F6D5C5200E
:102E1000A8632046F6E700002000002070B585B0CA
:102E200004464FF4D570009001A9082040250026E3
:102E300081E86100C001049069462046FFF74BFF1E
:102E400012484FF4FA510068B0FBF1F041F28831BA
:102E50004843401E03D24FF0004005B070BD616B87
:102E600011F0450FF5D00905F3D4606B400701D58B
:102E7000042003E0606BC00702D00120A063ECE7F0
:102E8000606B400600D5A5633046E6E720000020D1
:102E900010B586B004461220CDE900104020029003
:102EA000002003904FF48060049069462046FFF7AD
:102EB00012FF41F288321221204600F0F5F806B0E8
:102EC00010BD10B586B004461120CDE90010402099
:102ED0000290002003904FF48060049069462046E1
:102EE000FFF7F9FE41F288321121204600F0DCF8AC
:102EF00006B010BD10B586B004460720CDE900200D
:102F000040200290002003904FF4806004906946B6
:102F10002046FFF7E0FE41F288320721204600F00C
:102F2000C3F806B010BD10B586B0044600210220DB
:102F3000CDE90010C020CDE902014FF4806004907B
:102F400069462046FFF7C7FE204600F03DF906B06F
:102F500010BD10B586B004460920CDE90010C02090
:102F60000290002003904FF4806004906946204650
:102F7000FFF7B1FE204600F027F906B010BD10B5EE
:102F800086B0044600213320CDE900104020CDE971
:102F900002010001049069462046FFF79CFE41F2C1
:102FA00088323321204600F07FF806B010BD10B5FE
:102FB00086B004460D20CDE900104020029000208C
:102FC00003904FF48060049069462046FFF783FE2B
:102FD00041F288320D21204600F066F806B010BD9F
:102FE00030B585B00C46054600210320CDE9001020
:102FF0004020CDE902010001049069462846FFF710
:103000006AFE22460321284600F028F905B030BDAB
:1030100010B586B0044600210C20CDE900104020F8
:10302000CDE902010001049069462046FFF753FEF6
:10303000034A0C21204600F037F806B010BD00000E
:1030400000E1F50510B586B004461920CDE9001061
:1030500040200290002003904FF480600490694665
:103060002046FFF738FE41F288321921204600F051
:103070001BF806B010BD10B586B004461820CDE987
:10308000001040200290002003904FF480600490D4
:1030900069462046FFF71FFE41F28832182120467C
:1030A00000F002F806B010BD454B10B51B684FF498
:1030B000FA54B3FBF4F353435B1E02D24FF00040CB
:1030C00010BD426B12F0450FF6D01205F4D4426BDE
:1030D000520703D504218163084610BD426BD20715
:1030E00002D00121816305E0C52282630269D2B268
:1030F0008A4201D0012010BD0021FFF7C5FD3149F2
:10310000084201D1002010BD002802DA4FF0007003
:1031100010BD410001D5402010BD810001D58020A7
:1031200010BDC10002D54FF4807010BD010102D561
:103130004FF4007010BD410102D54FF4806010BD06
:10314000C10102D54FF4006010BD010202D54FF459
:10315000805010BD410202D54FF4005010BD8102D5
:1031600002D54FF4804010BDC10202D54FF400409B
:1031700010BD410302D54FF4003010BD810302D5CC
:103180004FF4802010BDC10302D54FF4002010BDC4
:10319000010402D54FF4801010BD410402D54FF454
:1031A000001010BD810402D54FF4800010BD00074F
:1031B00002D54FF4000010BD4FF4803010BD000068
:1031C0002000002008E0FFFD12494FF4FA52096880
:1031D000B1FBF2F141F288325143491E02D24FF065
:1031E00000407047426B12F0450FF6D01205F4D440
:1031F000416B490703D50421816308467047416B41
:10320000C90703D00121816308467047C521816346
:1032100000207047200000200F494FF4FA5209683F
:10322000B1FBF2F141F288325143491E02D24FF014
:1032300000407047426B12F0450FF6D01205F4D4EF
:10324000416B490703D50421816308467047C521B6
:1032500081630020704700002000002030B5204B23
:103260004FF4FA541B68B3FBF4F341F28834634320
:103270005B1E02D24FF0004030BD446B14F0450F8E
:10328000F6D02405F4D4436B5B0703D50421816396
:10329000084630BD436BDB0702D00121816303E0A8
:1032A0000369DBB28B4201D0012030BDC5218163AF
:1032B0000021FFF7E9FC10F4604F04D0410406D56B
:1032C0004FF4005030BD000C1080002030BD0004D1
:1032D00002D54FF4805030BD4FF4803030BD000037
:1032E0002000002010B5064C01202070FDF722F8C8
:1032F00018B9207820F001002070207810BD00005F
:103300000400002010B5846B40F23A5021688863B5
:103310002046FEF769FB012184F834100021216367
:10332000062801D0052805D12068FFF771FEA16BA2
:103330000843A063A06B0028204602D0FEF774FA71
:1033400010BDFEF7F3F910BD10B5846B40F23A5092
:10335000216888632046FEF747FB012184F834107A
:1033600000212163062801D0052805D12068FFF738
:103370004FFEA16B0843A063A06B0028204602D03B
:10338000FEF752FA10BDFEF7D1F910BD2DE9F04F4E
:1033900089B00D460446FDF757FE00268346009689
:1033A0000196374608212068FFF7DEFC002834D15B
:1033B000B4F8500001042068FFF7A2FC00282CD1CB
:1033C000401E4FF00808CDE9020830204FF00209F6
:1033D000CDE904090120CDE9067002A92068FFF7B4
:1033E0003DFC2068FFF7CBFD002816D1EA4640F2ED
:1033F0002A472068416B394212D1416B890204D5BA
:10340000FFF766FC4AF82600761CFDF71DFEA0EBD0
:103410000B00401CEDD14FF0004009B0BDE8F08F2B
:10342000416B090703D5C0F838800820F5E7416BE8
:10343000890703D5C0F838900220EEE7416B890672
:1034400003D5202181630846E7E740F23A518163C2
:10345000019800BA2860009800BA68600020DCE794
:1034600010B590B004460120ADF838002068FFF791
:1034700007FC002854D0606C032842D02068FFF776
:1034800052FD00284AD100212068FFF7FDFB60674C
:1034900004212068FFF7F8FBA06708212068FFF7E8
:1034A000F3FBE0670C212068FFF7EEFBC4F8800017
:1034B000606C032825D00EA92068FFF791FD002835
:1034C0002CD1606C03281CD0BDF8380020650104A5
:1034D0002068FFF73EFD002820D100212068FFF77B
:1034E000D3FB606604212068FFF7CEFBA0660821AD
:1034F0002068FFF7C9FBE0660C212068FFF7C4FBDA
:10350000206704212068FFF7BFFB000DE06403A9DA
:103510002046FEF78BF930B14FF0805010B010BD4F
:103520004FF08060FAE7B4F85000002302042068EE
:10353000FFF7E0FC0028F1D104F1100007C88DE886
:10354000070094E80F00FFF7A9FB0020E6E7000062
:103550002DE9F84F0026044600963546B04600682F
:10356000FFF734FC002827D12068FFF757FC4FF005
:10357000805B4FF001094FF6FF7748B1A6642068E1
:10358000FFF724FC002817D1A06C012802D020E00E
:10359000C4F8489000212068FFF7B2FB58B918E042
:1035A00000212068FFF7ACFB002805D151462068B8
:1035B000FFF7C0FB10B15846BDE8F88F0021206826
:1035C000FFF762FB05464FEAD0780098401C009058
:1035D00002E0DFF82CA00098B84202D2B8F1000F48
:1035E000DED00098B84202D34FF08070E4E7680064
:1035F00002D5C4F8449000E066640020DCE70000D7
:10360000000010C170B5064C054601202070FCF783
:103610009DFE18B92846FFF765FE2070207870BD22
:103620000400002010B5124888B014460078C00786
:1036300002D0032008B010BDC1B1012905D0022974
:1036400008D003290CD00420F4E76846FCF76CFE90
:1036500006980AE06846FCF767FE0798208005E0B8
:103660006846FCF761FE0798400A20600020E1E709
:103670000400002070B51D46164608460124A31E0E
:103680002A463146FCF782FE28B900BFFCF752FEFD
:103690000028FBD10024204670BDFFF723BE0000A8
:1036A00070B51D46164608460124A31E2A4631461B
:1036B000FCF77EFE28B900BFFCF73CFE0028FBD1DA
:1036C0000024204670BD000038B504461248134B54
:1036D0000068B0FBF3F04FF47A73584300906068D1
:1036E000B0F5827F0DD10B4600920022802120464A
:1036F00000F04AF970B1606D40F020006065032071
:1037000038BD009830B1401E009020688068C043EA
:103710000006F6D5002038BD2000002000366E01DE
:1037200010B5084C002240212046FDF787FC0620FA
:1037300000F01AF920460122BDE810404021FDF7B3
:103740007DBC00000014024070B50403FFF7E8FFE1
:1037500000F064F80E4D002240212846FDF76EFC73
:10376000202000F001F9C4F3074000F0FDF8C4F395
:10377000072000F0F9F8E0B200F0F6F8012240214D
:103780002846FDF75BFCBDE8704000F047B800003C
:10379000001402402DE9F041134F15460C46064631
:1037A000002240213846FDF749FC032000F0DCF8F8
:1037B000C4F3074000F0D8F8C4F3072000F0D4F8B1
:1037C000E0B200F0D1F8002405E0FF2000F0CCF8D2
:1037D0003055641CA4B2AC42F7D33846BDE8F04182
:1037E00001224021FDF72ABC0014024070B50A4DA9
:1037F000002240212846FDF721FC052000F0B4F806
:10380000FF2000F0B1F80446012240212846FDF7D0
:1038100015FC204670BD0000001402402DE9104048
:10382000FFF7E4FFC007FBD110BD00002DE9F05FFA
:10383000C1F30B060F0BC6F5805488468246154629
:10384000A24200D81446DFF87C9039038B464FF42F
:1038500080521C48FFF79EFF002006E0321819F83E
:103860000210FF2903D1401C80B2A042F6D3A0422F
:1038700022D23846FFF768FF00204A4606E000BF24
:103880001AF800108319401CD15480B2A042F7D31B
:1038900059464FF480520B4800F016F8A5420FD05D
:1038A000281BA244A044002685B24FF480547F1CFC
:1038B000A542CAD82C46C8E7224641465046EBE707
:1038C000BDE8F09F00E002202DE9F0410746C8B2B4
:1038D000C0F580740E461546A24200D814464FF437
:1038E000807822463146384600F00EF8A54208D0CE
:1038F000281B2744264485B24446A542F1D82C46CD
:10390000EFE7BDE8F08100002DE9F04115460C46D7
:103910000646FFF705FF134F002240213846FDF70A
:103920008DFB022000F020F8C4F3074000F01CF8E3
:10393000C4F3072000F018F8E0B200F015F80024F6
:1039400004E0305D00F010F8641CA4B2AC42F8D37F
:10395000012240213846FDF771FBBDE8F041FFF739
:103960005DBF00000014024001B582B04FF47A70D0
:103970000090012301AA02A90248FEF797FC9DF8D6
:1039800004000EBD680100202DE9F0411D461746D8
:103990000E460446DDF8188008E0681C06D0FDF7E6
:1039A00053FBA0EB0800A8420BD255B120688068F9
:1039B00036EA000030D00020B842EED10020BDE849
:1039C000F0812068416821F0E00141606068B0F555
:1039D000827F0BD1A068B0F5004F02D0B0F5806FA8
:1039E00004D12068016821F040010160A06AB0F5AF
:1039F000005F09D12068016821F40051016020684E
:103A0000016841F400510160012084F85100002058
:103A100084F850000320D2E70120CDE73A498842DC
:103A200001D2002070473949884201D201207047F5
:103A30003749884201D2022070473649884201D274
:103A4000032070473449884201D20420704733492B
:103A5000884201D2052070473149884201D20620B0
:103A600070473049884201D2072070472E4988426A
:103A700001D2082070472D49884201D209207047A1
:103A80002B49884201D20A207047B0F1016F01D260
:103A90000B2070472749884201D20C2070472649E5
:103AA000884201D20D2070472449884201D20E205D
:103AB00070472349884201D20F207047214988422C
:103AC00001D2102070472049884201D2112070474E
:103AD0001E49884201D2122070471D49884201D2F6
:103AE000132070471B49884201D2142070471A499D
:103AF000884201D2152070471849884201D2162009
:103B00007047172070470000004000080080000840
:103B100000C00008000001080000020800000408BE
:103B2000000006080000080800000A0800000C0851
:103B300000000E08004010080080100800C01008A7
:103B40000000110800001208000014080000160808
:103B50000000180800001A0800001C0800001E08D9
:103B60002DE9F04F87B04FF0000817460E46044687
:103B7000CDF81480B0F1006F38D3A00736D1FDF72F
:103B80005DF91C48254604EB87074CF25039844206
:103B900015D24FF0010A4FF0020BBD420FD2286838
:103BA000401C11D02846CDF80080FFF737FF02AA4D
:103BB00005A982E8010C6846FDF7AAF828B1484635
:103BC000FCF7E6FD70B10FE02D1D4846FCF7E0FD67
:103BD000E3E70023214602203268FDF7F1F818B927
:103BE000241D361DBC42F4D3FDF7E0F807B0BDE854
:103BF000F08F00000000FF1F7047FDF72BBA000098
:103C000070B592B030216846FCF73AFB14210CA83D
:103C1000FCF736FB1A480025016841F0805101602D
:103C2000006800F0805011901648016841F440414E
:103C300001600068022400F44040119001200090CF
:103C4000000401908001CDE906400F260896D82097
:103C5000CDE9090404200B906846FDF7B9FBFDF798
:103C600093FA4FF4A050CDE90E50E002CDE90C6478
:103C7000109005210CA8FDF7BFFA12B070BD00002E
:103C800040380240007000400548016841F470016E
:103C9000016003494FF00060803908607047000000
:103CA00088ED00E010B5806B0021C185C184FEF76E
:103CB00002FC10BD0168CA6822F49072CA600168F3
:103CC0004A6922F001024A61202180F83A107047C7
:103CD00010B590F83A10222901D0022010BD816859
:103CE000B1F5805F11D00169002901681FD04968D2
:103CF00001F07F03816A4A1C82620B70C18D491EEC
:103D00000904090CC18518D02BE00269816A002AD8
:103D10000268526805D0D2B20A80816A491C816269
:103D2000ECE7C2F308020A80816A891CF7E74A6857
:103D3000816A4B1C83620A70E0E70168CA6822F05E
:103D40002002CA600168CA6822F48072CA600168F1
:103D50004A6922F001024A61202180F83A10FEF7F8
:103D60000CFD002010BD00002DE9F0410446006864
:103D70000169E26821F44051114301612169A068A1
:103D8000E26908436169114308432168CA6849F23E
:103D90000C639A430243CA6020684169A26921F416
:103DA000407111434161E069192764253226B0F55D
:103DB000004F354A354920684FF0000806D0884248
:103DC00001D0904236D1FDF7C1FA35E0884201D0EA
:103DD000904202D1FDF7BAFA01E0FDF7A7FA616857
:103DE0004A18A0FB070148EB0803FCF7FFF901465E
:103DF000B0FBF5F00201B1FBF5F06FF0180358438A
:103E000001EB800006EBC000B0FBF5F000F0F8001D
:103E100002EB4002B1FBF5F0584301EB800006EBEA
:103E2000C000B0FBF5F000F0070021681044886086
:103E3000BDE8F081FDF77AFA61688B0F8A00A0FB7C
:103E40000701FCF7D3F90146B0FBF5F06FF018025B
:103E5000504301EB800006EB0010B0FBF5F000F0E2
:103E6000F002B1FBF5F002EB0012B1FBF5F06FF0E0
:103E70001803584301EB800006EB0010B0FBF5F08F
:103E800000F00F00D1E700000014014000100140D5
:103E900090F83910212901D0022070478168B1F5CE
:103EA000805F016A0BD04A1C026202680978516087
:103EB000C18C491E0904090CC1840ED017E0098881
:103EC0000268C1F30801516001690029016A02D04A
:103ED000491C0162ECE7891CFBE70168CA6822F013
:103EE0008002CA600068C16841F04001C1600020E2
:103EF00070472DE9F041984617460E460446069D48
:103F00001DE0681C1BD02DB1FDF79EF8A0EB08004A
:103F1000A84214D92068C16821F4D071C16020681A
:103F2000416921F001014161202084F8390084F8C1
:103F30003A00002084F838000320BDE8F0812068B2
:103F4000006836EA000004D00020B842D9D0002032
:103F5000F3E70120F9E7000010B5044800F008F885
:103F6000BDE810400148FEF7A7BA0000C0010020DC
:103F700008B501680968C943890610D44FF47A73FB
:103F800001226946FEF79AFB05490868B0F5343FFF
:103F900005D2044B9DF800201A54401C086008BD4F
:103FA0000000002000100020FEE700000FB4084BC6
:103FB00010B504A902AA039800F02CF8044602A93F
:103FC000002000F0D1F8204610BC5DF814FB000082
:103FD000694100080907090E002804DB00F1E02010
:103FE00080F80014704700F00F0000F1E02080F826
:103FF000141D704702E008C8121F08C1002AFAD138
:1040000070477047002001E001C1121F002AFBD158
:10401000704700002DE9FF4F89B09B4604460025FC
:1040200006E025280BD05A460B999047641C6D1C5E
:1040300020780028F5D10DB02846BDE8F08F002784
:10404000B8460122474900E0074314F8013F203BEE
:1040500002FA03F00842F7D120782E2819D114F87B
:10406000010F47F004072A280ED06FF02F022078A6
:10407000A0F1300109290CD808EB880102EB4101BD
:1040800000EB0108641CF2E70A98641C50F8048BEA
:104090000A9020780028CED0642808D0692806D05D
:1040A00075281ED05A460B9990476D1C58E00A9906
:1040B0004FF00A0901C90A91002802DA40422D2175
:1040C00002E0390504D52B218DF82010012103E0F1
:1040D000F90704D02021F7E78A4608AE0DE0002159
:1040E000FAE70A994FF00A0901C90A91F7E7494628
:1040F000FCF7D1F8303106F8011D0028F7D1ADEBFF
:10410000060000F12009780701D44FF00108C845E6
:1041100002DDA8EB090000E000208046002706E051
:1041200008A85A46C05D0B9990476D1C7F1C5745E7
:10413000F6DB04E030205A460B9990476D1CB8F12D
:104140000001A8F10108F5DC05E016F8010B5A465C
:104150000B9990476D1CB9F10001A9F10109F4DC3C
:10416000641C65E7092801000A68531C0B60107085
:104170007047000010B50168074A1140B1F1005FB7
:1041800009D14168054C21600068FCF719F82068E6
:10419000BDE81040004710BD0000F02F0C000020CB
:1041A0002DE9F0470025904606460C462F464FF471
:1041B0000079DFF854A019E0E078A178000640EA21
:1041C000014061784A4640EA012114F8040B084393
:1041D0004AF825006D1CADB2954206D100250A496A
:1041E0003046FFF7BDFC06F500663F1D4745E3D3AB
:1041F000002D06D02A463046BDE8F0470249FFF7B9
:10420000AFBCBDE8F08700000C020020FCF72AFFDD
:10421000FFF7F6FCFEF7A6FBFEF778FBFEF71AFCAD
:10422000FEF7E6FBFEF790FBFEF7F2FBFEF768FBFE
:10423000FEE70000053600089B36000875360008CA
:10424000A1360008253600080006101600061016D4
:104250000000000000000000010203040607080936
:104260000000000001020304884200080000002052
:1042700024000000F43F0008AC42000824000020A5
:10428000DCEF020004400008000000000100000014
:10429000000000000000000000000000010000001D
:0C42A00010000000000000000024F400EA
:04000005080001AD41
:00000001FF
